:020000040800F2
:1000000008B70120A1010008974F00084D330008F0
:10001000954F0008AD0A0008137D0008000000009D
:100020000000000000000000000000009F6C0008BD
:10003000791000080000000061520008856D00087A
:10004000BB010008BB010008BB010008BB010008A0
:10005000BB010008BB010008BB010008BB01000890
:10006000BB010008BB010008BB010008BB01000880
:10007000BB010008BB010008BB010008BB01000870
:10008000BB010008BB010008BB010008BB01000860
:10009000BB010008BB010008BB010008151E0008D9
:1000A000BB010008BB010008BB010008BB01000840
:1000B000116F0008217000089D700008BB01000846
:1000C000BB010008BB010008BB010008BB01000820
:1000D000BB010008857A0008BB010008BB010008CD
:1000E000F51D0008BB010008BB010008BB010008AA
:1000F000BB010008BB010008BB010008BB010008F0
:10010000BB010008E5590008B9700008BB010008F0
:1001100041780008BB010008F5700008197100085B
:10012000BB0100087D0D0008BB010008D50D0008CB
:10013000BB010008BB010008BB010008BB010008AF
:10014000BB010008BB010008BB010008BB0100089F
:10015000BB010008BB010008BB010008BB0100088F
:10016000BB010008BB010008BB010008BB0100087F
:10017000BB010008BB010008BB010008BB0100086F
:10018000BB010008BB010008DFF810D000F02CFB19
:1001900000480047ADE30008AFF3008008B7012036
:1001A0000648804706480047FEE7FEE7FEE7FEE711
:1001B000FEE7FEE7FEE7FEE7FEE7FEE7E96D000883
:1001C000890100082DE9F05F0546002092469B4614
:1001D00088460646814640241BE02846414647465D
:1001E000224600F06AFA53465A46C01A914110D38B
:1001F00011461846224600F051FA2D1A67EB010805
:100200004F4622460120002100F048FA17EB000972
:100210004E41201EA4F10104DFDC484631462A4647
:100220004346BDE8F09F2DE9F0410024061B25461A
:1002300071F1000605DA01240027D0EB070067EB17
:100240000101161E73F1000605DA0027D2EB070242
:10025000012567EB0303FFF7B5FF86460E461746F9
:100260009C46AC4204D00025D0EB050E65EB0106A0
:1002700024B10020D2EB000760EB030C704631463E
:100280003A466346BDE8F08140EA01039B0703D08C
:1002900009E008C9121F08C0042AFAD203E011F8C5
:1002A000013B00F8013B521EF9D27047D2B201E087
:1002B00000F8012B491EFBD270470022F6E710B56B
:1002C00013460A4604461946FFF7F0FF204610BDC4
:1002D000421C10F8011B0029FBD1801A704730B571
:1002E00004460020034600E05B1C934203D2E05C1E
:1002F000CD5C401BF8D030BD034611F8012B00F84F
:10030000012B002AF9D1184670472DE9FE4F80468F
:1003100081EA0300C00F0C46009021F0004123F059
:100320000045B8EB0200A94105D24046214690465F
:100330001C460B46024623F00040104347D0270DD1
:10034000C7F30A00C3F30A510290401A01904028F3
:100350006BDAC3F3130040F4801B0098924620B17F
:100360000023D2EB030A63EB0B0B01985946C0F153
:100370004002504600F092F906460D465046594656
:10038000019A00F0AAF910EB08006141002487EA05
:10039000115284EAE7731A4340D0009A62B3019A7B
:1003A000012A4FEA075215DC001B61EB02014FF0F6
:1003B000004202EA0752CDE90042001C41F58011DB
:1003C00032462B4600F0AAF903B0BDE8F08F404654
:1003D0002146F9E7001B61EB0201001C41F5801387
:1003E00000185B412018A2F5001747EB030140EA13
:1003F000D570B6196D4111E06D084FEA360645EA31
:10040000C0754FEA0752001B61EB0201001C41F569
:10041000801149084FEA30000019514132462B46FD
:1004200003B0BDE8F04F00F06AB900980122400027
:100430000023D0EB020263EBE073009821464FEA01
:10044000E074B8EB000061EB0401E9E783F00043DE
:100450005BE781F0004158E72DE9FE4F81EA030494
:1004600004F0004421F0004100944FF0000B23F011
:10047000004350EA01045ED052EA03045BD0C3F3A8
:100480000A54C1F30A552C44A4F2F3340194A0FB9E
:100490000254C1F3130141F48011C3F3130343F475
:1004A000801301FB024400FB034E840A970A44EACE
:1004B000815447EA8357A4FB076802958D0A05FB20
:1004C00007854FEA932C04FB0C542705029D4FEA45
:1004D000065847EA1637B5EB08056EEB070C870E92
:1004E000920E47EA811742EA8312A7FB0201B6EB9C
:1004F0000B0164EB00042B0D43EA0C335E1844EB54
:100500001C50DA465146E7FB0201C5F313044FEADB
:100510000B3343EA14534FEA0432019C43EA0603C7
:10052000A4F10C040294009CCDE900B400F0F6F8AC
:1005300003B0BDE8F08F00200146F9E72DE9F04D4A
:1005400081EA030404F0004B21F0004514464FF00B
:10055000000A23F0004150EA050220D054EA0102CB
:100560001DD0C5F30A570246C5F31303C1F31300A8
:10057000C1F30A5640F4801543F48013A7EB060834
:10058000101BD64608F2FD3873EB050002D308F1C4
:10059000010801E092185B41B8F1000F03DA002076
:1005A0000146BDE8F08D00204FF4801106468446D8
:1005B0000EE0171B73EB050705D3121B63EB050356
:1005C00006434CEA010C49084FEA300092185B419F
:1005D00050EA0107EDD152EA030012D082EA04008A
:1005E00083EA0501084305D0101BAB4106D2012266
:1005F000002306E000224FF0004302E06FF001020A
:1006000053101AEB06004CEB085110EB0A0041EBBB
:100610000B01BDE8F04D00F072B800F0004230F080
:1006200000400AD0C10D01F56071C0F3160042EA26
:100630000151C2084007114370470020014670472E
:1006400030B5041E71F1000404DB4FF00044404259
:1006500064EB0101141E73F1000405DB1C464FF02E
:100660000043524263EB0403994208BF904230BDFD
:1006700030B50B46014600202022012409E021FA72
:1006800002F59D4205D303FA02F5491B04FA02F56F
:100690002844151EA2F10102F1DC30BD202A04DB42
:1006A000203A00FA02F1002070479140C2F1200385
:1006B00020FA03F3194390407047202A04DB203AC4
:1006C00021FA02F00021704721FA02F3D040C2F172
:1006D00020029140084319467047202A06DBCB17B9
:1006E000203A41FA02F043EAE07306E041FA02F3ED
:1006F000D040C2F12002914008431946704710B51E
:10070000141E73F1000408DA401C41F10001921834
:100710005B411A4301D120F0010010BD2DE9F04DDD
:1007200092469B4611B1B1FA81F202E0B0FA80F232
:1007300020329046FFF7B2FF04460F4640EA0A0017
:1007400041EA0B0153465A46084313D0114653EA77
:10075000010019D0C8F140025046FFF7AEFF054630
:100760000E46504659464246FFF798FF084305D0CB
:10077000012004E020463946BDE8F08D0020054305
:1007800046EAE0762C4337430A986305E40AA0EB77
:1007900008000022FD0A44EA47540A3002D500202E
:1007A0000146E9E7010510196941DDE9084500192D
:1007B0006941BDE8F04DA2E7C1F30A52C1F313014C
:1007C00040F2FF3341F480119A4202DA00200146E0
:1007D000704740F233439A42A2F2334202DC524263
:1007E000FFF76BBFFFF75ABF064C074D06E0E06806
:1007F00040F0010394E8070098471034AC42F6D368
:10080000FFF7C6FCA8290408C829040870B58C188D
:1008100010F8015B15F0070301D110F8013B2A1114
:1008200006D110F8012B03E010F8016B01F8016B01
:100830005B1EF9D12B0705D40023521E0DD401F8FD
:10084000013BFAE710F8013BCB1A921C03E013F8C6
:10085000015B01F8015B521EF9D5A142D8D30020FB
:1008600070BD002904D0816841F0010181607047AA
:10087000816821F0010181607047000010B5074CCC
:10088000226807490A40D0E900131943D0E9023031
:10089000034319431143216010BD000004230140AC
:1008A000E030FCFF002904D0816841F48071816050
:1008B0007047816821F4807181607047002904D0FD
:1008C000816841F4007181607047816821F4007192
:1008D0008160704730B542680F4B1A400C790B6845
:1008E00042EA04221343436083680C4A1340D1E96F
:1008F000034222434D798C6844EA450422431A435B
:100900008260C26A22F47002097D491EC9B242EABD
:100910000151C16230BD0000FFFEFFFCFDF7FFC0CA
:1009200070B5072609290AD9C568A1F10A0404EBA4
:100930004404A640B543A3401D43C56007E00569D4
:1009400001EB4104A640B543A3401D4305611F23AD
:10095000072A09D2446B521E02EB820293409C4349
:1009600091400C43446370BD0D2A09D2046BD21F21
:1009700002EB820293409C4391400C43046370BDA0
:10098000C46A0D3A02EB820293409C4391400C43AF
:10099000C46270BD816841F0804181607047002170
:1009A0000160017141718160C160016101210175C6
:1009B000704770B504460D4600F026F829462046DB
:1009C000BDE87040AFF300803EB504460D460121FE
:1009D000102004F063FC0194ADF80050094C694606
:1009E000204606F027FD0121204606F0A9FB012242
:1009F0001146204606F0EAFC0121204606F0A6FB3F
:100A00003EBD00000010004008B54FF4E06004F067
:100A1000E3FB36208DF8000000208DF80100032054
:100A20008DF8020001208DF80300684604F0A0FB59
:100A300008BD00001CB50121402004F013FC4FF458
:100A40000040009000208DF8040001208DF8070080
:100A50000C4C6946204601F0AAFF4FF480410091FA
:100A60006946204601F0A3FF4FF40051009169460A
:100A7000204601F09CFFE11400916946204601F0F8
:100A800096FF1CBD0018024070B504460D4629466D
:100A9000204601F0DAFF08B1012070BD294620464A
:100AA00001F0D3FF0028F9D0002070BDFEE770B53B
:100AB00000254FF4803400E0641E24B1802004F04F
:100AC0006BFF0028F8D02CB140F2FF5004F022FF59
:100AD000284670BD032070BD70B5054600243B4913
:100AE000086800E0086810F0450FFBD0410705D505
:100AF0000324042004F00EFF204670BDC00705D07B
:100B00000124012004F006FF204670BD04F03EFFE2
:100B1000A84201D0102070BD40F2FF5004F0FAFE50
:100B2000002004F055FF2A49084201D1204670BD3B
:100B3000002801DA1C2070BD410001D5092070BDDC
:100B4000810001D50A2070BDC10001D50B2070BD08
:100B5000010101D50C2070BD410101D50D2070BDF2
:100B6000C10101D50E2070BD010201D50F2070BD5D
:100B7000410201D5102070BD810201D5112070BD48
:100B8000C10201D5122070BD010301D5132070BD33
:100B9000410301D5142070BD810301D5152070BD1E
:100BA000C10301D5162070BD010401D5172070BD09
:100BB000410401D5182070BD810401D5192070BDF4
:100BC000000701D51A2070BD204670BD342C0140AD
:100BD00008E0FFFD10B500240E4A116800E011681E
:100BE00011F0450FFBD0480705D50324042004F07D
:100BF00091FE204610BDC80705D00124012004F055
:100C000089FE204610BD40F2FF5004F083FE2046CE
:100C100010BD0000342C014010B500240A4A1168B0
:100C200000E0116811F0450FFBD0480705D50324FB
:100C3000042004F06FFE204610BD40F2FF5004F087
:100C400069FE204610BD0000342C014070B50646F8
:100C50000C4600251C4A106800E0106810F0450F93
:100C6000FBD0410705D50324042004F053FE2046A1
:100C700070BDC00705D00124012004F04BFE2046C2
:100C800070BD04F083FEB04201D0102070BD40F270
:100C9000FF5004F03FFE002004F09AFE10F4604F75
:100CA00003D0810405D5132070BD000C2080284698
:100CB00070BD410401D5102070BD000401D50F2086
:100CC00070BD284670BD0000342C014010B50020D6
:100CD0004FF480310D4B1A6801E0491E1A6812F07A
:100CE000450F01D10029F8D109B1510705D50324D9
:100CF000042004F00FFE204610BD5106FCD5002450
:100D0000402004F007FE204610BD0000342C0140B6
:100D100008B54FF6FF70014603F0F2FE0120009087
:100D2000054800210088B63882B204480388B520FF
:100D300003F0A2F908BD0000D2070020D40700206C
:100D4000017A0448017100884FF6FF7180B203F008
:100D5000D7BE00002408002010B5074C8068206032
:100D600080B24FF6FF7103F0CBFE2079082801D145
:100D70000020207110BD00002408002070B5104E26
:100D8000104D3146284600F009F9012438B10E48CB
:100D9000047031462846BDE8704000F033B80B4E71
:100DA0002846314600F0FAF8002807D008480470B9
:100DB00031462846BDE8704000F024B870BD000000
:100DC00000440010286402409107002000880010B1
:100DD0009007002005F06EBA074A904201D20748FA
:100DE00001E005481038064A8B0001EA020101D5EE
:100DF000C16070478160704710640240006002402B
:100E00007D0F7D0F074A904201D2074801E0054857
:100E10001038064A8B0001EA020101D5C160704713
:100E20008160704710640240006002407D0F7D0FBA
:100E3000002904D0016841F0010101607047016898
:100E400021F00101016070472DE9F043016821F0B4
:100E5000010101600021016041608160C1600161A8
:100E6000212141613E493E4A10394FF03D089042F0
:100E700003D1C1F80880BDE8F083394A4FF47465A6
:100E80001832904201D18D60F5E7354A4FF474165F
:100E90003032904201D18E60EDE7314A4FF07467F5
:100EA0004832904201D18F60E5E72D4B2D4A6033E7
:100EB000984201D1CA60DEE7294C2B4B7834A0421E
:100EC00001D1CB60D7E7DFF898C0284C0CF1900C2B
:100ED000604501D1CC60CEE7DFF884904FF03D5CF7
:100EE00009F1A809484502D1C1F80CC0C3E720495F
:100EF000DFF87C900839484502D1C1F80080BAE794
:100F0000DFF86C8008F11808404501D10D60B2E7A8
:100F1000174D3035A84201D10E60ACE7144D48356D
:100F2000A84201D10F60A6E7114D11496035091F94
:100F3000A84201D10A609EE70D4A7832904201D161
:100F40000B6098E70A4A9032904201D10C6092E718
:100F5000074AA83290428ED1C1F800C08BE700004A
:100F6000106002403D000020400F002000003D20A6
:100F700010640240002904D0016841F020010160A2
:100F80007047016821F02001016070470146002090
:100F90000968C90700D001207047000030B500245F
:100FA0000F4A904201D20F4A01E00D4A103A0E4B0F
:100FB000194205D01E2303EAD12503682B4002E025
:100FC000406900F08003880001D5506800E0106897
:100FD000064A1040084201D003B10124204630BD2A
:100FE00010640240006002403C0F3C0F7D0F7D0FFB
:100FF0000B0609D522B1436943F08003436103E046
:10100000436923F080034361802905D001F01E016C
:101010001AB102680A430260704702688A4302609C
:101020007047000030B50368124A1340CC680A6864
:101030002243D1E905452C432243CC6922430C6A63
:1010400022434C6A22438C6A22434C6B22438C6BB2
:1010500022431A430260426922F00703D1E90B24BC
:1010600022431A4342610A6942604A688260896881
:10107000C16030BD3F801CF07047000070B586B085
:101080000121084604F0EEF80121102004F022F9B5
:10109000254E07220A21304601F0C7FC072209210C
:1010A000304601F0C2FC00248DF8164001208DF876
:1010B000170002258DF815508DF814504102049147
:1010C00004A9304601F073FC8DF8145068020490B6
:1010D00004A9304601F06BFC4FF4E1300090ADF80C
:1010E0000440ADF80640ADF80840ADF80C400C20C7
:1010F000ADF80A000D4C6946204606F031FD04F0BB
:1011000010F8012240F22551204606F00EFD012282
:1011100040F22441204606F008FD0121204606F059
:10112000C7FC06B070BD0000000002400010014086
:1011300001B502E00098401E009000980028F9D107
:1011400008BD000001B503480099416041680029CD
:10115000FCD108BD2C08002010B50B4801780129EE
:1011600010D1002101700948038809480288084607
:1011700002F038FC02F096F906480078BDE810400D
:1011800004F03AB810BD000008000020D407002089
:10119000D2070020D00700202DE9F84304464FF085
:1011A0000108207B4FF478464FF6FF7500283FD0AA
:1011B0002946284603F0A4FCCDF80080E088618829
:1011C000A288401A83B22088121A92B202F054FF09
:1011D0002946304603F094FC2D4803F097FCE08844
:1011E00061882CA2401A203800EBD07001EB60001F
:1011F00083B2A0882188401A403800EBD07001EB00
:10120000600080B2194602F0E9FC29464FF40470F0
:1012100003F076FC00200090E0886188A288401AE4
:1012200083B22088121A92B202F026FFBDE8F8833A
:101230004DF6FB672946384603F062FCCDF8008086
:10124000E0886188A288401A83B22088121A92B27C
:1012500002F012FF3946304603F052FC0C4803F00E
:1012600055FCE08861880BA2401A203800EBD07052
:1012700001EB600083B2A0882188401A403800EB5F
:10128000D07001EB600080B2194602F0A7FCBCE709
:10129000E4070020C7E5C6C100000000F8B5044619
:1012A0000126207B4FF6FF75002820D028460146F6
:1012B00003F026FC0096E0886188A288401A83B279
:1012C0002088121A92B202F0D7FE29464FF4047019
:1012D00003F016FC00200090E0886188A288401A84
:1012E00083B22088121A92B202F0C6FEF8BD20899D
:1012F000294680B203F004FC0096E0886188A28849
:10130000401A83B22088121A92B202F0B5FEDCE7CE
:101310002DE9F84304460125207B4FF000084FF4E7
:1013200004794DF6FB674FF6FF7600282ED0314644
:10133000304603F0E5FB0095E0886188A288401AFA
:1013400083B22088121A92B202F096FE31464846C5
:1013500003F0D6FBCDF80080E0886188A288401AAF
:1013600083B22088121A92B202F086FEB04641463D
:10137000002003F0C5FBA1680A26092950D2DFE846
:1013800001F0253D5165798DA1B4E900314638461B
:1013900003F0B6FB0095E0886188A288401A83B20A
:1013A0002088121A92B202F067FE3946484603F0CE
:1013B000A7FBCDF80080E0886188A288401A83B23C
:1013C0002088121A92B202F057FECFE74146002061
:1013D00003F096FBE0886188401A00EBD07001EBC7
:1013E000600083B281B2A088143882B2208801B034
:1013F0001430BDE8F04380B202F076BD0095E1887C
:101400006088091A01EBD17100EB610083B281B2EF
:10141000A088143882B22088143080B202F0B2FD65
:10142000BDE8F88302200090E0886188401A00EB54
:10143000D07001EB600083B281B2A088143882B210
:101440002088143080B202F09DFDE9E7032000906F
:10145000E0886188401A00EBD07001EB600083B235
:1014600081B2A088143882B22088143080B202F091
:1014700089FDD5E704200090E1886088091A01EB16
:10148000D17100EB610083B281B2A088143882B2BE
:101490002088143080B202F075FDC1E7082000906A
:1014A000E1886088091A01EBD17100EB610083B219
:1014B00081B2A088143882B22088143080B202F041
:1014C00061FDADE70096E1886088091A01EBD171F2
:1014D00000EB610083B281B2A088143882B2208808
:1014E000143080B202F04EFD9AE74146002003F02E
:1014F00007FBE1886088091A01EBD17100EB6100FC
:1015000083B281B2A088401F82B22088401D80B281
:1015100002F0EAFC002514E0E18860880523091A3E
:1015200001EBD17100EB610081B205EB850003EBAB
:101530004000104480B20123032202F02DFC6D1CF8
:10154000ADB2A0882288801A0A3890FBF6F0A84233
:10155000E2DC65E70021404603F0D2FA0095E0881E
:1015600061882823401A463800EBD07001EB6000F8
:1015700085B2A08821881A46401A283800EBD0701E
:1015800001EB600080B2294602F076FD39464FF447
:10159000784003F0B5FA0D4803F0B8FAE0886188A6
:1015A0002288401A303800EBD070401020300844B8
:1015B00081B2A088BDE8F843801A403800EBD070B3
:1015C00002EB600080B202A202F008BBE407002038
:1015D000CFF0C6A400000000F8B51446069A1D46D8
:1015E000B52C26DDB52824DD17790126E21EC31EA1
:1015F000092F1ED2DFE807F005101E2D3A495A6B5D
:101600008000002915DB01B0ABB2A2B2BDE8F0400A
:1016100089B280B202F068BC621EB52A09DB421EA4
:10162000B52A06DBABB2A2B289B280B2009602F054
:10163000A9FCF8BDA21EB52AFBDB821EB52AF8DB89
:1016400002220092ABB2A2B289B280B202F09AFC3E
:10165000F8BDB52AFCDBB52BFADB03220092ABB256
:10166000A2B289B280B202F08DFCF8BD221FB52A69
:10167000FBDB021FB52AF8DB04220092ABB2A2B258
:1016800089B280B202F07EFCF8BDA4F10802B52A4E
:10169000FADBA0F10802B52AF6DB08220092ABB211
:1016A000A2B289B280B202F06DFCF8BDA4F10A02C8
:1016B000B52AFADBA0F10A02B52AF6DB0A2200926B
:1016C000ABB2A2B289B280B202F05CFCF8BDB52A1E
:1016D000FCDBB52BFADB0029F8DBABB2A2B289B296
:1016E00080B202F001FC01B0A9B2A0B2BDE8F040A6
:1016F0000123032202F050BBA4F114000746B528D1
:10170000E4DB0D48143400888442DFDC0B4905F12A
:10171000140009888842D9DC142DD7D44FF6FF7005
:10172000014603F0EDF9143D2823A9B2B8B21A46D8
:10173000009602F0A1FCF8BDD2070020D4070020DB
:101740002DE9F04707460E46DFF8C08001214046EC
:1017500001F0DEFE2E4C40F2FF752560DFF8B490FC
:1017600006E02168491E216011B9012000F0D4FB78
:101770004946404601F002FE0128F2D1C14600224E
:10178000A121484601F09EFF2560DFF88C8006E02D
:101790002168491E216011B9022000F0BDFB4146BD
:1017A000484601F0EBFD0128F2D13946484601F0E8
:1017B00092FF2560184FBF1C06E02168491E21607A
:1017C00011B9032000F0A8FB3946484601F0D6FDC8
:1017D0000128F2D13146484601F07DFF256006E040
:1017E0002268521E226012B9042000F095FB39468F
:1017F000484601F0C3FD0128F2D10121484601F01D
:1018000093FEBDE8F04706F085BA000000540040A2
:10181000AC07002001000300820007002DE9FC4115
:101820000121022003F01EFD0121022003F01AFD18
:10183000154F04220721384601F0F7F8042206214B
:10184000384601F0F2F801268DF8066000258DF883
:10185000075002248DF805408DF804408020009048
:101860006946384601F0A3F88DF806608DF80750F8
:101870008DF805408DF804404020009069463846B8
:1018800001F095F8BDE8FC810004024010B5FFF7B7
:10189000C5FFBDE8104000F001B800001FB50121F0
:1018A000480503F0FBFC4FF48060ADF80A0000012E
:1018B000ADF80C000C4800904BF6FF70ADF8060038
:1018C0000020ADF804007720ADF80800074C694609
:1018D000204601F035FE0121204601F05BFD01218B
:1018E000204601F03FFD1FBD801A06000054004055
:1018F0002DE9F04707460D461446DFF8D8A0012130
:10190000504601F005FE344E40F2FF79C6F80090D3
:10191000DFF8C88006E03168491E316011B90C203B
:1019200000F0FAFA4146504601F028FD0128F2D1B4
:101930000022A121504601F0C5FEC6F80090DFF854
:10194000A08006E03168491E316011B90D2000F019
:10195000E3FA4146504601F011FD0128F2D1394623
:101960005746384601F0B7FEC6F80090DFF87080A1
:1019700008F1020806E03068401E306010B90E2001
:1019800000F0CAFA4146384601F0F8FC0128F2D1CD
:1019900014E02978384601F09EFEC6F8009006E073
:1019A0003068401E306010B90F2000F0B5FA414693
:1019B000384601F0E3FC0128F2D16D1C641EE4B24C
:1019C000E7D20121384601F0AFFDBDE8F04706F04F
:1019D000A1B9000000540040AC0700200100030042
:1019E000820007002DE9F04781460D46DFF81C8193
:1019F0000121404601F08CFD454C40F2FF76266007
:101A0000444F06E02068401E206010B9052000F019
:101A100083FA3946404601F0B1FC0128F2D1002298
:101A2000A121404601F04EFE2660DFF8ECA006E062
:101A30002068401E206010B9062000F06DFA514663
:101A4000404601F09BFC0128F2D14946C146484678
:101A500001F041FE2660DFF8C08008F1020806E0D0
:101A60002168491E216011B9072000F055FA41464E
:101A7000484601F083FC0128F2D10121484601F0DB
:101A800047FD266006E02168491E216011B9082043
:101A900000F042FA3946484601F070FC0128F2D1C4
:101AA0000122A121484601F00DFE2660194F7F1C3E
:101AB00006E02168491E216011B9092000F02CFAC6
:101AC0003946484601F05AFC0128F2D10021484627
:101AD00001F048FC26600F4E3F3606E02168491EA3
:101AE000216011B90A2000F017FA3146484601F08A
:101AF00045FC0128F2D1484601F0A5FD28700121DE
:101B0000484601F011FD0020BDE8F0870054004078
:101B1000AC07002001000300820007002DE9F05F00
:101B200083460D461446DFF840910121484601F0F6
:101B3000EFFC4E4E40F2FF773760DFF8348106E06D
:101B40003068401E306010B9102000F0E5F94146C1
:101B5000484601F013FC0128F2D10022A121484699
:101B600001F0B0FD3760DFF80CA106E03068401EE0
:101B7000306010B9112000F0CFF95146484601F00D
:101B8000FDFB0128F2D15946484601F0A4FD37601B
:101B9000DFF8E0A00AF1020A06E03168491E316070
:101BA00011B9122000F0B8F95146484601F0E6FBA1
:101BB0000128F2D10121484601F0AAFC376006E075
:101BC0003168491E316011B9132000F0A5F9414672
:101BD000484601F0D3FB0128F2D1C8460122A121D9
:101BE000404601F06FFD3760DFF8849009F101098C
:101BF00006E03168491E316011B9142000F08CF9FB
:101C00004946404601F0BAFB0128F2D121E04CB12F
:101C10000121404601F0A6FB3760DFF8549009F13E
:101C20003F090BE00021404601F09CFBF4E73068DF
:101C3000401E306010B9152000F06EF9494640464C
:101C400001F09CFB0128F2D1404601F0FCFC05F8B4
:101C5000010B641EA4B2DAD20121404601F064FCFB
:101C60000020BDE8F09F000000540040AC070020B9
:101C700001000300820007002DE9F04105460E46F1
:101C8000C2F3071402F00F0709E01022314628467C
:101C9000FFF72EFE06F03EF81035EDB21036641E4A
:101CA000E4B2F2D23A4631462846FFF721FE06F06A
:101CB00031F80020BDE8F0812DE9F04105460E46DF
:101CC00005F00F00002812D0C0F11000C7B2D01BE1
:101CD000C0B2040900F00F083A4631462846FFF723
:101CE00007FE06F017F8E819C5B23E4423E0C2F338
:101CF000071402F00F0709E0102231462846FFF7CB
:101D0000F7FD06F007F81035EDB21036641EE4B2A8
:101D1000F2D23A4631462846FFF7EAFD05F0FAFFCF
:101D200013E0102231462846FFF7E2FD05F0F2FFEE
:101D30001035EDB21036641EE4B2F2D2424631469E
:101D40002846FFF7D5FD05F0E5FF0020BDE8F0814E
:101D500070B586B00121084603F084FA0121C80459
:101D600003F09CFA214E08220121304600F05DFE6E
:101D700008220021304600F058FE00248DF816405D
:101D800001218DF8171002258DF815508DF814508B
:101D9000049104A9304600F00AFE8DF81450049511
:101DA00004A9304600F003FE4FF4E1300090ADF896
:101DB0000440ADF80640ADF80840ADF80C400C20EA
:101DC000ADF80A000A4C6946204605F0C9FE03F04A
:101DD000BBF9012240F22551204605F0A6FE012163
:101DE000204605F065FE06B070BD00000000024010
:101DF000004C004010B54FF48054204600F01EF80F
:101E0000002806D001F018F92046BDE8104000F087
:101E10000FB810BD10B54FF40074204600F00EF856
:101E2000002804D02046BDE8104000F001B810BDE5
:101E30000149086070470000143C01400146002041
:101E4000024A12680A4200D001207047143C014047
:101E500030B51B4A83790168002B2AD013688B4365
:101E60001360111D0B680468A3430B6001791144D2
:101E70000B68046823430B60114C08342168036825
:101E800099432160231D19680568A94319604179A8
:101E9000102905D011440A68006802430A6030BD69
:101EA00021680268114321601968006801431960C4
:101EB00030BD0079104402688A43026030BD0000E2
:101EC000003C01407FB50121022003F0CBF9012144
:101ED000880303F0FFF94FF40075029500248DF894
:101EE0000C408DF80F4002A90A4800F060FD09215E
:101EF000012004F0D5FE00958DF8044008208DF8EF
:101F0000050001208DF806006846FFF7A1FF03F0E9
:101F1000F5F87FBD0004024010B50446214602A03A
:101F200006F086FB204610BD0D0A4932433120657C
:101F300072726F72206F63637572726564202C20F9
:101F4000636F6465203D2025640000007047000039
:101F50002DE9F041C4B2C0F30725C0F3074600F0F5
:101F6000CBFB00F0A1FBDFF838804FF40067394667
:101F7000404600F071FD202000F048F9304600F0A6
:101F800045F9284600F042F9204600F03FF939466D
:101F9000404600F063FDBDE8F04100F085BB000065
:101FA0000014024010B50446214602A006F040FB92
:101FB000204610BD0D0A535049206572726F722081
:101FC0006F63637572726564202C20636F64652093
:101FD0003D202564000000002DE9F0470446154629
:101FE00001F0FF08C1F30729C1F3074A104F4FF46E
:101FF00000663146384600F02FFD032000F006F958
:10200000504600F003F9484600F000F9404600F061
:10201000FDF803E000F054F804F8010B6D1EADB2BA
:10202000F8D231463846BDE8F04700F017BD000051
:102030000014024070B50E4D4FF40064214628464E
:1020400000F00AFDAB2000F0E1F8FF2000F0DEF820
:10205000FF2000F0DBF8FF2000F0D8F800F030F8A7
:1020600006462146284600F0F9FC304670BD0000C7
:10207000001402402DE9F041DFF840804FF4006782
:102080003946404600F0E8FC9F2000F0BFF8FF20F2
:1020900000F0BCF80446FF2000F0B8F80546FF2029
:1020A00000F0B4F806463946404600F0D7FC20045C
:1020B00040EA05203043BDE8F081000000140240F2
:1020C000FF2000F0A3B800007CB50121084603F012
:1020D000C9F80121084603F0C5F80121084603F0BC
:1020E000C1F80121202003F0BDF80121042003F0F4
:1020F000B9F8264E05220621304600F096FC05224E
:102100000721304600F091FC05221146304600F0D0
:102110008CFC00248DF806408DF8074002258DF8D0
:1021200005508DF80450202000906946304600F09C
:102130003EFC8DF806408DF807408DF805508DF86F
:102140000450802000906946304600F030FC8DF845
:1021500006408DF807408DF805508DF8045040205A
:1021600000906946304600F022FC8DF806408DF85C
:1021700007408DF8055001208DF80400C002009042
:102180006946034800F013FC7CBD000000000240DB
:102190000014024010B5FFF797FF4FF400610348A9
:1021A00000F05CFCBDE8104000F002B800140240F2
:1021B00010B586B00121080303F08CF80020ADF8BB
:1021C00010000121ADF80C100221ADF80A10072112
:1021D000ADF81410ADF80800ADF80400ADF8120029
:1021E0004FF48270ADF806004FF40070ADF80E00A9
:1021F000054C01A9204604F088FA0121204604F08C
:102200006DFA06B010BD0000003001402DE9F0412C
:102210000746194C40F2FF752560184E04E020680F
:10222000401E2060206858B10221304604F062FA56
:102230000028F4D03946304604F065FA256009E0FC
:10224000BDE8F0410120FFF7ADBE2068401E2060D0
:10225000206858B10121304604F04CFA0028F4D02F
:10226000304604F04EFAC0B2BDE8F081BDE8F0415E
:102270000220FFF797BE00009407002000300140C5
:102280002DE9F04706460D46E8B24142CFB2140BA5
:1022900002F0FF094FF48058002812D0E8B2404203
:1022A000C0B205EB000A34B3D01B80B2040B00F0BF
:1022B000FF093A462946304600F04CF855463E4460
:1022C00039E074B929463046BDE8F04700F042B81D
:1022D00042462946304600F03DF805F5805506F5A2
:1022E0008056641EE4B2F3D24A4629463046BDE821
:1022F000F04700F02FB8B9450ED9A9EB0700C4B2DA
:102300003A462946304600F025F85146F019224653
:10231000BDE8F04700F01EB829463046BDE8F0475A
:1023200000F018B842462946304600F013F805F58B
:10233000805506F58056641EE4B2F3D2B9F1000F61
:1023400006D04A4629463046BDE8F04700F002B8BC
:10235000BDE8F0872DE9F84F07460C4615460026E4
:1023600000F0CAF94FF40068DFF8809033E004F021
:10237000FF0AC4F3072BC4F307400090761C4FF408
:102380008050854203D9054619A006F051F9012E67
:1023900004D0F0B2012801D0200517D141464846AB
:1023A00000F05CFB00F080F900F0A6F941464846D9
:1023B00000F052FB0220FFF729FF0098FFF726FFED
:1023C0005846FFF723FF5046FFF720FF3878FFF706
:1023D0001DFF7F1C641C6D1EADB2C8D2414648462D
:1023E00000F03CFBBDE8F84F00F05EB9001402407D
:1023F0003C3C2D464C4153482D4552524F522D3EA8
:102400003E205350495F464C4153485F50616765D9
:10241000577269746520746F6F206C6172676521F3
:102420000A0000008000A0F1C040002904D001682B
:1024300041F00101016070470168024A11400160EA
:1024400070470000FEFF0F0070B501688900A1F120
:10245000C0410B68344A1340D0E901242243D0E93B
:1024600003452C4322434469224384692243C469BF
:102470002243046A2243446A2243846A2243C46A90
:102480002243046B22431A430A608168082907D15A
:1024900001688900A1F1C0410A6842F040020A6067
:1024A0000168491C8A00A2F1C042116801F0404451
:1024B000416BD1E9003543EA05138D688E892D0201
:1024C00045EA06452B430D8A43EA05530D7D89698C
:1024D00043EA05630B4323431360C16AB1F5804FA0
:1024E00008D000686FF070418000A0F1C040C0F8D3
:1024F000041170BD01688900A1F1C041D1F8042127
:102500000A4B1A40806BD0E9003443EA0413846814
:102510008589240244EA0544806923430343134325
:10252000C1F8043170BD00008000F7FF0000F0CF5B
:102530002DE9FC470E460024002700970197574DD0
:102540004FF0080AC5F800A0102068604FF040095D
:10255000C5F80890EF604FF48068C5F810802846F1
:1025600003F06CFA1020FEF7B7FA002832D14C487D
:1025700000890004286037206860C5F80890EF6083
:10258000C5F81080284603F059FA3720FEF7A4FA60
:1025900000281FD1411E05F114000160C0F804A0FD
:1025A000302181600221C16007610121416103F096
:1025B000C9F92F6033206860C5F80890EF60C5F84E
:1025C0001080284603F03AFA3320FEF785FA0546D4
:1025D000280001D0BDE8FC874FF4001A6F46DFF8F1
:1025E000C48040F22A6908E0504603F0D5F920B1D2
:1025F00003F01EFA47F82400641CD8F8000010EA23
:10260000090FF1D0082003F0C7F920B1082003F02A
:1026100081F90420DEE7022003F0BEF920B1022098
:1026200003F078F90220D5E7202003F0B5F920B1B6
:10263000202003F06FF90620CCE74FF40074204609
:1026400003F0AAF920B1204603F064F90720C1E79E
:1026500040F2FF5003F05EF900980099000601F483
:102660007F4140EA0120009901F47F0140EA1120F6
:10267000009940EA1160706001980199000601F428
:102680007F4140EA0120019901F47F0140EA1120D5
:10269000019940EA1160306028469BE7B0FC0020B9
:1026A000B8070020342C014070B5114E4FF400657E
:1026B0002946304600F0D0F90520FFF7A7FDFFF7C7
:1026C000FFFC0C4C681E2060FFF7FAFCC00708D026
:1026D0002068401E206020680028F5D10320FFF705
:1026E00061FC29463046BDE8704000F0B7B90000F3
:1026F000001402409407002070B5084D4FF40064A8
:102700002146284600F0A8F90620FFF77FFD214664
:102710002846BDE8704000F0A1B900000014024056
:1027200010B500F004F8BDE8104000F023B83EB545
:1027300004460D460121084602F0B0FD0194ADF8B3
:1027400000500020ADF80800ADF802004FF08044C2
:102750006946204604F06EFE0121204604F0F0FC9C
:1027600001221146204604F031FE0121204604F0EA
:10277000EDFC3EBD08B54FF4E06002F02DFD1C20DD
:102780008DF8000000208DF8010003208DF8020074
:1027900001208DF80300684602F0EAFC08BD10B580
:1027A00000F004F8BDE8104000F024B83EB504463F
:1027B0000D460121022002F071FD0194ADF8005098
:1027C0000020ADF80800ADF80200094C694620462B
:1027D00004F030FE0121204604F0B2FC0122114633
:1027E000204604F0F3FD0121204604F0AFFC3EBD7D
:1027F0000004004008B54FF4E06002F0EDFC1D203D
:102800008DF8000000208DF8010003208DF80200F3
:1028100001208DF80300684602F0AAFC08BD70B5DF
:1028200004460D4600F046F829462046BDE87040B3
:10283000AFF3008070B586B004460D460121042038
:1028400002F02CFD1A4E304604F08CFC03A804F074
:102850002FFE0494ADF80C500024ADF81440ADF8F0
:102860000E4003A9304604F0E5FD0A231A46032171
:10287000304604F04DFD684604F0A0FDADF8084078
:102880006946304604F069FD01221146304604F0E5
:102890009DFD0121304604F053FC47F6FF713046A0
:1028A00004F09EFD0121304604F050FC06B070BDDE
:1028B0000008004008B51E208DF8000000208DF8AB
:1028C000010003208DF8020001208DF80300684606
:1028D00002F04EFC08BD00007FB504460D46012104
:1028E000082002F0DBFC0294ADF804500024ADF89F
:1028F0000C40ADF806400E4D01A9284604F09AFDA3
:1029000001221146284604F061FD32218DF80010A5
:102910008DF8014003218DF8021001218DF803107C
:10292000684602F025FC0121284604F00FFC7FBD1B
:10293000000C004010B500F005F8BDE8104000F0B4
:1029400021B800003EB504460D460121202002F0CA
:10295000A5FC0194ADF80050094C6946204604F0EE
:1029600069FD0121204604F0EBFB012211462046BF
:1029700004F02CFD0121204604F0E8FB3EBD0000E0
:102980000014004008B54FF4E06002F025FC372049
:102990008DF8000000208DF8010002208DF8020063
:1029A00001208DF80300684602F0E2FB08BD2DE926
:1029B000F041002201274FF0030C07FA02F50B68E3
:1029C0002B40AB422CD1066853000CFA03F4A6430B
:1029D00006600E79D0F800809E4046EA0806066040
:1029E0000E79012E01D0022E12D18668A643866090
:1029F0004E79D0F808809E4046EA08068660466810
:102A0000AE43466045688E799640B6B23543456020
:102A1000C568A543C560CC799C40C3681C43C460AD
:102A2000521C102AC9D3BDE8F08110B54B07DB0E4C
:102A30009A40C90800EB8100016A0F249C40A14321
:102A40000162016A1143016210BD02460020126951
:102A50000A4200D0012070474183704701837047CC
:102A600010B590B00121880502F0FCFB1F4C2046F8
:102A7000FEF7EAF92046FEF789FA0028FAD14FF06E
:102A8000206001901A4802901A4803900020049098
:102A90004FF4007105910690490007910890099044
:102AA00089100A9109020B910C9003210D910E904F
:102AB0000F9001A92046FEF7B5FA00F01DF801229B
:102AC00018212046FEF794FA01212046FEF7B0F9BE
:102AD0002046FEF75BFA0128FAD105480122402181
:102AE000001F04F0F1FF10B010BD00002864024088
:102AF00004140140FCF9002008B54FF4C06002F056
:102B00006BFB39208DF8000001208DF801000021B9
:102B10008DF802108DF80300684602F029FB08BD0D
:102B200070B586B00121202002F0D4FB01210420E1
:102B300002F098FB1E4E082207213046FFF775FF72
:102B4000082206213046FFF770FF00248DF816405A
:102B500001208DF8170002258DF8145040210491B2
:102B60008DF8155004A93046FFF721FF8DF8145059
:102B70008020049004A93046FFF719FF4FF4165047
:102B80000090ADF80440ADF80640ADF80840ADF84F
:102B90000C400C20ADF80A00064C6946204604F0B3
:102BA000DFFF0121204604F083FF06B070BD000066
:102BB0000008024000140140FEB500200090019082
:102BC0000290224C224F207800EB400007EB40009F
:102BD0008088401C010A8DF800108DF801000A223F
:102BE0006946BA2000F054F8002801DA0020FEBD42
:102BF0009DF802009DF8031000EB012085B29DF8BE
:102C000004009DF8051000EB012086B2207800EB4F
:102C1000400007EB40008088801D010A8DF80010FD
:102C20008DF8010003226946BA2000F031F800282F
:102C300001DA0020FEBD9DF8020000F003033246D9
:102C4000294604A005F0F4FC0120FEBDF807002091
:102C5000142504083C3C2D4754502D494E464F2D19
:102C60003E3E20585F4D4158203D2025642C205980
:102C70005F4D4158203D2025642C20545249474740
:102C80004552203D203078253032780A000000007F
:102C9000F0B587B00E4617464FF0FF3500240021EF
:102CA000ADF806108DF804000221ADF80810039667
:102CB0000121ADF812108DF81000B81EADF8140007
:102CC000B01C069007E0022101A800F00FFD0546A8
:102CD000022D02D0641C052CF5DB052C08DB707876
:102CE00031782B4640EA0121BA1E034805F0A0FCCA
:102CF00007B02846F0BD00000429040838B50020BC
:102D000000901248007800EB4001114800EB4100B0
:102D10008088010A8DF800108DF801000024651EDE
:102D20000DE003226946BA20FFF7B2FF45B2002D3D
:102D300001DD284638BD214606A005F079FC204675
:102D4000641CE4B20528ECD3284638BDF8070020FF
:102D5000142504083C3C2D4754502D4552524F52E7
:102D60002D3E3E20475450206932632074657374B1
:102D7000206661696C65642074696D652025642E28
:102D80000A000000FEB50E4617464FF0FF3500243E
:102D90000021ADF802108DF80000ADF80470029625
:102DA00007E00121684600F0A1FC0546012D02D094
:102DB000641C052CF5DB052C08DB707831782B467C
:102DC00040EA0121BA1E024805F032FC2846FEBD49
:102DD0005429040810B500F080FCFFF78FFF04466B
:102DE000002C04DA06A005F023FC204610BD00F0FC
:102DF0001DF800F057FBFFF7DFFE002010BD0000BC
:102E00003C3C2D4754502D4552524F522D3E3E20B2
:102E100049324320636F6D6D756E69636174696FCC
:102E20006E204552524F52210A00000030B585B045
:102E30005048C1688068CDE90301082203A9BA207F
:102E4000FFF726FF0446200005D54BA005F0F0FB58
:102E5000204605B030BD9DF80E10524D352918D0D2
:102E60009DF81120002A37D0372A51D09DF8133011
:102E70009DF81200CDE9002302909DF810309DF8D6
:102E80000F2049A005F0D4FB9DF80E00392860D032
:102E90006DE09DF813209DF81130CDE900329DF8CA
:102EA000120002909DF810309DF80F204AA005F006
:102EB000BFFB9DF80E00352859D19DF80F0036282C
:102EC00055D19DF81000382851D19DF811003828AF
:102ED0004DD1022028704AE09DF812009DF8132081
:102EE000CDE900209DF810309DF80F2046A005F098
:102EF0009FFB9DF80E00392839D19DF80F0031282D
:102F000035D19DF81000312831D1012028702EE0F4
:102F10009DF813309DF81200CDE9002302909DF832
:102F200010309DF80F2020A005F082FB9DF80E00C8
:102F300039281CD19DF80F00312818D19DF81000B8
:102F4000342814D19DF81100372810D1032028709F
:102F50000DE09DF80F00312809D19DF810003528AB
:102F600005D19DF81100372801D104202870204692
:102F70006FE70000042504083C3C2D4754502D45C4
:102F800052524F522D3E3E2047545020726561648C
:102F90002076657273696F6E206661696C65640A7C
:102FA00000000000F80700203C3C2D4754502D49FC
:102FB0004E464F2D3E3E204943332056657273697D
:102FC0006F6E3A2025632563256325635F253032C4
:102FD00078253032780A00003C3C2D4754502D496A
:102FE0004E464F2D3E3E204943312056657273694F
:102FF0006F6E3A2025632563256325635F25303294
:1030000078253032780A00003C3C2D4754502D4939
:103010004E464F2D3E3E204943322056657273691D
:103020006F6E3A202563256325635F25303278254E
:103030003032780A0000000000F070B82DE9F84343
:1030400004460D461646B1B2A8B204F045FA0B4F3D
:1030500009480090A7F10A0833B22AB237F91410D0
:1030600038F914001E461546FEF7B6FA28F8145033
:1030700027F81460BDE8F883240800201408002015
:1030800070B50446074EA6F10A0536F8141035F857
:10309000140004F0ABFB4FF0FF3025F8140026F8C5
:1030A000140070BD14080020F8B504460D46134EF8
:1030B0003078002803D1FFF76DF801203070280A1E
:1030C000E9B2A138C0EB001202EB401001EB400066
:1030D000A1388002C11700EB5170C010084980224E
:1030E00001442046FEF778FFE0780090A3786278EC
:1030F000217804A005F09CFA0020F8BDF407002018
:1031000000604E002530327820253032782025307E
:10311000327820253032780A000000002DE9F04F87
:1031200097B06FA00068169028210DF12C090CA80B
:10313000FDF7C3F86B4C20680B904FF0BA0B0026DC
:103140000C220BA95846FFF7A3FD0146002905DA1A
:1031500065A005F06DFA17B0BDE8F08F9DF82E0060
:103160000028F8D001066ED500F00F05052D6AD8AD
:10317000012D14D9242101AF381DFDF79EF8606898
:103180000190681E022101EBC002044601A95846C5
:10319000FFF77EFDE200B91C0EA8FDF775F8DFF819
:1031A00078A10AF10C08BAF80200A84215D818E074
:1031B00000246F1E0EE009EBC400C07800F00F0180
:1031C00018F80600884207D0BC4201DBFFF758FF21
:1031D000641CE4B2AC42EED3761CBAF8020086421C
:1031E000E6DB7DB300245BE009EBC402D07800F09D
:1031F0000F0608F804601079517940EA01209179AE
:10320000D37941EA0321137A527A43EA0223434AEB
:103210001278082A3ED2DFE802F004090E171E25B4
:103220002C35CAF80400CAF8081033E0CAF80410B4
:10323000CAF808002EE0C0F5F070CAF80400CAF819
:10324000081027E02FE03EE0CAF80410C0F5F07047
:10325000CAF808001EE0CAF80400C1F54870CAF8B0
:10326000080017E0C1F54871CAF80410CAF8080050
:1032700010E0C0F5F070CAF80400C1F54870CAF853
:10328000080007E0C1F54871CAF80410C0F5F070F5
:10329000CAF80800DAE901123046FFF7CFFE641CD5
:1032A000AC42A1DB0DE0BAF8020050B1002404E00A
:1032B00018F80400FFF7E4FE641CBAF80200844228
:1032C000F6DBAAF80250032216A95846FFF75AFD6A
:1032D0000028BFF640AF12A005F0AAF93BE70000B6
:1032E000814E0000042504083C3C2D4754502D45D8
:1032F00052524F522D3E3E20493243207472616E2D
:1033000073666572206572726F722E206572726EBE
:103310006F3A25640A200A00F8070020D007002031
:103320003C3C2D4754502D494E464F2D3E3E2049A2
:10333000324320777269746520656E645F636D64E3
:10334000206572726F72210A0000000001A005F072
:103350006FF9FEE748617264204661756C740D0A6E
:1033600000000000002904D0018841F48061018040
:103370007047018821F48061018070470346002076
:103380009A8A1B8B1B041A4322F07F42914300D17F
:1033900001207047002904D0018841F0010101801B
:1033A0007047018821F00101018070472DE9FC413F
:1033B0000121462001F056FF0121880301F08AFF18
:1033C0001020009001258DF8045002248DF805404E
:1033D0008DF8065000268DF80760144F6946384670
:1033E000FFF7E5FA2021009169463846FFF7DFFA3A
:1033F000E00100908DF804508DF805408DF80660CE
:103400008DF8074069460A48FFF7D1FAE0020090BC
:103410008DF804508DF805408DF806608DF8074052
:1034200069460448FFF7C3FABDE8FC810008024082
:10343000001802400004024030B585B04FF48055BA
:10344000009500248DF8044002208DF805008DF8C9
:10345000074069461248FFF7AAFA0C21012003F041
:103460001FFC03958DF8104008208DF811008DF891
:10347000124003A8FEF7ECFC4FF4C06001F0ACFE74
:1034800028208DF8080001208DF809008DF80A0029
:103490008DF80B4002A801F06BFE05B030BD0000B6
:1034A0000004024030B585B04FF4805500950024EB
:1034B0008DF8044002208DF805008DF8074069461C
:1034C0001248FFF774FA0C21012003F0E9FB039581
:1034D0008DF8104008208DF8110001248DF812405D
:1034E00003A8FEF7B5FC4FF4C06001F075FE28207C
:1034F0008DF808008DF809408DF80A408DF80B40D2
:1035000002A801F035FE05B030BD00000004024005
:10351000002904D0018841F480710180704701883E
:1035200021F4807101807047002904D0018841F4A2
:10353000007101807047018821F40071018070479B
:103540007FB504460D46A08820F03F06684601F08E
:10355000DDFE02982749B0FBF1F189B20E43A68047
:10356000228822F001022280234B2A689A4209D83D
:103570005200B0FBF2F080B2042800D20420491CB3
:10358000218423E0EB88A3F53F46FF3E0BD002EBFE
:10359000C20303EB0212B0FBF2F080B240F48040B1
:1035A000020506D007E002EB4202B0FBF2F080B267
:1035B000F6E740F0010040F400404FF496725143AA
:1035C0004FF47A72B1FBF2F1491C2184A083208868
:1035D00040F00100208020884FF6F5310840A9888E
:1035E0006A89114301432180A889298908432081E0
:1035F0007FBD000040420F00A086010070B5064666
:103600000D4614460AF0BEFB46F001000AF08EFBA0
:103610000AF0E8FB88B10AF0D1FB012070BD012C53
:1036200003D10AF049FB0AF0C9FB0AF05DFB05F87B
:10363000010B641EA4B20AF01DFB002CEFD10AF0AE
:10364000BDFB002070BD008AC0B270472DE9FC4769
:103650004FF48056009601208DF8040002248DF866
:10366000054000258DF806508DF80740124F694639
:103670003846FFF79CF9DFF844904FF480784146D4
:103680004846FFF7E9F9DFF838A05046FDF750FD4E
:1036900041464846FFF7E2F95046FDF749FD0096DE
:1036A0008DF804508DF805408DF80750694638466E
:1036B000FFF77DF9BDE8FC870004024000180240D6
:1036C000FFFF0F00002A02D041F0010101E001F0EC
:1036D000FE01018270470182704710B5FFF766FE58
:1036E000FFF7B4FFBDE81040FFF7DCBE70B505463C
:1036F0000E460024002014E004EB440005EB800398
:103700009978C90706D09A8815F820009968FFF7BC
:1037100075FF05E01A7915F82000996800F008F89F
:10372000641C08B9B442E7D1002800D1204670BD1E
:103730002DE9F04180460E4615460AF03FFB002475
:103740004FF47A770AF01EFB40460AF0EFFA0AF0CF
:1037500049FB18B1641CA4B2BC42F3D3BC4206D0EE
:103760000BE030780AF0E2FA0AF03CFB20B10AF0F4
:1037700025FB0120BDE8F081761C6D1EEDB2F0D274
:103780000AF01CFB0020F5E770B50B4C0025256006
:103790000A48016821F440010160016841F4800198
:1037A000016065600220FDF7CDFC01202060022051
:1037B000FDF7C8FC256070BDA882404200040240AD
:1037C0001CB50121022001F04DFD4FF44060009036
:1037D00001248DF8044000208DF8060003208DF8A8
:1037E00005008DF8074069460348FFF7E0F80348F5
:1037F000046044601CBD000000040240A8824042F6
:1038000070B50B4C002525600A48016821F4400181
:103810000160016841F480010160012666600220B8
:10382000FDF790FC26600220FDF78CFC256070BD42
:10383000A8824042000402402DE9F047814600245E
:103840001548016821F4400101600168016000250C
:10385000124E00274FF00108C6F8A8720220FDF7AB
:1038600071FCC6F8A8826006040ED6F82C0208B1D6
:10387000641CE4B20120FDF765FC6D1CEDB2082D5F
:10388000EAD3B9F1000F04D0FFF77EFF2046BDE870
:10389000F087FFF7B5FFF9E70004024000804042DF
:1038A0002DE9F04105461448016821F4400101600A
:1038B000016841F480010160104E4FF00008C6F825
:1038C000A88200240127E809C6F8AC026806050EA4
:1038D0000220FDF737FCC6F8A8720220FDF732FC83
:1038E000C6F8A8820220FDF72DFC641CE4B2082C67
:1038F000E9D3BDE8F08100000004024000804042AE
:1039000070B50B48016821F440010160016841F481
:1039100080010160074C0120606020600420FDF7F9
:1039200011FC002565600420FDF70CFC256070BDCE
:1039300000040240A882404210B50C48016821F4FE
:1039400040010160016841F480010160084C0020E1
:10395000206060600420FDF7F5FB012020606060BE
:10396000BDE810400420FDF7EDBB0000000402405C
:10397000A882404270B500241148016821F440013A
:103980000160016801600F4D0126C5F8AC6201209D
:10399000FDF7D8FBC5F8A8620120FDF7D3FB07E0CF
:1039A000641CE4B2FA2C03D9FFF7C6FF012070BDF6
:1039B000D5F82C020028F3D1C5F8A80270BD00008C
:1039C0000004024000804042054A4FF40071002884
:1039D00002D01046FFF742B81046FFF73DB800008E
:1039E0000014024070B514461D462B46224600F0D6
:1039F0000FFD044904FB05F00989BDE8704000F0A3
:103A00009FBB0000D007002001B502E00098401ED7
:103A1000009000980028F9D108BD00002DE9F04180
:103A2000154620231A4600F0F3FC2C204FF0D0441A
:103A3000208029461548FFF737FB0021134E144F0D
:103A4000250116F82100030206EB810042781A4393
:103A50001202837813431A0290F803C04CEA020C56
:103A60000020FA883B8925FA00F818EA0C0F01D0EB
:103A7000628000E06380401CC0B22028F3D3491C60
:103A8000C9B22029DDD3BDE8F0810000DC4001206F
:103A9000D00700202DE9F043203A97B2184EF56880
:103AA000AA88EB8802FB03F44FEAE47C04EB5C7425
:103AB000C4F3C7042D6807FB045500F0A9FC2C20B3
:103AC0004FF0D04CACF80000002115E00020F38846
:103AD0003289802715F8018027FA00F918EA090FC2
:103AE00002D0ACF8023001E0ACF80220401CC0B2B9
:103AF0000828EFD3491CC9B2A142E7D3BDE8F0833F
:103B0000D0070020F0B505460E4600240F4F19E0FF
:103B1000F8687B8881882144994203D90024C188B0
:103B200029448DB2C088B9882844884201D900242C
:103B3000002529462046FFF7ADFF761CF8688088EF
:103B4000204484B23278002AE2D1F0BDD0070020B0
:103B50002DE9F04105460E4600241F4F37E07E2A2E
:103B60001AD8F8687B8881882144994203D90024B7
:103B7000C18829448DB2C088B9882844884201D9B7
:103B80000024002529462046FFF784FFF868808836
:103B9000204484B2761C1AE0798804F1200088421F
:103BA00002D900242035ADB2B98805F12000884241
:103BB00001D9002400253088010201EB102082B2D7
:103BC00029462046FFF72AFF2034A4B2B61C3278DB
:103BD000002AC4D1BDE8F081D00700202DE9F041D2
:103BE00004460D4616461F4F37E07E2A1AD8F8685D
:103BF0007B8881882144994203D90024C1882944C3
:103C00008DB2C088B9882844884201D90024002593
:103C100029462046FFF73EFFF8688088204484B29A
:103C2000761C1AE0798804F12000884202D9002429
:103C30002035ADB2B98805F12000884201D90024B1
:103C400000253088010201EB102082B2294620466F
:103C5000FFF7E4FE2034A4B2B61C3278002AC4D1A7
:103C6000BDE8F081D00700202DE9FE4F0446DDE9D4
:103C70000C5A0F46904699464646DFF8C0B057E0CA
:103C80002F49A2194B889A4203D9002407EB090255
:103C900097B2898807EB09028A4201D900240027DC
:103CA00080281FD946462888010201EB102081B2E6
:103CB0002448FFF7F9F9234A0121CDE900280291B0
:103CC00020214B463246084600F0E4FCCDE900BA1C
:103CD0004B4632463946204600F038F8A01984B2E7
:103CE000AD1C25E04FEA58062038C1B21648002323
:103CF000C288B0F804C0006802FB0CF24A43D11736
:103D000002EB5171CDE9018300EBE10000904B46DD
:103D100032462021102000F0BDFCCDE900BA4B4610
:103D200032463946204600F011F8A01984B26D1CC5
:103D300028780028A4D1BDE8FE8F0000DCFC00201C
:103D4000D0070020DC400120E40700202DE9F043EB
:103D50001746DDE90748994600254B463A4600F0EC
:103D600057FB2C204FF0D04210800A4B0EE0002071
:103D70001989DE8807E014F801CBC44501D15180D0
:103D800000E05680401CB842F5D36D1C4D45EED383
:103D9000BDE8F083D00700202DE9FF4F85B007462E
:103DA0008846002416B20320A0EB42000FFA80F9E7
:103DB00094E00898E8B3254642E0381908EB050A74
:103DC00004901FFA8AF180B200F050FC1FFA8AF1C9
:103DD000A7EB040A1FFA8AF000F048FC08EB040085
:103DE00081B2A7EB050B03901FFA8BF000F03EFCAD
:103DF000A8EB040081B202901FFA8BF000F036FCB1
:103E0000A8EB050B1FFA8BF11FFA8AF000F02EFCCD
:103E100004981FFA8BF180B200F028FC029807EB9F
:103E2000050A81B21FFA8AF000F020FC039881B2E3
:103E300000E008E01FFA8AF000F018FC6D1C2DB2BB
:103E4000B542BADD37E0381908EB06050190A9B292
:103E500080B200F00BFCA7EB040AA9B21FFA8AF0AB
:103E600000F004FC08EB040081B2A7EB060B009005
:103E70001FFA8BF000F0FAFBA8EB0405A9B21FFAB9
:103E80008BF000F0F3FBA8EB060B1FFA8BF11FFA87
:103E90008AF000F0EBFB01981FFA8BF180B200F082
:103EA000E5FBA9B2BD19A8B200F0E0FB009881B211
:103EB000A8B200F0DBFB641C24B2B9F1000F05DAF4
:103EC00009EB8400801D0FFA80F907E0A01B09EBC5
:103ED00080000A300FFA80F9761E36B2B4427FF7BE
:103EE00068AF09B0BDE8F08F2DE9FE4F0025002630
:103EF000171AA3EB010882468B46681E002F03DDCC
:103F00004FF00101019107E003D14FF00001019151
:103F100002E00190C7F10007B8F1000F03DD4FF098
:103F20000100009007E003D14FF00000009002E094
:103F30000090C8F10008474501DD3C4600E04446DA
:103F40004FF00009601C029017E05946504600F0FF
:103F50008DFB3D444644A54204DD2D1B0198504491
:103F60001FFA80FAA64204DD361B009858441FFA57
:103F700080FB09F101091FFA89F902988145E4DD06
:103F8000BDE8FE8F2DE9FF5F84460E9F0E464FF081
:103F90000008A2EB0C00002801DCACEB020000B230
:103FA000991B002900DCF11A09B20FFA8CF435B222
:103FB0004FF0FF39624504D34FF0010A4FF0010B77
:103FC00001E0CA46CB46B34203D3012203920292D8
:103FD00003E0CDF80C90CDF8089088420ADB4FF052
:103FE000000A0022029200EBD072521016B2019128
:103FF000814638E04FF0000B0022039201EBD172B2
:10400000521016B2019089462DE01949E01909882D
:10401000884224DCE01B22D41649E819098888422A
:104020001DDCE81B1BD401207A000090A9B2A0B2CD
:10403000134600F021F80198304406B24E4508DBE3
:10404000A6EB090006B204EB0A0004B20398284468
:1040500005B204EB0B0004B20298284405B208F143
:1040600001080FFA88F8C845CFDDBDE8FF9F0000C2
:10407000D2070020D40700202DE9F041064606981B
:104080000F4614461D4600280DD02B4622463946C1
:10409000304600F0BDF9134904FB05F0C988BDE8BE
:1040A000F04100F04DB83444641EA2B23B4639469C
:1040B0003046FFF719FF3D446D1EABB2A2B2A9B264
:1040C0003046FFF711FFABB2324639463046FFF7B4
:1040D0000BFFABB2A2B2A0B23946BDE8F041FFF788
:1040E00003BF0000D007002000B597B001210846AB
:1040F00001F0C6F8042101910B2003908806079077
:1041000000200290049005900690089109900821E3
:104110000A9110210B910C900E900F9010900902B3
:10412000119112901390149001A81590169008A860
:10413000FEF78AF901210420FEF774F917B000BDDB
:1041400010B500222C244FF0D0431C8001E0598090
:10415000521C8242FBD310BD2DE9FC5F0121782067
:1041600001F080F84FF000088DF8068001248DF8EA
:10417000074002258DF8045003208DF805004FF408
:104180008049CDF8009069467648FEF710FC0C2275
:104190000E217448FEF749FC4FF4004ACDF800A008
:1041A00069467048FEF703FC0C220F216D48FEF7AC
:1041B0003CFC009469466B48FEF7F9FB0C22002199
:1041C0006848FEF732FC009569466648FEF7EFFB4B
:1041D0000C2201216348FEF728FC802000906946EC
:1041E0006148FEF7E4FB0C2207215F48FEF71DFC47
:1041F0004FF4807BCDF800B069465B48FEF7D7FBF3
:104200000C2208215848FEF710FC66020096694609
:104210005548FEF7CCFB0C2209215348FEF705FC5C
:10422000A702009769465048FEF7C1FB0C220A21FD
:104230004D48FEF7FAFBE002009069464A48FEF757
:10424000B6FB0C220B214848FEF7EFFB2003009041
:1042500069464548FEF7ABFB0C2211464248FEF783
:10426000E4FB6003009069463F48FEF7A0FB0C2288
:104270000D213D48FEF7D9FBCDF8009069463A483C
:10428000FEF795FB0C220E213748FEF7CEFBCDF84A
:1042900000A069463448FEF78AFB0C220F21324801
:1042A000FEF7C3FBCDF800B069462E48FEF77FFB52
:1042B0000C2208212B48FEF7B8FB009669462948D6
:1042C000FEF775FB0C2209212648FEF7AEFB00978E
:1042D00069462448FEF76BFB0C220A212148FEF7B1
:1042E000A4FB1020009069461E48FEF760FB0C22DC
:1042F00004211C48FEF799FB2020009069461948CC
:10430000FEF755FB0C2205211648FEF78EFB0097A1
:10431000164F69463846FEF74AFB0C220A213846FA
:10432000FEF783FB0094124F69463846FEF73FFBC9
:104330000C2200213846FEF778FB8DF804408DF8FA
:1043400006808DF807408DF8055080200090694662
:104350003846FEF72CFB009669463846FEF727FBE9
:10436000BDE8FC9F000C0240001002400018024013
:104370000014024010B5072829D8174A1070C40746
:104380004FF4F0714FF4487322D05380918036235C
:104390004FF0D0410B80400148802A200880002047
:1043A000488048805088401EC0F307234B80C0B22D
:1043B00048802B2008800020488048809088401E3C
:1043C000C0F307224A80C0B248802C20088010BD6C
:1043D00051809380DBE70000D007002010B5FFF785
:1043E000BBFEFFF781FE00F027F900F02DF8074C27
:1043F0002078FFF7BFFF0021A38862880846FFF7F7
:10440000F1FABDE810400120FFF7DEBAD007002026
:1044100030B52A254FF0D0442580050A6580C5B205
:1044200065801044401E020A6280C0B260802B206A
:104430002080080A6080C8B26080C818401E010A47
:104440006180C0B2608030BD10B5FF204FF0D04415
:10445000208060809820608006206080BA202080C4
:1044600060206080BC202080012060800E20608061
:1044700061206080FB2060801020608060800B20C5
:1044800060800F2060802E20608073206080FF207D
:10449000608060800E20608060800020608003204B
:1044A0006080662060806320608001206080002042
:1044B00060806080BD20208001206080232060809B
:1044C000452060806720608001206080232060801C
:1044D0004520608067206080BE20208000206080B2
:1044E00021206080AB20608060206080222060807E
:1044F0006080608060806080C72020806F20608046
:10450000ED2020807F2060800F2060800020608070
:10451000C0202080372060800B2060800A206080CF
:10452000FC2020800A206080DF2020800020608026
:10453000608060806080608020206080F320208028
:1045400074206080B42020800020608060806080C3
:10455000F72020808A206080B120208000206080A9
:104560001220608013206080F220208080206080F4
:104570005B2060804020608028206080C1202080F7
:10458000172060807D2060807A20608020206080FD
:10459000E020208000206080112060801C2060804E
:1045A0000E2060800F2060800C206080C72060801B
:1045B0000620608060800A206080102060801220C9
:1045C00060800A20608010206080022060800020CF
:1045D0006080E12020800020608012206080182010
:1045E00060800C2060800F2060800A20608077202F
:1045F000608006206080072060800A2060800E2096
:1046000060800B206080102060801D20608017205B
:1046100060800020608035202080002060803A206B
:10462000208055206080112020804FF4A040FFF7AB
:10463000EBF92920208010BD70B5094C802120465F
:10464000FEF70AFA47F230552846FFF7DDF98021D8
:104650002046FEF703FA2846BDE87040FFF7D4B9BC
:104660000014024001231A46FFF7D2BE10B5084CD1
:10467000628890420AD2A288914207D2FFF7F2FFE5
:10468000E188BDE810400120FFF75ABD10BD0000D1
:10469000D00700202DE9F04F099F0B9D040494FBE7
:1046A000F2F909F101090C0494FBF3FA0AF1010A89
:1046B0000026302866D800FB01F4002C62D0B4F547
:1046C000106F5FDC02FB03F4002C5BD0B4F5804F6D
:1046D00058DA2D4C41434FEAE17C4FF0800B01EB5F
:1046E0005C7E0DB100252FE0002514E0002117F8B5
:1046F00005802BFA01FC18EA0C0F02D04FF0010CD8
:1047000001E04FF0000C04F801CB491C89B20829E4
:10471000EDD36D1CADB2B5EBEE0FE7DB17E000217A
:1047200017F805802BFA01FC18EA0C0F02D04FF0A5
:10473000010C01E04FF0000C04F801CB491C89B2D8
:104740000829EDD36D1CADB2B5EBEE0FE7DBDFF85A
:104750003880A8F58045002712E00024310C00FBCA
:10476000018C002107E00CEB144B9BF800B005F81E
:1047700001B04C44491C9142F5D3564415447F1C6A
:104780009F42EAD3BDE8F08FDC3C012010B500F079
:104790000BF8BDE8104000F077B810B500F0FEF857
:1047A000BDE8104000F02CB92DE9FC41012108467C
:1047B00000F058FD1020009003248DF804400025DF
:1047C0008DF8075069462D48FEF7F1F801210220C7
:1047D00000F048FD012600968DF804408DF8075042
:1047E000DFF89C8069464046FEF7E1F8012102208F
:1047F00000F038FD022700978DF804408DF807502F
:1048000069464046FEF7D3F80121042000F02AFD56
:1048100000968DF804408DF807501A4E69463046D0
:10482000FEF7C5F80121042000F01CFD00978DF86B
:1048300004408DF8075069463046FEF7B8F801216C
:10484000042000F00FFD042000908DF804408DF846
:10485000075069463046FEF7AAF80121042000F00F
:1048600001FD082000908DF804408DF8075069463E
:104870003046FEF79CF8BDE8FC81000000000240D5
:104880000004024000080240F0B599B001210D0279
:10489000284600F01FFD0121880500F0E3FC3C489C
:1048A0000B903C480C9000240D9407260E960F9414
:1048B000A9001091490011918800129013950001F0
:1048C0001490159401251695179418940A94324F54
:1048D0000AA93846FCF7A6FB01213846FCF7A8FADE
:1048E00000942804019002944FF47060039068468D
:1048F000FBF7C4FF04A8FCF752F804948DF8145099
:104900008DF815500694079408948DF82460204C77
:1049100004A94C3C2046FBF7DDFF002301220421C3
:104920002046FBF7FDFF0023022208212046FBF76B
:10493000F7FF0023032209212046FBF7F1FF0023A4
:1049400004220A212046FBF7EBFF002305220B215E
:104950002046FBF7E5FF002306220C212046FBF74B
:10496000DFFF002307220D212046FBF7D9FF01219D
:104970002046FBF7A3FF01212046FBF793FF01210F
:104980002046FBF76EFF2046FCF704F819B0F0BD97
:104990004C200140FCFB0020706402407CB50121EA
:1049A000202000F05FFC4020009003258DF804508B
:1049B00000248DF80740114E69463046FDF7F7FF99
:1049C0000121202000F04EFCB11500918DF804501B
:1049D0008DF8074069463046FDF7E9FF01212020A8
:1049E00000F040FC301500908DF804508DF8074021
:1049F00069463046FDF7DBFF7CBD00000014024035
:104A0000F0B599B001218D02284600F063FC012128
:104A1000880500F027FC31490B9131490C910024A5
:104A20000D9403260E960F94109568001190800047
:104A30001290401113904002149015940125169580
:104A40001794189440020A90264F0AA93846FCF79A
:104A5000E9FA01213846FCF7EBF9009428040190AB
:104A600002944FF4706003906846FBF707FF04A8B8
:104A7000FBF795FF04948DF814508DF815500694AB
:104A8000079408948DF82460144C04A94C3C2046EB
:104A9000FBF720FF0023012204212046FBF740FF03
:104AA0000023022206212046FBF73AFF00230322BF
:104AB00008212046FBF734FF01212046FBF7FEFECC
:104AC00001212046FBF7EEFE01212046FBF7C9FE3F
:104AD0002046FBF75FFF19B0F0BD00004C220140FB
:104AE000B0070020106402400148C0687047000011
:104AF000D00700200149088170470000D00700203E
:104B0000014AD08011817047D00700200149C86058
:104B100070470000D00700200149C880704700009E
:104B2000D00700202DE9F041884690B00446114698
:104B30000122444806F0CEFE4349087030B10146D8
:104B400042A003F075FD10B0BDE8F08149A003F06C
:104B50006FFD01AB022202A93A4807F0BDF8BDF88B
:104B60000800A0F59A41423903D046A003F060FD49
:104B7000E9E74AA003F05CFD01AB0C220DA9314826
:104B800007F0AAF80DA80BF04BFF01AB282203A9F0
:104B90002C4807F0A1F803A80BF082FF049D059EA6
:104BA000BDF81A0068431F30C11700EBD1604011F7
:104BB0008700B7F5707F03DD3EA003F039FDC2E743
:104BC000B3B2AAB241462046FFF722FC2C204FF098
:104BD000D048A8F80000BDF81A0018282ED30024E9
:104BE00026E0301B0F99401E00FB0711154806F008
:104BF0002BFA01AB3A463A49124807F06DF800200B
:104C0000DFF8DCC011E000EB40010CEB010293780F
:104C100052781CF80110DB08DB02920843EA4212CA
:104C200042EAD101A8F80210401CA842EBDB641C48
:104C3000B442D6DB034806F080F984E729A003F0EC
:104C4000F7FC80E71C450120E0070020B4F2BFAA72
:104C5000CEC4BCFECAA7B0DC21B4EDCEF3B4FAC218
:104C6000EBA3BA626D70726573203D202564200D40
:104C70000A000000B4F2BFAACEC4BCFEB3C9B9A6F4
:104C80000D0A0000D5E2B2BBCAC7D2BBB8F6202ECF
:104C9000626D7020CEC4BCFE210D0A00D5E2CAC7E9
:104CA000D2BBB8F6202E626D7020CEC4BCFE0D0AB9
:104CB000000000000A20B1BECDBCC6ACCCABB4F342
:104CC000A3ACCEDEB7A8D4DAD2BABEA7C6C1C9CFCC
:104CD000CFD4CABE20283C3D333230290A00000020
:104CE0005C410120D5E2B2BBCAC7D2BBB8F63234B0
:104CF000CEBBD5E6B2CAC9AB424D50CEC4BCFEA3B2
:104D0000A10000002DE9FC410121062000F0AAFAD3
:104D10004FF48075009501218DF8041000208DF866
:104D200006008DF807108DF805000B4E69463046D9
:104D3000FDF73DFE6C010094084F69463846FDF7CB
:104D400036FE29463046FDF789FE21463846FDF7F6
:104D500085FEBDE8FC81000000040240000802401E
:104D600010B5FEF72DFD80216B2000F0C4F81A4825
:104D7000FCF7E8F900216B2000F0BDF8032000F0FB
:104D800087F8002000F07FF8322000F09EF8002124
:104D9000382000F0B0F800216A2000F0ACF80021C3
:104DA000232000F0A8F88021372000F0A4F8752017
:104DB00000F014F8682801D0012010BD01216B20FB
:104DC00000F099F800216C2000F095F8322000F0F6
:104DD0007CF8002010BD0000A086010010B504463C
:104DE000FEF78EFDD020FEF75BFDFEF7C3FD2046EB
:104DF000FEF756FDFEF7BEFDFEF782FDD120FEF761
:104E00004FFDFEF7B7FD0020FEF716FD0446FEF746
:104E100093FD204610BD2DE9F04106460F4615468C
:104E20001C46FEF76DFD7006000EFEF739FDFEF71D
:104E3000A1FD20B1FEF780FD0120BDE8F0813846DC
:104E4000FEF72EFDFEF796FDFEF75AFD012000EB62
:104E50004600C0B2FEF724FDFEF78CFD08E0012DF0
:104E60000CD00120FEF7E8FC20706D1EEDB2641C32
:104E7000002DF4D1FEF760FD0020DEE70020FEF7F4
:104E8000DBFC2070F1E7C006010E1C2000F033B8F7
:104E9000C006010E1B2000F02EB8BC2801D3012152
:104EA00010E0622801D302210CE02A2801D303215B
:104EB00008E0142801D3042104E00A2801D30521C5
:104EC00000E006211A2000F016B810B504464FF491
:104ED0007A70844200D90446042C00D20424B0FB2A
:104EE000F4F0401EC1B2192000F005F86008BDE8DA
:104EF0001040FFF7D2BF70B505460C46FEF700FD27
:104F0000D020FEF7CDFCFEF735FD18B1FEF714FDFD
:104F1000012070BD2846FEF7C3FCFEF72BFD20469E
:104F2000FEF7BEFCFEF726FD18B1FEF705FD0120D9
:104F300070BDFEF701FD002070BD2DE9F041044673
:104F40000F4616461D46FEF7DBFC6006000EFEF718
:104F5000A7FCFEF70FFD20B1FEF7EEFC0120BDE837
:104F6000F0813846FEF79CFCFEF704FD00240BE0C0
:104F7000285DFEF795FCFEF7FDFC18B1FEF7DCFCA2
:104F80000120ECE7641CE4B2B442F1D3FEF7D4FC98
:104F90000020E4E7FEE7704710B505220C493020F9
:104FA00001F010FC0A490522491D102001F0E4FB24
:104FB00000200749491D0A5CC22A03D1401CC0B227
:104FC0000528F8D3052801D0002010BD012010BD10
:104FD000A20700202DE9F04188B00121022000F055
:104FE00041F90121102000F03DF92027019701250A
:104FF0008DF8085000248DF80A408DF80B508DF87C
:105000000950DFF8EC8001A94046FDF7D0FC4020B4
:1050100001908DF808508DF80A408DF80B508DF8EE
:10502000095001A94046FDF7C2FC102601968DF8F3
:1050300008408DF80A408DF80B508DF8095001A9F1
:105040004046FDF7B4FC0121C80300F027F9294DC3
:10505000062203212846FDF7E8FC06220421284603
:10506000FDF7E3FC062205212846FDF7DEFC0820BB
:10507000019002218DF809108DF808108DF80A4072
:105080008DF80B4001A92846FDF791FC019601A976
:105090002846FDF78CFC019701A92846FDF787FCFF
:1050A00020214046FDF7DAFCADF80C404FF4827049
:1050B000ADF80E00ADF81040ADF81240ADF8144058
:1050C0006815ADF816001820ADF81800ADF81A40B4
:1050D0000720ADF81C00084C03A9204601F015FB81
:1050E0000121204601F0FAFA08B0BDE8F081000085
:1050F0000010024000040240003C004008B54FF49C
:10510000C06000F069F817208DF8000001208DF8CC
:1051100001008DF802008DF80300684600F028F8C1
:1051200008BD08B54FF4A06000F056F825208DF8B2
:10513000000001208DF801008DF802008DF80300B9
:10514000684600F015F808BD08B54FF4A06000F0FF
:1051500043F834208DF8000001208DF801008DF80F
:1051600002008DF80300684600F002F808BD000058
:1051700030B50F23C27801250178002A1FD0154AC7
:10518000126802F4E062C2F5E062C2F30722C2F1E3
:105190000404D3404278A24084781C401443220186
:1051A00001F1E02181F80024007800F01F018D401A
:1051B0004009800000F1E020C0F8005130BD01F04E
:1051C0001F0085404809800000F1E020C0F88051B0
:1051D00030BD00000CED00E00249084302490860C0
:1051E000704700000000FA050CED00E0014908627C
:1051F0007047000000000E4270B5FFF7BBF814497D
:10520000012008704FF6FF70FFF774FC1148002171
:105210000388114802880846FEF7E4FB02F08AF989
:105220000B4D00202D1D2860287100240B4E04EB2F
:10523000440006EBC00001698847641CE4B2122CEC
:10524000F5D32888BDE8704080B2FFF765BC000048
:1052500020080020D4070020D2070020405501205C
:1052600070470000054A002903D01168014311600E
:105270007047116881431160704700003038024068
:10528000054A002903D01168014311607047116875
:10529000814311607047000038380240054A0029F8
:1052A00003D0116801431160704711688143116098
:1052B0007047000040380240054A002903D01168B9
:1052C000014311607047116881431160704700000D
:1052D00020380240054A002903D0116801431160BB
:1052E00070471168814311607047000044380240E4
:1052F000054A002903D01168014311607047116805
:1053000081431160704700002438024070B5244B7F
:10531000196801F00C01234C00291ED066100429E5
:105320001DD008291DD00460196801F0F001090999
:105330001D4A545C0168E14041601C6804F4E0547B
:10534000A40A145D21FA04F484601B6803F460432A
:105350005B0BD25CD140C16070BD0460E4E70660C5
:10536000E2E70F4A121F1168C1F38055116801F07E
:105370003F0135B1B6FBF1F11468C4F38814614301
:1053800005E0B4FBF1F11468C4F3881461431268BA
:10539000C2F30142521C5200B1FBF2F10160C3E7BB
:1053A000083802400024F40034080020024600209F
:1053B000510901290BD002290DD00949096802F0D1
:1053C0001F02012393400B4200D001207047044983
:1053D00074390968F3E70249091F0968EFE700001B
:1053E00074380240064900220A700A70012804D06D
:1053F000042801D10520087070470120087070470B
:105400007038024001490860704700003C0E474276
:10541000C0F30121032907D1074B196821F4F812C1
:105420000649014011431960034A68321168C0F30C
:105430000B0001431160704708380240FFFCFF0F6A
:10544000010901EB8101490000F00F000844C0B2DE
:105450007047002103E0491CC9B20A38C0B20A28CB
:10546000F9D2090740EA1160704700000EB501212A
:105470000807FFF713FF0120FFF7B8FE0120FFF731
:10548000B1FF4120FFF792FF0028FAD04FF480705F
:10549000FFF7BEFF0120FFF7B5FF00F09BF97F206B
:1054A0000190FF20029000200090684600F090F8E4
:1054B000002802D101A003F0BBF80EBD0A0D205256
:1054C000544320CAB1D6D3B3F5CABCBBAFCAA7B048
:1054D000DC200D0A0000000010B5FFF7C7FF002018
:1054E00000F09EF8A0F54851F23903D0BDE8104015
:1054F00000F046B97B20FFF759FF18B10CA003F06C
:1055000097F806E07A20FFF751FF10B10EA003F0E4
:105510008FF813A003F08CF801210807FFF7BEFEF7
:105520000120FFF763FEBDE8104000F053B9000012
:105530000D0A20B7A2C9FAB5E7D4B4B8B4CEBB2ED1
:105540002E2E2E0D0A0000000D0A20B7A2C9FACD9A
:10555000E2B2BFB8B4CEBB2E2E2E2E0D0A00000034
:105560000D0A20B2BBD0E8D2AAD6D8D0C2C5E4D6A4
:10557000C35254432E2E2E2E0D0A000008B50020D3
:1055800000900E490868400615D44FF0FF300860BF
:105590008B13086800F04000009A521C0092009A99
:1055A0009A4201D00028F4D00868400601D50120B5
:1055B00008BD002008BD012008BD00000C280040E7
:1055C0000248016821F08001016070470C2800400A
:1055D00070B504460025114ECA203060532030605B
:1055E000FFF7CCFFA8B10D481C38016821F040013D
:1055F000016001682268114301600848A1681438FD
:1056000001600168A28841EA02410160FFF7D8FF0A
:105610000125FF203060284670BD0000242800408E
:1056200008B5034901EB800000900098006808BDB0
:105630005028004070B505460C460026002D06D1C6
:105640006078C10603D520F010000A3060702DB1DB
:105650006078FFF7F5FEA078FFF7F2FE55B1A0786D
:10566000E17840EA014560782178000240EA413063
:1056700005430FE0E078FFF7ECFE05046078FFF7E4
:10568000E8FE45EA0025A078FFF7E3FE0543207811
:1056900045EA40350E4CCA20206053202060FFF7B9
:1056A0006DFF88B10B480540094820380560FFF7B9
:1056B00087FF07481C380068800604D400F08AF889
:1056C00010B1012600E00126FF202060304670BDA9
:1056D000242800403FFFFF002DE9F04105460C461D
:1056E00000260020244F002D06D03968490608D531
:1056F0002078FFF7A5FE05E03968490602D4E0707E
:1057000000E0E07055B1A078217840EA014560786A
:10571000E178000240EA014005430FE02078FFF7FE
:1057200098FE05046078FFF794FE45EA0025A0780E
:10573000FFF78FFE0543E07845EA00450E4CCA208E
:105740001C34206053202060FFF718FF78B10B480D
:105750000540094808380560FFF732FF38688006C1
:1057600004D400F037F810B1012600E00126FF2034
:1057700020603046BDE8F081082800407F7F7F0030
:105780001CB500208DF8070011218DF804100B21A5
:105790008DF805108DF8060001A9FFF79DFF43F273
:1057A000F2242146002000F03BF801208DF8000093
:1057B00013208DF8020008208DF8010018208DF8C4
:1057C000030069460020FFF735FF2146002000F066
:1057D00027F81CBD18B500200090104BCA20186097
:1057E000532018600D491839086820F0A00008609F
:1057F0004FF40034086800F02000009A521C009218
:10580000009AA24201D00028F4D00868800601D591
:10581000012000E00020FF21196018BD242800406D
:1058200008B5034A02EB800000900098016008BDB3
:10583000502800402DE9FC470646002400940194BE
:10584000002000F0C5F8800102D50E20BDE8FC87DD
:105850002E4D6946288980B2FCF76AFE0028F5D1F2
:1058600037202B4F4FF0060A4FF040094FF4806865
:10587000012E22D00199C90345D52989090439602F
:105880007860C7F80890FC60C7F81080384600F0D0
:10589000D5F83720FBF720F90028D7D13C60C7F8AE
:1058A00004A0C7F80890FC60C7F81080384600F0E4
:1058B000C5F80620FBF710F9C8E70199490320D580
:1058C0002989090439607860C7F80890FC60C7F836
:1058D00010800F4800F0B2F83720FBF7FDF80028E1
:1058E000B4D102203860C7F804A0C7F80890FC6063
:1058F000C7F81080064800F0A1F80620FBF7ECF886
:10590000A4E72520A2E72520A0E70000B807002093
:10591000B0FC00200149086070470000382C0140AD
:105920000149086070470000382C014001490860B7
:1059300070470000A08025420149086070470000C0
:105940008C85254210B50A4A01681160121D416814
:105950001160141D216821F0F701D0E902231A43D8
:10596000D0E9043003431A430A43226010BD00000B
:10597000242C014010B50121CC022046FFF7B8FCD1
:105980002046BDE810400021FFF7B2BC0148006886
:10599000C0B27047102C014001460020024A126834
:1059A0000A4200D001207047342C014001460020FB
:1059B000024A12680A4200D001207047342C01408C
:1059C0000248006800F0030070470000002C01400E
:1059D00008B50349084400900098006808BD00001D
:1059E000142C014000F07ABC054A002903D011684C
:1059F00001431160704711688143116070470000D6
:105A00003C2C014030B5094B196847F6FF629143C1
:105A1000027D8468C568224344682C43224304689D
:105A20000069224302430A431A6030BD042C01403E
:105A30000148006870470000802C014010B5084AFA
:105A400001681160141D21686FF30A01D0E9012378
:105A50001A43D0E9033003431A430A43226010BDBE
:105A6000082C01400149086070470000002C0140EB
:105A700008B5012000909DF8000008BD2DE9F04117
:105A8000014600241C484068032805D038B101288D
:105A900005D0022803D02DE02720BDE8F081B1F524
:105AA000805F0CD04FF400670026144DB94212D12C
:105AB0000120FFF7BFFE0446200002D01AE0272095
:105AC000EBE72E752E606E60AE60EF602E610B48C6
:105AD000FFF798FF0EE00020FFF7ACFE0446200021
