:020000040800F2
:1000000058090120A1010008EF580008E13B000851
:10001000ED58000811120008538600080000000087
:10002000000000000000000000000000F176000861
:10003000DD17000800000000B95B000855790008D2
:10004000BB010008BB010008BB010008BB010008A0
:10005000BB010008BB010008BB010008BB01000890
:10006000BB010008BB010008BB010008BB01000880
:10007000BB010008BB010008BB010008BB01000870
:10008000BB010008BB010008BB010008BB01000860
:10009000BB010008BB010008BB0100087D2500086A
:1000A000BB010008BB010008BB010008BB01000840
:1000B000C17A0008AD7B0008C97B0008BB010008BD
:1000C000BB010008BB010008BB010008BB01000820
:1000D000BB010008C5830008BB010008BB01000884
:1000E0005D250008BB010008BB010008BB0100083A
:1000F000BB010008BB010008BB010008BB010008F0
:10010000BB0100087D640008E57B0008BB01000816
:1001100099830008BB0100088D7C0008BB01000822
:10012000BB010008E1140008BB01000839150008F4
:10013000BB010008BB010008BB010008BB010008AF
:10014000BB010008BB010008BB010008BB0100089F
:10015000BB010008BB010008BB010008BB0100088F
:10016000BB010008BB010008BB010008BB0100087F
:10017000BB010008BB010008BB010008BB0100086F
:10018000BB010008BB010008DFF810D000F006FD3D
:10019000004800475DF00008AFF3008058090120D7
:1001A0000648804706480047FEE7FEE7FEE7FEE711
:1001B000FEE7FEE7FEE7FEE7FEE7FEE799790008C7
:1001C000890100082DE9F05F0546002092469B4614
:1001D00088460646814640241BE02846414647465D
:1001E000224600F01EFB53465A46C01A914110D3D6
:1001F00011461846224600F005FB2D1A67EB010850
:100200004F4622460120002100F0FCFA17EB0009BE
:100210004E41201EA4F10104DFDC484631462A4647
:100220004346BDE8F09F2DE9F0410024061B25461A
:1002300071F1000605DA01240027D0EB070067EB17
:100240000101161E73F1000605DA0027D2EB070242
:10025000012567EB0303FFF7B5FF86460E461746F9
:100260009C46AC4204D00025D0EB050E65EB0106A0
:1002700024B10020D2EB000760EB030C704631463E
:100280003A466346BDE8F081004870470C4D0408CB
:1002900010B50446FFF7F8FF0068005D00F00100AC
:1002A00010BD40EA01039B0703D009E008C9121FF3
:1002B00008C0042AFAD203E011F8013B00F8013B20
:1002C000521EF9D27047D2B201E000F8012B491E4C
:1002D000FBD270470022F6E710B513460A460446E3
:1002E0001946FFF7F0FF204610BD421C10F8011B15
:1002F0000029FBD1801A7047CBB203E00178994204
:1003000003D0401C521EF9D20020704730B504467D
:100310000020034600E05B1C934203D2E05CCD5C0E
:10032000401BF8D030BD034611F8012B00F8012B1B
:10033000002AF9D1184670472DE9F04791460F463B
:1003400080460446002614F8015B2DB1FFF79CFFA0
:100350000068405DC007F6D12B2D02D02D2D18D09E
:10036000641E4A463946204600F07DFA27B13968B6
:10037000A14201D1C7F8008071054FF002040BD5EE
:100380004042002803DD08F003FA0460A007BDE83E
:10039000F08746F48066E4E70028F8DA08F0F8F918
:1003A00004606FF00040F2E72DE9FE4F804681EADD
:1003B0000300C00F0C46009021F0004123F00045DF
:1003C000B8EB0200A94105D24046214690461C46A2
:1003D0000B46024623F00040104347D0270DC7F3D9
:1003E0000A00C3F30A510290401A019040286BDAC8
:1003F000C3F3130040F4801B0098924620B1002301
:10040000D2EB030A63EB0B0B01985946C0F1400293
:10041000504600F0F7F906460D4650465946019AF7
:1004200000F00FFA10EB08006141002487EA115236
:1004300084EAE7731A4340D0009A62B3019A012A12
:100440004FEA075215DC001B61EB02014FF000423E
:1004500002EA0752CDE90042001C41F58011324604
:100460002B4600F0E3FA03B0BDE8F08F404621468A
:10047000F9E7001B61EB0201001C41F58013001835
:100480005B412018A2F5001747EB030140EAD57045
:10049000B6196D4111E06D084FEA360645EAC075A0
:1004A0004FEA0752001B61EB0201001C41F580116D
:1004B00049084FEA30000019514132462B4603B03B
:1004C000BDE8F04F00F0A3BA0098012240000023DD
:1004D000D0EB020263EBE073009821464FEAE07430
:1004E000B8EB000061EB0401E9E783F000435BE750
:1004F00081F0004158E72DE9FE4F81EA030404F042
:10050000004421F0004100944FF0000B23F0004321
:1005100050EA01045ED052EA03045BD0C3F30A54EC
:10052000C1F30A552C44A4F2F3340194A0FB025405
:10053000C1F3130141F48011C3F3130343F4801397
:1005400001FB024400FB034E840A970A44EA8154EB
:1005500047EA8357A4FB076802958D0A05FB0785C8
:100560004FEA932C04FB0C542705029D4FEA0658D2
:1005700047EA1637B5EB08056EEB070C870E920EAF
:1005800047EA811742EA8312A7FB0201B6EB0B018F
:1005900064EB00042B0D43EA0C335E1844EB1C5053
:1005A000DA465146E7FB0201C5F313044FEA0B3369
:1005B00043EA14534FEA0432019C43EA0603A4F1D0
:1005C0000C040294009CCDE900B400F02FFA03B0B3
:1005D000BDE8F08F00200146F9E72DE9F04D81EAF2
:1005E000030404F0004B21F0004514464FF0000ACC
:1005F00023F0004150EA050220D054EA01021DD048
:10060000C5F30A570246C5F31303C1F31300C1F340
:100610000A5640F4801543F48013A7EB0608101B1C
:10062000D64608F2FD3873EB050002D308F1010845
:1006300001E092185B41B8F1000F03DA0020014697
:10064000BDE8F08D00204FF48011064684460EE090
:10065000171B73EB050705D3121B63EB050306435A
:100660004CEA010C49084FEA300092185B4150EA0D
:100670000107EDD152EA030012D082EA040083EAB6
:100680000501084305D0101BAB4106D2012200230F
:1006900006E000224FF0004302E06FF00102531029
:1006A0001AEB06004CEB085110EB0A0041EB0B0172
:1006B000BDE8F04D00F0ABB90EB5C10F80EAE070B7
:1006C0000844CA07002140F233438DE80E000A4671
:1006D0000B4600F0ABF903B000BD70B5C1F30A5290
:1006E00001F000450024C1F3130140F2FF3341F44F
:1006F00080119A4201DA002070BD40F233439A42E1
:10070000A2F2334203DC524200F08BF800E090404A
:100710002C43F1D0404270BD00F0004230F0004068
:100720000AD0C10D01F56071C0F3160042EA015113
:10073000C20840071143704700200146704700007F
:1007400030B5041E71F1000404DB4FF00044404258
:1007500064EB0101141E73F1000405DB1C464FF02D
:100760000043524263EB04038B4208BF824230BD18
:1007700030B5041E71F1000404DB4FF00044404228
:1007800064EB0101141E73F1000405DB1C464FF0FD
:100790000043524263EB0403994208BF904230BDCC
:1007A00001F0004330B421F0004150EA010206D0CC
:1007B0000A0DA2F56072C1F31301002A02DC30BCFD
:1007C00000207047440F44EAC104C100E01830BC67
:1007D00000EBC25000F0E4B830B50B4601460020F3
:1007E0002022012409E021FA02F59D4205D303FAF3
:1007F00002F5491B04FA02F52844151EA2F1010274
:10080000F1DC30BD202A04DB203A00FA02F100209E
:1008100070479140C2F1200320FA03F3194390403E
:100820007047202A04DB203A21FA02F000217047A9
:1008300021FA02F3D040C2F1200291400843194648
:100840007047202A06DBCB17203A41FA02F043EA30
:10085000E07306E041FA02F3D040C2F12002914079
:100860000843194670472DE9F05F8246007800275B
:1008700015468B460AF10104B946302801D09DB1D6
:1008800013E014F8010B0127782803D0582801D071
:1008900045B10AE00DB1102D07D10027102514F83D
:1008A000010B02E0082500E00A250026B0460EE014
:1008B00005FB080005FB06F1012701EB10461FFAB6
:1008C00080F8B6F5803F00D3B94614F8010B2946ED
:1008D00000F076F90028EBDABBF1000F05D00FB17C
:1008E000641E00E05446CBF80040B9F1000F06D07A
:1008F00007F04EFF02210160C81EBDE8F09F48EAE4
:100900000640FAE70FB4002300B589B00CA90091A6
:100910000B996FF00042CB601E4B06931E4B079362
:100920000423CDE901321D4A089202466B4600209D
:1009300000F0E8F909B05DF814FB70B586B0064622
:100940004FF0FF300091CDE90101002015460C4623
:1009500004903246694604A8FFF7D4FF0246049883
:10096000211825B108B1084600E020462860049807
:1009700000280DD0002A02DD0098884208D0081B0C
:100980000094CDE901043246694604A8FFF7BAFF96
:1009900006B070BD3D0F00085B0F00089102000813
:1009A0000029A8BF7047401C490008BF20F0010083
:1009B000704710B4B0FA80FC00FA0CF050EA010461
:1009C00004BF10BC704749B1CCF1200421FA04F4F3
:1009D00011FA0CF118BF012121430843A3EB0C01CC
:1009E000CB1D4FEA00614FEA102042BF002010BC2F
:1009F000704700EBC35010440029A4BF10BC7047DF
:100A0000401C490008BF20F0010010BC704710B521
:100A1000141E73F1000408DA401C41F10001921821
:100A20005B411A4301D120F0010010BD2DE9F04DCA
:100A300092469B4611B1B1FA81F202E0B0FA80F21F
:100A400020329046FFF7DEFE04460F4640EA0A00D9
:100A500041EA0B0153465A46084313D0114653EA64
:100A6000010019D0C8F140025046FFF7DAFE0546F2
:100A70000E46504659464246FFF7C4FE084305D08D
:100A8000012004E020463946BDE8F08D00200543F2
:100A900046EAE0762C4337430A986305E40AA0EB64
:100AA00008000022FD0A44EA47540A3002D500201B
:100AB0000146E9E7010510196941DDE9084500191A
:100AC0006941BDE8F04DA2E72DE9F04D00231A463B
:100AD0001B1A8A4103DB00200146BDE8F08DC1F3FB
:100AE0000A52C1F3130141F480154FF0000BD107F6
:100AF00002D100186D41521E0027044640F2FF113A
:100B0000384601EB620A3E468046024600204FF41A
:100B10008011FFF786FEC2197141BB1846EB010038
:100B2000B4EB030C75EB000C04D3E41A65EB000581
:100B300017460E46241908F101006D4180463428FD
:100B4000E3DDF91946EB0600091BA84103D24FF07B
:100B5000FF32134601E0002213461BEB070046EB71
:100B60000A51BDE8F04DFFF752BFC1F30A52C1F37D
:100B7000130140F2FF3341F480119A4202DA00205F
:100B80000146704740F233439A42A2F2334202DCFC
:100B90005242FFF746BEFFF735BE0000064C074D38
:100BA00006E0E06840F0010394E80700984710343D
:100BB000AC42F6D3FFF7ECFA44520408645204083E
:100BC0003A2800D2303820F02002412A01D3A2F185
:100BD0003700884201D34FF0FF3070472DE9FF4FB7
:100BE000087883B09946FF2805D0491C2D2804D0E9
:100BF0000024002008E000200BE00124F9E700EBCE
:100C0000800003EB4000491C0B78FF2BF7D104B1A7
:100C1000404200230293147819461D462D2C01D022
:100C20002B2C04D1521C2D2C13D000240294AA4644
:100C30001478FF2C0FD00A25A3FB057801FB058152
:100C40004FF0000C03FB0C11521CE3194AEB01019D
:100C5000EEE70124EAE7814453EA010002D019F5E6
:100C6000C87F06DA03980021C0E9001107B0BDE88B
:100C7000F08F0025AE4E2F46DFF8B882184600F000
:100C80007DF9CDE90001B9F1000002DAC9F10004F3
:100C900000E004460023A74A1AEB030B42EB045A78
:100CA00012E0E00707D02A46334638464146FFF7B0
:100CB00022FC074688462A46334610461946FFF767
:100CC0001AFC05460E466410002CEAD1DDE900014D
:100CD000B9F1000F5A46534606DAFFF77EFC3A4652
:100CE0004346FFF77AFC05E0FFF705FC3A4643462A
:100CF000FFF701FC029A0AB181F00041039AC2E9B0
:100D00000001B3E72DE9FF4F1F468DB0D7E901463B
:100D10004FF0FF382E2045464FF000090B90B9697F
:100D20006D1C0E988847396A824688470028F6D19C
:100D3000BAF1FF3F0AD024F4D064002E11DDBAF1DD
:100D40002B0F08D0BAF12D0F0BD102E0404611B0A5
:100D50008DE744F48064B9696D1C0E98884782461B
:100D6000761E6946600501D52D2000E02B208DF808
:100D7000000001F1010B0DF1200809E0B9696D1CBB
:100D80000E98884782460F9844F40074761E0560DA
:100D9000002E02DDBAF1300FF0D00B998A453ED11A
:100DA00044F0800406E00F99681CA9F1010944F49D
:100DB00000740860B9696D1C761E0E9888478246DB
:100DC0003028F0D02BE00B998A4505D1200603D4BA
:100DD00044F08004761E18E0504608F095FA08B3F7
:100DE0000DF11301761E44F400748B4508D2AAF16C
:100DF00030000BF8010B200607D5A9F1010003E034
:100E0000200602D409F101008146A00502D50F9900
:100E1000681C0860B9696D1C0E9888478246002ED0
:100E2000D1DC53E0002E51DDBAF1650F02D0BAF1EA
:100E3000450F4BD1A00549D5B9696D1C24F4407408
:100E4000761E0E9888478246002E0CDD2B2804D093
:100E5000BAF12D0F07D144F48074B9696D1C0E9856
:100E600088478246761EE00501D52D2100E02B2122
:100E700008F8011BCDF82C8021E00DF12901761E28
:100E800044F4007488450CD2AAF1300010F0FF0041
:100E900088F8000002D10B99884509D908F10108AA
:100EA00006E0E00501D5244801E042F20F708146DA
:100EB000B9696D1C0E98884782460F980560002E10
:100EC00004DD504608F020FA0028D6D1F9690E98C2
:100ED0008847FF208BF8000088F80000002006906B
:100EE00007904B466A4608A906A8FFF777FEA005BB
:100EF00002D46FF001002AE714F0240F0AD0E007B3
:100F000014D1DDE906123868031D3B600068C0E9B2
:100F100000120BE0DDE90601FFF742FC0146E007A5
:100F200004D13868021D3A600068016028460EE767
:100F3000000014400000F03FF1D8FFFF426842B1CA
:100F4000016811F8013B23B1521EC0E90012184696
:100F500070470121C160881E704742685AB1C3685A
:100F6000016843B983688B4205D0491E521CC0E911
:100F70000012002070474FF0FF3070470EB540F26E
:100F8000334202920022CDE900221346FFF74EFDC4
:100F900003B000BD70B58C1810F8015B15F00703A5
:100FA00001D110F8013B2A1106D110F8012B03E002
:100FB00010F8016B01F8016B5B1EF9D12B0705D40A
:100FC0000023521E0DD401F8013BFAE710F8013B53
:100FD000CB1A921C03E013F8015B01F8015B521E6F
:100FE000F9D5A142D8D3002070BD002904D0816872
:100FF00041F0010181607047816821F00101816049
:101000007047000010B5074C226807490A40D0E934
:1010100000131943D0E902300343194311432160FF
:1010200010BD000004230140E030FCFF002904D083
:10103000816841F4807181607047816821F480711A
:1010400081607047002904D0816841F4007181609B
:101050007047816821F400718160704730B5426843
:101060000F4B1A400C790B6842EA04221343436089
:1010700083680C4A1340D1E9034222434D798C68BE
:1010800044EA450422431A438260C26A22F4700291
:10109000097D491EC9B242EA0151C16230BD00005A
:1010A000FFFEFFFCFDF7FFC070B5072609290AD92E
:1010B000C568A1F10A0404EB4404A640B543A3406B
:1010C0001D43C56007E0056901EB4104A640B54337
:1010D000A3401D4305611F23072A09D2446B521EFA
:1010E00002EB820293409C4391400C43446370BDE9
:1010F0000D2A09D2046BD21F02EB820293409C435B
:1011000091400C43046370BDC46A0D3A02EB820245
:1011100093409C4391400C43C46270BD816841F090
:1011200080418160704700210160017141718160DF
:10113000C160016101210175704770B504460D461B
:1011400000F026F829462046BDE87040AFF3008045
:101150003EB504460D460121102004F04BFD0194DC
:10116000ADF80050094C6946204606F01FFF0121EA
:10117000204606F0A1FD01221146204606F0E2FEBF
:101180000121204606F09EFD3EBD000000100040FB
:1011900008B54FF4E06004F0CBFC36208DF8000079
:1011A00000208DF8010003208DF8020001208DF849
:1011B0000300684604F088FC08BD00001CB501214E
:1011C000402004F0FBFC4FF40040009000208DF81C
:1011D000040001208DF807000C4C6946204602F0FF
:1011E00009F84FF4804100916946204602F002F868
:1011F0004FF4005100916946204601F0FBFFE114D5
:1012000000916946204601F0F5FF1CBD0018024020
:10121000FEE770B500254FF4803400E0641E24B171
:10122000802005F005F90028F8D02CB140F2FF50DD
:1012300005F0BCF8284670BD032070BD70B50546AA
:1012400000243B49086800E0086810F0450FFBD017
:10125000410705D50324042005F0A8F8204670BDF9
:10126000C00705D00124012005F0A0F8204670BD7C
:1012700005F0D8F8A84201D0102070BD40F2FF5010
:1012800005F094F8002005F0EFF82A49084201D152
:10129000204670BD002801DA1C2070BD410001D538
:1012A000092070BD810001D50A2070BDC10001D5A3
:1012B0000B2070BD010101D50C2070BD410101D58D
:1012C0000D2070BDC10101D50E2070BD010201D5F8
:1012D0000F2070BD410201D5102070BD810201D5E3
:1012E000112070BDC10201D5122070BD010301D5CE
:1012F000132070BD410301D5142070BD810301D5B9
:10130000152070BDC10301D5162070BD010401D5A3
:10131000172070BD410401D5182070BD810401D58E
:10132000192070BD000701D51A2070BD204670BD80
:10133000342C014008E0FFFD10B500240E4A11686E
:1013400000E0116811F0450FFBD0480705D50324D4
:10135000042005F02BF8204610BDC80705D0012455
:10136000012005F023F8204610BD40F2FF5005F0A3
:101370001DF8204610BD0000342C014010B500249B
:101380000A4A116800E0116811F0450FFBD04807C8
:1013900005D50324042005F009F8204610BD40F2CD
:1013A000FF5005F003F8204610BD0000342C01402A
:1013B00070B506460C4600251C4A106800E010680F
:1013C00010F0450FFBD0410705D50324042004F09D
:1013D000EDFF204670BDC00705D00124012004F0B8
:1013E000E5FF204670BD05F01DF8B04201D0102089
:1013F00070BD40F2FF5004F0D9FF002005F034F832
:1014000010F4604F03D0810405D5132070BD000C8B
:101410002080284670BD410401D5102070BD000415
:1014200001D50F2070BD284670BD0000342C01404E
:1014300010B500204FF480310D4B1A6801E0491EB1
:101440001A6812F0450F01D10029F8D109B15107EE
:1014500005D50324042004F0A9FF204610BD510641
:10146000FCD50024402004F0A1FF204610BD000060
:10147000342C014008B54FF6FF70014603F0B8FF69
:1014800001200090054800210088B63882B2044847
:101490000388B52003F03AFA08BD00004603002097
:1014A00048030020017A0448017100884FF6FF715B
:1014B00080B203F09DBF00009803002010B5074CD8
:1014C0008068206080B24FF6FF7103F091FF2079B1
:1014D000082801D10020207110BD000098030020D1
:1014E00070B5104E104D3146284600F009F9012420
:1014F00038B10E48047031462846BDE8704000F00F
:1015000033B80B4E2846314600F0FAF8002807D0D1
:101510000848047031462846BDE8704000F024B801
:1015200070BD000000440010286402400503002044
:10153000008800100403002005F008BC074A904210
:1015400001D2074801E005481038064A8B0001EA3D
:10155000020101D5C160704781607047106402408C
:10156000006002407D0F7D0F074A904201D207487C
:1015700001E005481038064A8B0001EA020101D556
:10158000C160704781607047106402400060024093
:101590007D0F7D0F002904D0016841F00101016039
:1015A0007047016821F00101016070472DE9F043A7
:1015B000016821F00101016000210160416081604A
:1015C000C1600161212141613E493E4A10394FF01D
:1015D0003D08904203D1C1F80880BDE8F083394A44
:1015E0004FF474651832904201D18D60F5E7354AA9
:1015F0004FF474163032904201D18E60EDE7314ADB
:101600004FF074674832904201D18F60E5E72D4B6F
:101610002D4A6033984201D1CA60DEE7294C2B4B3A
:101620007834A04201D1CB60D7E7DFF898C0284CCE
:101630000CF1900C604501D1CC60CEE7DFF88490CE
:101640004FF03D5C09F1A809484502D1C1F80CC032
:10165000C3E72049DFF87C900839484502D1C1F83A
:101660000080BAE7DFF86C8008F11808404501D126
:101670000D60B2E7174D3035A84201D10E60ACE7DE
:10168000144D4835A84201D10F60A6E7114D11490C
:101690006035091FA84201D10A609EE70D4A7832E1
:1016A000904201D10B6098E70A4A9032904201D1F2
:1016B0000C6092E7074AA83290428ED1C1F800C070
:1016C0008BE70000106002403D000020400F00202A
:1016D00000003D2010640240002904D0016841F060
:1016E000200101607047016821F02001016070470E
:1016F000014600200968C90700D00120704700009A
:1017000030B500240F4A904201D20F4A01E00D4A41
:10171000103A0E4B194205D01E2303EAD125036867
:101720002B4002E0406900F08003880001D550683A
:1017300000E01068064A1040084201D003B10124BD
:10174000204630BD10640240006002403C0F3C0F58
:101750007D0F7D0F0B0609D522B1436943F080034D
:10176000436103E0436923F080034361802905D08E
:1017700001F01E011AB102680A4302607047026854
:101780008A4302607047000030B50368124A134074
:10179000CC680A682243D1E905452C432243CC6931
:1017A00022430C6A22434C6A22438C6A22434C6BCC
:1017B00022438C6B22431A430260426922F00703E2
:1017C000D1E90B2422431A4342610A6942604A6804
:1017D00082608968C16030BD3F801CF070470000A6
:1017E00070B586B00121084604F0E8F90121102007
:1017F00004F01CFA254E07220A21304601F038FD7C
:1018000007220921304601F033FD00248DF81640EF
:1018100001208DF8170002258DF815508DF8145011
:101820004102049104A9304601F0E4FC8DF8145003
:101830006802049004A9304601F0DCFC4FF4E1306A
:101840000090ADF80440ADF80640ADF80840ADF8A2
:101850000C400C20ADF80A000D4C6946204606F0FD
:101860001FFE04F00AF9012240F22551204606F03D
:10187000FCFD012240F22441204606F0F6FD012144
:10188000204606F0B5FD06B070BD00000000024025
:101890000010014001B502E00098401E0090009841
:1018A0000028F9D108BD000001B503480099416046
:1018B00041680029FCD108BDA003002010B50C48E8
:1018C0000178012913D10021017002F0FFF90948C4
:1018D0000021038808480288084602F0CDFC07482A
:1018E000007804F035F9BDE8104002F025BA10BDCB
:1018F0001C00002048030020460300204403002071
:101900002DE9F84304464FF00108207B4FF4784658
:101910004FF6FF7500283FD02946284603F068FDA2
:10192000CDF80080E0886188A288401A83B22088C0
:10193000121A92B202F0EAFF2946304603F058FD2F
:101940002D4803F05BFDE08861882CA2401A203806
:1019500000EBD07001EB600083B2A0882188401AB0
:10196000403800EBD07001EB600080B2194602F005
:101970007FFD29464FF4047003F03AFD00200090EB
:10198000E0886188A288401A83B22088121A92B235
:1019900002F0BCFFBDE8F8834DF6FB6729463846E8
:1019A00003F026FDCDF80080E0886188A288401A07
:1019B00083B22088121A92B202F0A8FF394630464C
:1019C00003F016FD0C4803F019FDE08861880BA2B6
:1019D000401A203800EBD07001EB600083B2A08881
:1019E0002188401A403800EBD07001EB600080B2D3
:1019F000194602F03DFDBCE758030020C7E5C6C10B
:101A000000000000F8B504460126207B4FF6FF7564
:101A1000002820D02846014603F0EAFC0096E08822
:101A20006188A288401A83B22088121A92B202F00A
:101A30006DFF29464FF4047003F0DAFC002000909B
:101A4000E0886188A288401A83B22088121A92B274
:101A500002F05CFFF8BD2089294680B203F0C8FC83
:101A60000096E0886188A288401A83B22088121A02
:101A700092B202F04BFFDCE72DE9F8430446012562
:101A8000207B4FF000084FF404794DF6FB674FF6CA
:101A9000FF7600282ED03146304603F0A9FC009591
:101AA000E0886188A288401A83B22088121A92B214
:101AB00002F02CFF3146484603F09AFCCDF8008036
:101AC000E0886188A288401A83B22088121A92B2F4
:101AD00002F01CFFB0464146002003F089FCA168DB
:101AE0000A26092950D2DFE801F0253D5165798D9C
:101AF000A1B4E9003146384603F07AFC0095E0884D
:101B00006188A288401A83B22088121A92B202F029
:101B1000FDFE3946484603F06BFCCDF80080E088B6
:101B20006188A288401A83B22088121A92B202F009
:101B3000EDFECFE74146002003F05AFCE0886188C3
:101B4000401A00EBD07001EB600083B281B2A08834
:101B5000143882B2208801B01430BDE8F04380B25E
:101B600002F00CBE0095E1886088091A01EBD17182
:101B700000EB610083B281B2A088143882B2208861
:101B8000143080B202F048FEBDE8F88302200090D5
:101B9000E0886188401A00EBD07001EB600083B2EE
:101BA00081B2A088143882B22088143080B202F04A
:101BB00033FEE9E703200090E0886188401A00EBDB
:101BC000D07001EB600083B281B2A088143882B279
:101BD0002088143080B202F01FFED5E70420009068
:101BE000E1886088091A01EBD17100EB610083B2D2
:101BF00081B2A088143882B22088143080B202F0FA
:101C00000BFEC1E708200090E1886088091A01EB0B
:101C1000D17100EB610083B281B2A088143882B226
:101C20002088143080B202F0F7FDADE70096E1881D
:101C30006088091A01EBD17100EB610083B281B2B7
:101C4000A088143882B22088143080B202F0E4FDFB
:101C50009AE74146002003F0CBFBE1886088091A2F
:101C600001EBD17100EB610083B281B2A088401F0B
:101C700082B22088401D80B202F080FD002514E071
:101C8000E18860880523091A01EBD17100EB61003E
:101C900081B205EB850003EB4000104480B20123C4
:101CA000032202F0C3FC6D1CADB2A0882288801A0A
:101CB0000A3890FBF6F0A842E2DC65E700214046D6
:101CC00003F096FB0095E08861882823401A463887
:101CD00000EBD07001EB600085B2A08821881A4625
:101CE000401A283800EBD07001EB600080B2294622
:101CF00002F00CFE39464FF4784003F079FB0D48B2
:101D000003F07CFBE08861882288401A303800EBC1
:101D1000D07040102030084481B2A088BDE8F8435C
:101D2000801A403800EBD07002EB600080B202A253
:101D300002F09EBB58030020CFF0C6A400000000B4
:101D4000F8B51446069A1D46B52C26DDB52824DDC7
:101D500017790126E21EC31E092F1ED2DFE807F005
:101D600005101E2D3A495A6B8000002915DB01B081
:101D7000ABB2A2B2BDE8F04089B280B202F0FEBCC4
:101D8000621EB52A09DB421EB52A06DBABB2A2B23F
:101D900089B280B2009602F03FFDF8BDA21EB52ABE
:101DA000FBDB821EB52AF8DB02220092ABB2A2B2A4
:101DB00089B280B202F030FDF8BDB52AFCDBB52B4C
:101DC000FADB03220092ABB2A2B289B280B202F077
:101DD00023FDF8BD221FB52AFBDB021FB52AF8DB65
:101DE00004220092ABB2A2B289B280B202F014FD1A
:101DF000F8BDA4F10802B52AFADBA0F10802B52A61
:101E0000F6DB08220092ABB2A2B289B280B202F035
:101E100003FDF8BDA4F10A02B52AFADBA0F10A021B
:101E2000B52AF6DB0A220092ABB2A2B289B280B226
:101E300002F0F2FCF8BDB52AFCDBB52BFADB002979
:101E4000F8DBABB2A2B289B280B202F097FC01B06B
:101E5000A9B2A0B2BDE8F0400123032202F0E6BB24
:101E6000A4F114000746B528E4DB0D4814340088BB
:101E70008442DFDC0B4905F1140009888842D9DC73
:101E8000142DD7D44FF6FF70014603F0B1FA143D7C
:101E90002823A9B2B8B21A46009602F037FDF8BD61
:101EA00046030020480300202DE9F04707460E4670
:101EB000DFF8C0800121404601F074FF2E4C40F253
:101EC000FF752560DFF8B49006E02168491E2160A7
:101ED00011B9012000F0D4FB4946404601F098FEBC
:101EE0000128F2D1C1460022A121484602F034F86F
:101EF0002560DFF88C8006E02168491E216011B959
:101F0000022000F0BDFB4146484601F081FE012859
:101F1000F2D13946484602F028F82560184FBF1C18
:101F200006E02168491E216011B9032000F0A8FBDA
:101F30003946484601F06CFE0128F2D13146484648
:101F400002F013F8256006E02268521E226012B9E2
:101F5000042000F095FB3946484601F059FE01285F
:101F6000F2D10121484601F029FFBDE8F04706F013
:101F700071BB00000054004020030020010003005A
:101F8000820007002DE9FC410121022003F016FE2A
:101F90000121022003F012FE154F042207213846CA
:101FA00001F066F904220621384601F061F90126A4
:101FB0008DF8066000258DF8075002248DF8054045
:101FC0008DF80440802000906946384601F012F9EF
:101FD0008DF806608DF807508DF805408DF80440A7
:101FE000402000906946384601F004F9BDE8FC81C4
:101FF0000004024010B5FFF7C5FFBDE8104000F037
:1020000001B800001FB50121480503F0F3FD4FF4AE
:102010008060ADF80A000001ADF80C000C4800909B
:102020004BF6FF70ADF806000020ADF804007720F5
:10203000ADF80800074C6946204601F0CBFE0121AF
:10204000204601F0F1FD0121204601F0D5FD1FBD24
:10205000801A0600005400402DE9F04707460D465F
:102060001446DFF8D8A00121504601F09BFE344E03
:1020700040F2FF79C6F80090DFF8C88006E03168CA
:10208000491E316011B90C2000F0FAFA4146504661
:1020900001F0BEFD0128F2D10022A121504601F03D
:1020A0005BFFC6F80090DFF8A08006E03168491EAB
:1020B000316011B90D2000F0E3FA4146504601F0BD
:1020C000A7FD0128F2D139465746384601F04DFFA9
:1020D000C6F80090DFF8708008F1020806E030686A
:1020E000401E306010B90E2000F0CAFA4146384652
:1020F00001F08EFD0128F2D114E02978384601F074
:1021000034FFC6F8009006E03068401E306010B919
:102110000F2000F0B5FA4146384601F079FD01285C
:10212000F2D16D1C641EE4B2E7D20121384601F001
:1021300045FEBDE8F04706F08DBA000000540040AF
:102140002003002001000300820007002DE9F04772
:1021500081460D46DFF81C810121404601F022FE38
:10216000454C40F2FF762660444F06E02068401E52
:10217000206010B9052000F083FA3946404601F08E
:1021800047FD0128F2D10022A121404601F0E4FEE2
:102190002660DFF8ECA006E02068401E206010B941
:1021A000062000F06DFA5146404601F031FD01284D
:1021B000F2D14946C146484601F0D7FE2660DFF815
:1021C000C08008F1020806E02168491E216011B9AB
:1021D000072000F055FA4146484601F019FD012854
:1021E000F2D10121484601F0DDFD266006E02168BC
:1021F000491E216011B9082000F042FA39464846CC
:1022000001F006FD0128F2D10122A121484601F08A
:10221000A3FE2660194F7F1C06E02168491E21603D
:1022200011B9092000F02CFA3946484601F0F0FCBB
:102230000128F2D10021484601F0DEFC26600F4E55
:102240003F3606E02168491E216011B90A2000F0DE
:1022500017FA3146484601F0DBFC0128F2D1484626
:1022600001F03BFE28700121484601F0A7FD002047
:10227000BDE8F08700540040200300200100030067
:10228000820007002DE9F05F83460D461446DFF813
:1022900040910121484601F085FD4E4E40F2FF7706
:1022A0003760DFF8348106E03068401E306010B9D6
:1022B000102000F0E5F94146484601F0A9FC01284C
:1022C000F2D10022A121484601F046FE3760DFF836
:1022D0000CA106E03068401E306010B9112000F0FB
:1022E000CFF95146484601F093FC0128F2D15946F6
:1022F000484601F03AFE3760DFF8E0A00AF1020A32
:1023000006E03168491E316011B9122000F0B8F9B9
:102310005146484601F07CFC0128F2D10121484693
:1023200001F040FD376006E03168491E316011B9A7
:10233000132000F0A5F94146484601F069FC012848
:10234000F2D1C8460122A121404601F005FE3760C6
:10235000DFF8849009F1010906E03168491E316017
:1023600011B9142000F08CF94946404601F050FCA8
:102370000128F2D121E04CB10121404601F03CFCA2
:102380003760DFF8549009F13F090BE00021404627
:1023900001F032FCF4E73068401E306010B91520BF
:1023A00000F06EF94946404601F032FC0128F2D1B6
:1023B000404601F092FD05F8010B641EA4B2DAD28A
:1023C0000121404601F0FAFC0020BDE8F09F00002A
:1023D0000054004020030020010003008200070099
:1023E0002DE9F04105460E46C2F3071402F00F072F
:1023F00009E0102231462846FFF72EFE06F02AF9A2
:102400001035EDB21036641EE4B2F2D23A463146CF
:102410002846FFF721FE06F01DF90020BDE8F081F7
:102420002DE9F04105460E4605F00F00002812D0B8
:10243000C0F11000C7B2D01BC0B2040900F00F08F1
:102440003A4631462846FFF707FE06F003F9E81939
:10245000C5B23E4423E0C2F3071402F00F0709E0BF
:10246000102231462846FFF7F7FD06F0F3F8103545
:10247000EDB21036641EE4B2F2D23A463146284636
:10248000FFF7EAFD06F0E6F813E010223146284691
:10249000FFF7E2FD06F0DEF81035EDB21036641EEF
:1024A000E4B2F2D2424631462846FFF7D5FD06F0A7
:1024B000D1F80020BDE8F08170B586B00121084652
:1024C00003F07CFB0121C80403F094FB214E082299
:1024D0000121304600F0CCFE08220021304600F0F9
:1024E000C7FE00248DF8164001218DF81710022533
:1024F0008DF815508DF81450049104A9304600F061
:1025000079FE8DF81450049504A9304600F072FE4F
:102510004FF4E1300090ADF80440ADF80640ADF85E
:102520000840ADF80C400C20ADF80A000A4C694692
:10253000204605F0B5FF03F0B3FA012240F2255121
:10254000204605F092FF0121204605F051FF06B01C
:1025500070BD000000000240004C004010B54FF478
:102560008054204600F01EF8002806D001F0DCF967
:102570002046BDE8104000F00FB810BD10B54FF474
:102580000074204600F00EF8002804D02046BDE874
:10259000104000F001B810BD01490860704700000C
:1025A000143C014001460020024A12680A4200D051
:1025B00001207047143C014030B51B4A8379016803
:1025C000002B2AD013688B431360111D0B6804681D
:1025D000A3430B60017911440B68046823430B602B
:1025E000114C08342168036899432160231D196840
:1025F0000568A94319604179102905D011440A687A
:10260000006802430A6030BD2168026811432160FE
:10261000196800680143196030BD007910440268F0
:102620008A43026030BD0000003C01407FB50121BB
:10263000022003F0C3FA0121880303F0F7FA4FF4F4
:102640000075029500248DF80C408DF80F4002A90A
:102650000A4800F0CFFD0921012005F04BF8009554
:102660008DF8044008208DF8050001208DF8060043
:102670006846FFF7A1FF03F0EDF97FBD00040240BB
:1026800010B50446214602A006F02CF8204610BDE5
:102690000D0A49324331206572726F72206F636395
:1026A0007572726564202C20636F6465203D20255F
:1026B0006400000070477047704700B5FFF7FAFFED
:1026C000FFF7FAFF5DF804EBFFF7F5BF2DE9F041E6
:1026D000C4B2C0F30725C0F3074600F0CBFB00F0FF
:1026E000A1FBDFF838804FF400673946404600F020
:1026F000D6FD202000F048F9304600F045F9284684
:1027000000F042F9204600F03FF93946404600F01B
:10271000C8FDBDE8F04100F085BB00000014024098
:1027200010B50446214602A005F0DCFF204610BD8E
:102730000D0A535049206572726F72206F63637582
:1027400072726564202C20636F6465203D202564CF
:10275000000000002DE9F0470446154601F0FF088F
:10276000C1F30729C1F3074A104F4FF40066314601
:10277000384600F094FD032000F006F9504600F0C2
:1027800003F9484600F000F9404600F0FDF803E088
:1027900000F054F804F8010B6D1EADB2F8D23146CA
:1027A0003846BDE8F04700F07CBD00000014024050
:1027B00070B50E4D4FF400642146284600F06FFDC1
:1027C000AB2000F0E1F8FF2000F0DEF8FF2000F081
:1027D000DBF8FF2000F0D8F800F030F8064621467C
:1027E000284600F05EFD304670BD00000014024037
:1027F0002DE9F041DFF840804FF40067394640464C
:1028000000F04DFD9F2000F0BFF8FF2000F0BCF865
:102810000446FF2000F0B8F80546FF2000F0B4F8A9
:1028200006463946404600F03CFD200440EA0520BB
:102830003043BDE8F081000000140240FF2000F0AA
:10284000A3B800007CB50121084603F0B7F90121C7
:10285000084603F0B3F90121084603F0AFF901215E
:10286000202003F0ABF90121042003F0A7F9264E44
:1028700005220621304600F0FBFC052207213046E8
:1028800000F0F6FC05221146304600F0F1FC002471
:102890008DF806408DF8074002258DF805508DF81B
:1028A0000450202000906946304600F0A3FC8DF8CB
:1028B00006408DF807408DF805508DF804508020B3
:1028C00000906946304600F095FC8DF806408DF882
:1028D00007408DF805508DF804504020009069465F
:1028E000304600F087FC8DF806408DF807408DF8E3
:1028F000055001208DF80400C0020090694603488D
:1029000000F078FC7CBD0000000002400014024092
:1029100010B5FFF797FF4FF40061034800F0C1FCCA
:10292000BDE8104000F002B80014024010B586B0B7
:102930000121080303F07AF90020ADF8100001210D
:10294000ADF80C100221ADF80A100721ADF81410F3
:10295000ADF80800ADF80400ADF812004FF4827035
:10296000ADF806004FF40070ADF80E00054C01A95B
:10297000204604F016FC0121204604F0FBFB06B0C3
:1029800010BD0000003001402DE9F0410746194C10
:1029900040F2FF752560184E04E02068401E20605C
:1029A000206858B10221304604F0F0FB0028F4D032
:1029B0003946304604F0F3FB256009E0BDE8F041FC
:1029C0000120FFF7ADBE2068401E2060206858B18E
:1029D0000121304604F0DAFB0028F4D0304604F040
:1029E000DCFBC0B2BDE8F081BDE8F0410220FFF79A
:1029F00097BE000008030020003001402DE9F04799
:102A000006460D46E8B24142CFB2140B02F0FF0970
:102A10004FF48058002812D0E8B24042C0B205EB13
:102A2000000A34B3D01B80B2040B00F0FF093A4611
:102A30002946304600F04CF855463E4439E074B91A
:102A400029463046BDE8F04700F042B842462946E4
:102A5000304600F03DF805F5805506F58056641EB9
:102A6000E4B2F3D24A4629463046BDE8F04700F0CA
:102A70002FB8B9450ED9A9EB0700C4B23A4629468A
:102A8000304600F025F85146F0192246BDE8F047DF
:102A900000F01EB829463046BDE8F04700F018B8EF
:102AA00042462946304600F013F805F5805506F5F4
:102AB0008056641EE4B2F3D2B9F1000F06D04A4644
:102AC00029463046BDE8F04700F002B8BDE8F0877F
:102AD0002DE9F84F07460C461546002600F0CAF9C6
:102AE0004FF40068DFF8809033E004F0FF0AC4F38D
:102AF000072BC4F307400090761C4FF480508542AA
:102B000003D9054619A005F0EDFD012E04D0F0B261
:102B1000012801D0200517D14146484600F0C1FBED
:102B200000F080F900F0A6F94146484600F0B7FBF6
:102B30000220FFF729FF0098FFF726FF5846FFF70E
:102B400023FF5046FFF720FF3878FFF71DFF7F1C5B
:102B5000641C6D1EADB2C8D24146484600F0A1FBD0
:102B6000BDE8F84F00F05EB9001402403C3C2D4631
:102B70004C4153482D4552524F522D3E3E2053500A
:102B8000495F464C4153485F5061676557726974AD
:102B90006520746F6F206C61726765210A00000008
:102BA0008000A0F1C040002904D0016841F001017B
:102BB000016070470168024A1140016070470000DF
:102BC000FEFF0F0070B501688900A1F1C0410B68DC
:102BD000344A1340D0E901242243D0E903452C4371
:102BE00022434469224384692243C4692243046A1C
:102BF0002243446A2243846A2243C46A2243046B08
:102C000022431A430A608168082907D101688900B4
:102C1000A1F1C0410A6842F040020A600168491C03
:102C20008A00A2F1C042116801F04044416BD1E931
:102C3000003543EA05138D688E892D0245EA064565
:102C40002B430D8A43EA05530D7D896943EA0563E9
:102C50000B4323431360C16AB1F5804F08D000686D
:102C60006FF070418000A0F1C040C0F8041170BD49
:102C700001688900A1F1C041D1F804210A4B1A4032
:102C8000806BD0E9003443EA041384688589240208
:102C900044EA05448069234303431343C1F80431E4
:102CA00070BD00008000F7FF0000F0CF2DE9FC4769
:102CB0000E460024002700970197574D4FF0080A51
:102CC000C5F800A0102068604FF04009C5F80890D2
:102CD000EF604FF48068C5F81080284603F0FAFBD7
:102CE0001020FEF7ABFA002832D14C4800890004CE
:102CF000286037206860C5F80890EF60C5F810803C
:102D0000284603F0E7FB3720FEF798FA00281FD18A
:102D1000411E05F114000160C0F804A0302181605B
:102D20000221C16007610121416103F057FB2F605F
:102D300033206860C5F80890EF60C5F81080284619
:102D400003F0C8FB3320FEF779FA0546280001D0CE
:102D5000BDE8FC874FF4001A6F46DFF8C48040F2EC
:102D60002A6908E0504603F063FB20B103F0ACFB96
:102D700047F82400641CD8F8000010EA090FF1D0CD
:102D8000082003F055FB20B1082003F00FFB0420BE
:102D9000DEE7022003F04CFB20B1022003F006FB2B
:102DA0000220D5E7202003F043FB20B1202003F0D0
:102DB000FDFA0620CCE74FF40074204603F038FB00
:102DC00020B1204603F0F2FA0720C1E740F2FF509D
:102DD00003F0ECFA00980099000601F47F4140EA04
:102DE0000120009901F47F0140EA1120009940EA96
:102DF0001160706001980199000601F47F4140EA7A
:102E00000120019901F47F0140EA1120019940EA73
:102E10001160306028469BE7184F00202C030020EB
:102E2000342C014070B5114E4FF4006529463046F0
:102E300000F035FA0520FFF7A7FDFFF7FFFC0C4C6B
:102E4000681E2060FFF7FAFCC00708D02068401E0B
:102E5000206020680028F5D10320FFF761FC294697
:102E60003046BDE8704000F01CBA0000001402407B
:102E70000803002070B5084D4FF400642146284631
:102E800000F00DFA0620FFF77FFD21462846BDE839
:102E9000704000F006BA00000014024010B500F0C7
:102EA00004F8BDE8104000F023B83EB504460D46D6
:102EB0000121084602F09EFE0194ADF8005000206A
:102EC000ADF80800ADF802004FF080446946204696
:102ED00005F06CF80121204604F0EEFE01221146B7
:102EE000204605F02FF80121204604F0EBFE3EBD00
:102EF00008B54FF4E06002F01BFE1C208DF80000C6
:102F000000208DF8010003208DF8020001208DF8CB
:102F10000300684602F0D8FD08BD10B500F004F8C3
:102F2000BDE8104000F024B83EB504460D4601212E
:102F3000022002F05FFE0194ADF800500020ADF8D1
:102F40000800ADF80200094C6946204605F02EF84D
:102F50000121204604F0B0FE01221146204604F073
:102F6000F1FF0121204604F0ADFE3EBD000400400B
:102F700008B54FF4E06002F0DBFD1D208DF8000085
:102F800000208DF8010003208DF8020001208DF84B
:102F90000300684602F098FD08BD70B504460D4672
:102FA00000F046F829462046BDE87040AFF30080A7
:102FB00070B586B004460D460121042002F01AFEC9
:102FC0001A4E304604F08AFE03A805F02DF804944A
:102FD000ADF80C500024ADF81440ADF80E4003A934
:102FE000304604F0E3FF0A231A460321304604F07A
:102FF0004BFF684604F09EFFADF808406946304636
:1030000004F067FF01221146304604F09BFF0121C6
:10301000304604F051FE47F6FF71304604F09CFF45
:103020000121304604F04EFE06B070BD000800409D
:1030300008B51E208DF8000000208DF80100032047
:103040008DF8020001208DF80300684602F03CFD77
:1030500008BD00007FB504460D460121082002F09E
:10306000C9FD0294ADF804500024ADF80C40ADF851
:1030700006400E4D01A9284604F098FF0122114692
:10308000284604F05FFF32218DF800108DF80140D2
:1030900003218DF8021001218DF80310684602F01B
:1030A00013FD0121284604F00DFE7FBD000C0040F9
:1030B0002DE9F0470F46002A70D00C2A6ED806681A
:1030C00044688568C168D0F81090D0F814A0BBB3EC
:1030D00001EB0208B8F1180F19D3A8F11808012C58
:1030E00016D0032C14D0052C12D0072C10D0082C8D
:1030F0000ED00A2C0CD0042C11D0062C0FD0092C89
:103100000DD00B2C0BD0022C10D00C2C1CD066E058
:103110001F2D01D26D1C62E00125641C5FE01E2D95
:1031200001D26D1C5BE00125641C58E01D2D08D008
:103130001C2D03D1F0B202F039F910B16D1C4EE034
:103140000AE0012503244AE01F2D01D26D1C46E050
:1031500001250124761C42E0914202D3A1EB020832
:103160003DE0A1EB020808F11808022C17D0042C4E
:1031700015D0062C13D0082C11D0092C0FD00B2CF5
:103180000DD0052C12D0072C10D00A2C0ED00C2CF0
:103190000CD0032C11D0012C1AD020E028E0012DF6
:1031A00001D96D1E1BE01F25641E18E0012D01D9F9
:1031B0006D1E14E01E25641E11E0012D03D1F0B236
:1031C00002F0F4F808B16D1E09E01C25022406E0A7
:1031D000012D01D96D1E02E01F250C24761E3E60D4
:1031E0007C60BD60C7F80C80C7F81090C7F814A0C9
:1031F000BDE8F0872DE9F041002201274FF0030CD4
:1032000007FA02F50B682B40AB422CD1066853003D
:103210000CFA03F4A64306600E79D0F800809E40B5
:1032200046EA080606600E79012E01D0022E12D160
:103230008668A64386604E79D0F808809E4046EAAC
:10324000080686604668AE43466045688E799640BB
:10325000B6B235434560C568A543C560CC799C408E
:10326000C3681C43C460521C102AC9D3BDE8F08156
:1032700010B54B07DB0E9A40C90800EB8100016ACC
:103280000F249C40A1430162016A1143016210BDF9
:103290000246002012690A4200D001207047418393
:1032A000704701837047000010B590B00121880578
:1032B00002F084FC1F4C2046FEF778F92046FEF70A
:1032C00017FA0028FAD14FF0206001901A480290B6
:1032D0001A480390002004904FF400710591069065
:1032E000490007910890099089100A9109020B91F1
:1032F0000C9003210D910E900F9001A92046FEF72E
:1033000043FA00F01DF8012218212046FEF722FAA8
:1033100001212046FEF73EF92046FEF7E9F9012893
:10332000FAD1054801224021001F05F06DF810B0C8
:1033300010BD00002864024004140140644C0020C9
:1033400008B54FF4C06002F0F3FB39208DF800009F
:1033500001208DF8010000218DF802108DF8030086
:10336000684602F0B1FB08BD70B586B0012120208F
:1033700002F05CFC0121042002F020FC1E4E082219
:1033800007213046FFF774FF082206213046FFF779
:103390006FFF00248DF8164001208DF817000225DC
:1033A0008DF81450402104918DF8155004A9304631
:1033B000FFF720FF8DF814508020049004A93046B8
:1033C000FFF718FF4FF416500090ADF80440ADF829
:1033D0000640ADF80840ADF80C400C20ADF80A00EE
:1033E000064C6946204605F05BF80121204604F0B2
:1033F000FFFF06B070BD000000080240001401404D
:10340000FEB50020009001900290224C224F2078BF
:1034100000EB400007EB40008088401C010A8DF85B
:1034200000108DF801000A226946BA2000F054F815
:10343000002801DA0020FEBD9DF802009DF803106F
:1034400000EB012085B29DF804009DF8051000EB0B
:10345000012086B2207800EB400007EB4000808816
:10346000801D010A8DF800108DF8010003226946C5
:10347000BA2000F031F8002801DA0020FEBD9DF8E6
:10348000020000F003033246294604A005F02AF9A1
:103490000120FEBD6C030020904B04083C3C2D47EE
:1034A00054502D494E464F2D3E3E20585F4D4158B9
:1034B000203D2025642C20595F4D4158203D20257A
:1034C000642C2054524947474552203D20307825EE
:1034D0003032780A00000000F0B587B00E4617467B
:1034E0004FF0FF3500240021ADF806108DF80400E0
:1034F0000221ADF8081003960121ADF812108DF8E5
:103500001000B81EADF81400B01C069007E00221B0
:1035100001A800F035FD0546022D02D0641C052CE3
:10352000F5DB052C08DB707831782B4640EA012169
:10353000BA1E034805F0D6F807B02846F0BD0000D3
:10354000A051040838B5002000901248007800EB24
:103550004001114800EB41008088010A8DF80010FD
:103560008DF801000024651E0DE003226946BA2093
:10357000FFF7B2FF45B2002D01DD284638BD2146D8
:1035800006A005F0AFF82046641CE4B20528ECD391
:10359000284638BD6C030020904B04083C3C2D4766
:1035A00054502D4552524F522D3E3E2047545020EC
:1035B0006932632074657374206661696C65642088
:1035C00074696D652025642E0A000000FEB50E4664
:1035D00017464FF0FF3500240021ADF802108DF89A
:1035E0000000ADF80470029607E00121684600F083
:1035F000C7FC0546012D02D0641C052CF5DB052C0B
:1036000008DB707831782B4640EA0121BA1E024867
:1036100005F068F82846FEBDF051040810B500F02A
:10362000A6FCFFF78FFF0446002C04DA06A005F085
:1036300059F8204610BD00F071F800F07DFBFFF74F
:10364000DFFE002010BD00003C3C2D4754502D45AE
:1036500052524F522D3E3E2049324320636F6D6DD2
:10366000756E69636174696F6E204552524F5221C5
:103670000A0000002DE9F047002801DB002902DAEA
:103680000020BDE8F087224C234D94F80090214C97
:10369000B5F80080B4F800C0A8EB0005ACEB00045E
:1036A000A8EB0106ACEB0107641E6D1E761E7F1EA3
:1036B000B9F1080F28D2DFE809F004070A0D10134A
:1036C00016191060196013E01160186010E01460A2
:1036D00019600DE011601D600AE010601E6007E0D7
:1036E0001760186004E014601E6001E017601D6040
:1036F0001068002806DB1968002903DB604501DA41
:10370000414503DB0020BCE70020BAE70120B8E711
:1037100044030020460300204803002030B585B054
:103720005048C1688068CDE90301082203A9BA2086
:10373000FFF7D2FE0446200005D54BA004F0D2FFCF
:10374000204605B030BD9DF80E10524D352918D0D9
:103750009DF81120002A37D0372A51D09DF8133018
:103760009DF81200CDE9002302909DF810309DF8DD
:103770000F2049A004F0B6FF9DF80E00392860D054
:103780006DE09DF813209DF81130CDE900329DF8D1
:10379000120002909DF810309DF80F204AA004F00E
:1037A000A1FF9DF80E00352859D19DF80F0036284D
:1037B00055D19DF81000382851D19DF811003828B6
:1037C0004DD1022028704AE09DF812009DF8132088
:1037D000CDE900209DF810309DF80F2046A004F0A0
:1037E00081FF9DF80E00392839D19DF80F0031284E
:1037F00035D19DF81000312831D1012028702EE0FC
:103800009DF813309DF81200CDE9002302909DF839
:1038100010309DF80F2020A004F064FF9DF80E00EA
:1038200039281CD19DF80F00312818D19DF81000BF
:10383000342814D19DF81100372810D103202870A6
:103840000DE09DF80F00312809D19DF810003528B2
:1038500005D19DF81100372801D104202870204699
:103860006FE70000804B04083C3C2D4754502D4529
:1038700052524F522D3E3E20475450207265616493
:103880002076657273696F6E206661696C65640A83
:10389000000000006C0300203C3C2D4754502D4993
:1038A0004E464F2D3E3E2049433320566572736984
:1038B0006F6E3A2025632563256325635F253032CB
:1038C00078253032780A00003C3C2D4754502D4971
:1038D0004E464F2D3E3E2049433120566572736956
:1038E0006F6E3A2025632563256325635F2530329B
:1038F00078253032780A00003C3C2D4754502D4941
:103900004E464F2D3E3E2049433220566572736924
:103910006F6E3A202563256325635F253032782555
:103920003032780A0000000000F070B82DE9F8434A
:1039300004460D461646B1B2A8B204F089FB0B4FFF
:1039400009480090A7F10A0833B22AB237F91410D7
:1039500038F914001E461546FEF7F2F928F81450FF
:1039600027F81460BDE8F88398030020880300203E
:1039700070B50446074EA6F10A0536F8141035F85E
:10398000140004F0F5FC4FF0FF3025F8140026F881
:10399000140070BD88030020F8B504460D46134E90
:1039A0003078002803D1FEF7B3FF01203070280AD9
:1039B000E9B2A138C0EB001202EB401001EB40006D
:1039C000A1388002C11700EB5170C0100849802255
:1039D00001442046FEF7BEFEE0780090A3786278AE
:1039E000217804A004F07EFE0020F8BD68030020CA
:1039F00000604E0025303278202530327820253086
:103A0000327820253032780A000000002DE9F04F8E
:103A100097B059A00068169028210DF12C0A0CA827
:103A2000FCF758FC554D28680B904FF0BA0B00245A
:103A30000C220BA95846FFF74FFD0146002905DA75
:103A40004FA004F04FFE17B0BDE8F08F9DF82E0098
:103A5000DFF85C91A9F10C0808B3010670D500F0FD
:103A60000F06052E7DD8012E14D9242101AF381D53
:103A7000FCF730FC68680190701E022101EBC00267
:103A8000054601A95846FFF727FDEA00B91C0EA814
:103A9000FCF707FCB8F80200B04226D829E0B8F8D5
:103AA000020028B9CFE719F80400FFF761FF641C92
:103AB000B8F802008442F6DB0020A8F80200C2E752
:103AC0000025771E0EE00AEBC500C07800F00F015C
:103AD00019F80400884207D0BD4201DBFFF748FF18
:103AE0006D1CEDB2B542EED3641CB8F802008442FE
:103AF000E6DB36B3002420E00AEBC400C17801F015
:103B00000F0509F804500179427941EA022C8179C4
:103B1000C27941EA0221027A407A42EA0027244B24
:103B200060461B1F1A1FFFF7A5FD28B1D8E9011237
:103B30003B462846FFF7FAFE641CB442DCDB0EE08D
:103B40000FE0B8F8020050B1002404E019F80400B6
:103B5000FFF70EFF641CB8F802008442F6DBA8F8F9
:103B60000260032216A95846FFF730FD002899DAB3
:103B700010A004F0B7FD66E7814E0000804B0408FA
:103B80003C3C2D4754502D4552524F522D3E3E2025
:103B9000493243207472616E736665722065727279
:103BA0006F722E206572726E6F3A25640A200A00C9
:103BB000780300203C3C2D4754502D494E464F2D54
:103BC0003E3E2049324320777269746520656E64F9
:103BD0005F636D64206572726F72210A00000000DD
:103BE00001A004F07FFDFEE7486172642046617524
:103BF0006C740D0A00000000002904D0018841F413
:103C0000806101807047018821F4806101807047E4
:103C1000034600209A8A1B8B1B041A4322F07F4222
:103C2000914300D101207047002904D0018841F060
:103C3000010101807047018821F001010180704776
:103C40002DE9FC410121462001F0B8FF0121880344
:103C500001F0ECFF1020009001258DF804500224A3
:103C60008DF805408DF8065000268DF80760144F3A
:103C700069463846FFF7BEFA20210091694638466A
:103C8000FFF7B8FAE00100908DF804508DF8054078
:103C90008DF806608DF8074069460A48FFF7AAFAD2
:103CA000E00200908DF804508DF805408DF8066014
:103CB0008DF8074069460448FFF79CFABDE8FC818F
:103CC00000080240001802400004024030B585B0F0
:103CD0004FF48055009500248DF8044002208DF8A3
:103CE00005008DF8074069461248FFF783FA0C215A
:103CF000012003F0FFFC03958DF8104008208DF89B
:103D000011008DF8124003A8FEF756FC4FF4C06076
:103D100001F00EFF28208DF8080001208DF8090021
:103D20008DF80A008DF80B4002A801F0CDFE05B019
:103D300030BD00000004024030B585B04FF480551E
:103D4000009500248DF8044002208DF805008DF8C0
:103D5000074069461248FFF74DFA0C21012003F095
:103D6000C9FC03958DF8104008208DF8110001243E
:103D70008DF8124003A8FEF71FFC4FF4C06001F05D
:103D8000D7FE28208DF808008DF809408DF80A40EC
:103D90008DF80B4002A801F097FE05B030BD000081
:103DA00000040240002904D0018841F480710180A0
:103DB0007047018821F4807101807047002904D088
:103DC000018841F4007101807047018821F400717D
:103DD000018070477FB504460D46A08820F03F065D
:103DE000684601F03FFF02982749B0FBF1F189B224
:103DF0000E43A680228822F001022280234B2A68EB
:103E00009A4209D85200B0FBF2F080B2042800D2E6
:103E10000420491C218423E0EB88A3F53F46FF3EA4
:103E20000BD002EBC20303EB0212B0FBF2F080B244
:103E300040F48040020506D007E002EB4202B0FBEE
:103E4000F2F080B2F6E740F0010040F400404FF499
:103E5000967251434FF47A72B1FBF2F1491C2184FE
:103E6000A083208840F00100208020884FF6F531A3
:103E70000840A9886A89114301432180A8892989BA
:103E8000084320817FBD000040420F00A086010052
:103E900070B506460D4614460AF0CEFD46F0010008
:103EA0000AF09EFD0AF0F8FD88B10AF0E1FD01205C
:103EB00070BD012C03D10AF059FD0AF0D9FD0AF0BA
:103EC0006DFD05F8010B641EA4B20AF02DFD002C57
:103ED000EFD10AF0CDFD002070BD008AC0B270475E
:103EE0002DE9FC474FF48056009601208DF8040020
:103EF00002248DF8054000258DF806508DF8074006
:103F0000124F69463846FFF775F9DFF844904FF4D1
:103F1000807841464846FFF7C2F9DFF838A050469E
:103F2000FDF7B8FC41464846FFF7BBF95046FDF7A0
:103F3000B1FC00968DF804508DF805408DF80750BF
:103F400069463846FFF756F9BDE8FC870004024091
:103F500000180240FFFF0F00002A02D041F00101CB
:103F600001E001F0FE01018270470182704710B547
:103F7000FFF766FEFFF7B4FFBDE81040FFF7DCBEB9
:103F800070B505460E460024002014E004EB440002
:103F900005EB80039978C90706D09A8815F82000A8
:103FA0009968FFF775FF05E01A7915F82000996800
:103FB00000F008F8641C08B9B442E7D1002800D129
:103FC000204670BD2DE9F04180460E4615460AF0A8
:103FD0004FFD00244FF47A770AF02EFD40460AF098
:103FE000FFFC0AF059FD18B1641CA4B2BC42F3D323
:103FF000BC4206D00BE030780AF0F2FC0AF04CFD2F
:1040000020B10AF035FD0120BDE8F081761C6D1E5F
:10401000EDB2F0D20AF02CFD0020F5E770B50B4CA4
:10402000002525600A48016821F44001016001680B
:1040300041F48001016065600220FDF735FC01203C
:1040400020600220FDF730FC256070BDA882404250
:10405000000402401CB50121022001F0AFFD4FF425
:104060004060009001248DF8044000208DF8060087
:1040700003208DF805008DF8074069460348FFF7D7
:10408000B9F80348046044601CBD0000000402400D
:10409000A882404270B50B4C002525600A48016893
:1040A00021F440010160016841F4800101600126B2
:1040B00066600220FDF7F8FB26600220FDF7F4FBA6
:1040C000256070BDA8824042000402402DE9F047FF
:1040D000814600241548016821F44001016001680F
:1040E00001600025124E00274FF00108C6F8A872A3
:1040F0000220FDF7D9FBC6F8A8826006040ED6F8A8
:104100002C0208B1641CE4B20120FDF7CDFB6D1C4C
:10411000EDB2082DEAD3B9F1000F04D0FFF77EFF0E
:104120002046BDE8F087FFF7B5FFF9E7000402403D
:10413000008040422DE9F04105461448016821F411
:1041400040010160016841F480010160104E4FF0B0
:104150000008C6F8A88200240127E809C6F8AC02C6
:104160006806050E0220FDF79FFBC6F8A872022024
:10417000FDF79AFBC6F8A8820220FDF795FB641CA8
:10418000E4B2082CE9D3BDE8F0810000000402404D
:104190000080404270B50B48016821F44001016085
:1041A000016841F480010160074C012060602060DB
:1041B0000420FDF779FB002565600420FDF774FB02
:1041C000256070BD00040240A882404210B50C4832
:1041D000016821F440010160016841F4800101603F
:1041E000084C0020206060600420FDF75DFB01208A
:1041F00020606060BDE810400420FDF755BB000062
:1042000000040240A882404270B5002411480168B1
:1042100021F440010160016801600F4D0126C5F8DD
:10422000AC620120FDF740FBC5F8A8620120FDF754
:104230003BFB07E0641CE4B2FA2C03D9FFF7C6FF8E
:10424000012070BDD5F82C020028F3D1C5F8A802D2
:1042500070BD00000004024000804042054A4FF457
:104260000071002802D01046FFF71BB81046FFF778
:1042700016B800000014024070B514461D462B46C7
:10428000224600F017FD044904FB05F00989BDE84A
:10429000704000F09FBB00004403002001B502E025
:1042A0000098401E009000980028F9D108BD000039
:1042B0002DE9F041154620231A4600F0FBFC2C2086
:1042C0004FF0D044208029461548FFF765FB0021B8
:1042D000134E144F250116F82100030206EB81004E
:1042E00042781A431202837813431A0290F803C0EB
:1042F0004CEA020C0020FA883B8925FA00F818EAFB
:104300000C0F01D0628000E06380401CC0B2202806
:10431000F3D3491CC9B22029DDD3BDE8F0810000E8
:1043200044930020440300202DE9F043203A97B243
:10433000184EF568AA88EB8802FB03F44FEAE47C88
:1043400004EB5C74C4F3C7042D6807FB045500F04C
:10435000B1FC2C204FF0D04CACF80000002115E04F
:104360000020F3883289802715F8018027FA00F9A8
:1043700018EA090F02D0ACF8023001E0ACF80220D4
:10438000401CC0B20828EFD3491CC9B2A142E7D3F0
:10439000BDE8F08344030020F0B505460E46002436
:1043A0000F4F19E0F8687B8881882144994203D92E
:1043B0000024C18829448DB2C088B9882844884225
:1043C00001D90024002529462046FFF7ADFF761CC1
:1043D000F8688088204484B23278002AE2D1F0BDA7
:1043E000440300202DE9F04105460E4600241F4FEE
:1043F00037E07E2A1AD8F8687B8881882144994260
:1044000003D90024C18829448DB2C088B9882844C2
:10441000884201D90024002529462046FFF784FF61
:10442000F8688088204484B2761C1AE0798804F108
:104430002000884202D900242035ADB2B98805F1A8
:104440002000884201D9002400253088010201EBB8
:10445000102082B229462046FFF72AFF2034A4B25A
:10446000B61C3278002AC4D1BDE8F0814403002094
:104470002DE9F04104460D4616461F4F37E07E2ACF
:104480001AD8F8687B8881882144994203D900248E
:10449000C18829448DB2C088B9882844884201D98E
:1044A0000024002529462046FFF73EFFF868808853
:1044B000204484B2761C1AE0798804F120008842F6
:1044C00002D900242035ADB2B98805F12000884218
:1044D00001D9002400253088010201EB102082B2AE
:1044E00029462046FFF7E4FE2034A4B2B61C3278F9
:1044F000002AC4D1BDE8F081440300202DE9FE4F1D
:104500000446DDE90C5A0F46904699464646DFF8C8
:10451000C0B057E02F49A2194B889A4203D9002412
:1045200007EB090297B2898807EB09028A4201D991
:104530000024002780281FD946462888010201EB65
:10454000102081B22448FFF727FA234A0121CDE940
:104550000028029120214B463246084600F0FCFC20
:10456000CDE900BA4B4632463946204600F038F8CD
:10457000A01984B2AD1C25E04FEA58062038C1B21C
:1045800016480023C288B0F804C0006802FB0CF291
:104590004A43D11702EB5171CDE9018300EBE100F1
:1045A00000904B4632462021102000F0D5FCCDE98A
:1045B00000BA4B4632463946204600F011F8A019A1
:1045C00084B26D1C28780028A4D1BDE8FE8F0000BD
:1045D000444F00204403002044930020580300204F
:1045E0002DE9F0431746DDE90748994600254B467B
:1045F0003A4600F05FFB2C204FF0D04210800A4B6F
:104600000EE000201989DE8807E014F801CBC445CC
:1046100001D1518000E05680401CB842F5D36D1C9A
:104620004D45EED3BDE8F083440300202DE9FF4F54
:1046300085B007468846002416B20320A0EB42004E
:104640000FFA80F994E00898E8B3254642E038195B
:1046500008EB050A04901FFA8AF180B200F068FCAA
:104660001FFA8AF1A7EB040A1FFA8AF000F060FC37
:1046700008EB040081B2A7EB050B03901FFA8BF047
:1046800000F056FCA8EB040081B202901FFA8BF0F8
:1046900000F04EFCA8EB050B1FFA8BF11FFA8AF015
:1046A00000F046FC04981FFA8BF180B200F040FC49
:1046B000029807EB050A81B21FFA8AF000F038FC75
:1046C000039881B200E008E01FFA8AF000F030FCA5
:1046D0006D1C2DB2B542BADD37E0381908EB06057E
:1046E0000190A9B280B200F023FCA7EB040AA9B2A2
:1046F0001FFA8AF000F01CFC08EB040081B2A7EB63
:10470000060B00901FFA8BF000F012FCA8EB0405DA
:10471000A9B21FFA8BF000F00BFCA8EB060B1FFAF6
:104720008BF11FFA8AF000F003FC01981FFA8BF15D
:1047300080B200F0FDFBA9B2BD19A8B200F0F8FBF1
:10474000009881B2A8B200F0F3FB641C24B2B9F166
:10475000000F05DA09EB8400801D0FFA80F907E0ED
:10476000A01B09EB80000A300FFA80F9761E36B2E2
:10477000B4427FF768AF09B0BDE8F08F2DE9FE4F76
:1047800000250026171AA3EB010882468B46681EF7
:10479000002F03DD4FF00101019107E003D14FF03D
:1047A0000001019102E00190C7F10007B8F1000F8C
:1047B00003DD4FF00100009007E003D14FF000004F
:1047C000009002E00090C8F10008474501DD3C463A
:1047D00000E044464FF00009601C029017E0594683
:1047E000504600F0A5FB3D444644A54204DD2D1B88
:1047F000019850441FFA80FAA64204DD361B009847
:1048000058441FFA80FB09F101091FFA89F902983F
:104810008145E4DDBDE8FE8F2DE9FF5F84460E9FF4
:104820000E464FF00008A2EB0C00002801DCACEBB8
:10483000020000B2991B002900DCF11A09B20FFA3C
:104840008CF435B24FF0FF39624504D34FF0010AC2
:104850004FF0010B01E0CA46CB46B34203D301221D
:104860000392029203E0CDF80C90CDF808908842B4
:104870000ADB4FF0000A0022029200EBD0725210C5
:1048800016B20191814638E04FF0000B00220392EE
:1048900001EBD172521016B2019089462DE01949F0
:1048A000E0190988884224DCE01B22D41649E81963
:1048B000098888421DDCE81B1BD401207A00009087
:1048C000A9B2A0B2134600F021F80198304406B214
:1048D0004E4508DBA6EB090006B204EB0A0004B261
:1048E0000398284405B204EB0B0004B20298284454
:1048F00005B208F101080FFA88F8C845CFDDBDE818
:10490000FF9F000046030020480300202DE9F041EE
:10491000064606980F4614461D4600280DD02B4625
:1049200022463946304600F0C5F9134904FB05F02C
:10493000C988BDE8F04100F04DB83444641EA2B20D
:104940003B4639463046FFF719FF3D446D1EABB27A
:10495000A2B2A9B23046FFF711FFABB232463946D8
:104960003046FFF70BFFABB2A2B2A0B23946BDE8AA
:10497000F041FFF703BF00004403002000B597B0EB
:104980000121084601F028F9042101910B20039030
:1049900088060790002002900490059006900891E8
:1049A000099008210A9110210B910C900E900F9004
:1049B00010900902119112901390149001A8159073
:1049C000169008A8FEF7FEF801210420FEF7E8F88B
:1049D00017B000BD10B500222C244FF0D0431C802E
:1049E00001E05980521C8242FBD310BD2DE9FC5FCF
:1049F0000121782001F0E2F84FF000088DF80680E0
:104A000001248DF8074002258DF8045003208DF80D
:104A100005004FF48049CDF8009069467648FEF7CE
:104A2000E9FB0C220E217448FEF722FC4FF4004AE9
:104A3000CDF800A069467048FEF7DCFB0C220F2180
:104A40006D48FEF715FC009469466B48FEF7D2FBF3
:104A50000C2200216848FEF70BFC00956946664869
:104A6000FEF7C8FB0C2201216348FEF701FC802001
:104A7000009069466148FEF7BDFB0C2207215F48A4
:104A8000FEF7F6FB4FF4807BCDF800B069465B483B
:104A9000FEF7B0FB0C2208215848FEF7E9FB66023E
:104AA000009669465548FEF7A5FB0C22092153489C
:104AB000FEF7DEFBA702009769465048FEF79AFB17
:104AC0000C220A214D48FEF7D3FBE0020090694614
:104AD0004A48FEF78FFB0C220B214848FEF7C8FB23
:104AE0002003009069464548FEF784FB0C221146DE
:104AF0004248FEF7BDFB6003009069463F48FEF761
:104B000079FB0C220D213D48FEF7B2FBCDF8009059
:104B100069463A48FEF76EFB0C220E213748FEF735
:104B2000A7FBCDF800A069463448FEF763FB0C22D2
:104B30000F213248FEF79CFBCDF800B069462E48A5
:104B4000FEF758FB0C2208212B48FEF791FB00963C
:104B500069462948FEF74EFB0C2209212648FEF73C
:104B600087FB009769462448FEF744FB0C220A2184
:104B70002148FEF77DFB1020009069461E48FEF795
:104B800039FB0C2204211C48FEF772FB2020009008
:104B900069461948FEF72EFB0C2205211648FEF740
:104BA00067FB0097164F69463846FEF723FB0C2239
:104BB0000A213846FEF75CFB0094124F69463846DE
:104BC000FEF718FB0C2200213846FEF751FB8DF84A
:104BD00004408DF806808DF807408DF80550802040
:104BE000009069463846FEF705FB00966946384650
:104BF000FEF700FBBDE8FC9F000C024000100240E5
:104C0000001802400014024010B500F08DF9BDE814
:104C1000104000F063B9000010B5072829D8174AE2
:104C20001070C4074FF4F0714FF4487322D05380D2
:104C3000918036234FF0D0410B80400148802A20DC
:104C400008800020488048805088401EC0F3072319
:104C50004B80C0B248802B200880002048804880CC
:104C60009088401EC0F307224A80C0B248802C20A2
:104C7000088010BD51809380DBE7000044030020D2
:104C800010B5FFF7B3FEFFF779FE00F037F900F03B
:104C90002DF8074C2078FFF7BFFF0021A38862881A
:104CA0000846FFF7E9FABDE810400120FFF7D6BA41
:104CB0004403002030B52A254FF0D0442580050A52
:104CC0006580C5B265801044401E020A6280C0B291
:104CD00060802B202080080A6080C8B26080C818DD
:104CE000401E010A6180C0B2608030BD10B5FF2057
:104CF0004FF0D04420806080982060800620608043
:104D0000BA20208060206080BC202080012060804C
:104D10000E20608061206080FB2060801020608019
:104D200060800B2060800F2060802E2060807320C8
:104D30006080FF20608060800E20608060800020A6
:104D40006080032060806620608063206080012096
:104D50006080002060806080BD2020800120608015
:104D60002320608045206080672060800120608073
:104D7000232060804520608067206080BE202080E6
:104D80000020608021206080AB20608060206080F7
:104D9000222060806080608060806080C7202080EA
:104DA0006F206080ED2020807F2060800F20608059
:104DB00000206080C0202080372060800B20608031
:104DC0000A206080FC2020800A206080DF20208074
:104DD0000020608060806080608060802020608033
:104DE000F320208074206080B42020800020608028
:104DF00060806080F72020808A206080B120208041
:104E0000002060801220608013206080F2202080CB
:104E1000802060805B20608040206080282060804F
:104E2000C1202080172060807D2060807A206080F3
:104E300020206080E02020800020608011206080A1
:104E40001C2060800E2060800F2060800C2060801D
:104E5000C72060800620608060800A20608010206B
:104E60006080122060800A20608010206080022014
:104E7000608000206080E12020800020608012207F
:104E80006080182060800C2060800F2060800A20E5
:104E900060807720608006206080072060800A2084
:104EA00060800E2060800B206080102060801D20BC
:104EB00060801720608000206080352020800020E6
:104EC00060803A20208055206080112020804FF49F
:104ED000A040FFF7E3F92920208010BD2E214FF0DC
:104EE000D040018041884188428840886FF30A01A0
:104EF000800A41EA401040EAD220704770B5094C60
:104F000080212046FEF7CBF947F230552846FFF7BF
:104F1000C5F980212046FEF7C4F92846BDE8704057
:104F2000FFF7BCB90014024001231A46FFF7C2BEC6
:104F300010B5084C628890420AD2A288914207D2EA
:104F4000FFF7F2FFE188BDE810400120FFF742BD06
:104F500010BD0000440300202DE9F04F099F0B9D78
:104F6000040494FBF2F909F101090C0494FBF3FA2F
:104F70000AF1010A0026302866D800FB01F4002C53
:104F800062D0B4F5106F5FDC02FB03F4002C5BD041
:104F9000B4F5804F58DA2D4C41434FEAE17C4FF095
:104FA000800B01EB5C7E0DB100252FE0002514E0A5
:104FB000002117F805802BFA01FC18EA0C0F02D02B
:104FC0004FF0010C01E04FF0000C04F801CB491C3C
:104FD00089B20829EDD36D1CADB2B5EBEE0FE7DB5E
:104FE00017E0002117F805802BFA01FC18EA0C0FD6
:104FF00002D04FF0010C01E04FF0000C04F801CB9F
:10500000491C89B20829EDD36D1CADB2B5EBEE0F8A
:10501000E7DBDFF83880A8F58045002712E00024A0
:10502000310C00FB018C002107E00CEB144B9BF8CA
:1050300000B005F801B04C44491C9142F5D35644E8
:1050400015447F1C9F42EAD3BDE8F08F448F0020B7
:1050500010B500F00BF8BDE8104000F077B810B5BF
:1050600000F0FEF8BDE8104000F02CB92DE9FC413D
:105070000121084600F0A2FD1020009003248DF8C5
:10508000044000258DF8075069462D48FEF7B2F818
:105090000121022000F092FD012600968DF80440C7
:1050A0008DF80750DFF89C8069464046FEF7A2F86D
:1050B0000121022000F082FD022700978DF80440B4
:1050C0008DF8075069464046FEF794F80121042008
:1050D00000F074FD00968DF804408DF807501A4ECC
:1050E00069463046FEF786F80121042000F066FD8F
:1050F00000978DF804408DF8075069463046FEF75A
:1051000079F80121042000F059FD042000908DF869
:1051100004408DF8075069463046FEF76BF80121D0
:10512000042000F04BFD082000908DF804408DF81D
:10513000075069463046FEF75DF8BDE8FC81000087
:10514000000002400004024000080240F0B599B09F
:1051500001210D02284600F069FD0121880500F0BB
:105160002DFD3C480B903C480C9000240D940726E4
:105170000E960F94A9001091490011918800129089
:105180001395000114901594012516951794189401
:105190000A94324F0AA93846FCF7F6FA012138463C
:1051A000FCF7F8F900942804019002944FF4706021
:1051B00003906846FBF726FF04A8FBF7B4FF0494AE
:1051C0008DF814508DF815500694079408948DF8B6
:1051D0002460204C04A94C3C2046FBF73FFF0023F1
:1051E000012204212046FBF75FFF00230222082151
:1051F0002046FBF759FF0023032209212046FBF735
:1052000053FF002304220A212046FBF74DFF002311
:1052100005220B212046FBF747FF002306220C2125
:105220002046FBF741FF002307220D212046FBF714
:105230003BFF01212046FBF705FF01212046FBF73C
:10524000F5FE01212046FBF7D0FE2046FBF766FF66
:1052500019B0F0BD4C200140644E00207064024043
:105260007CB50121202000F0A9FC402000900325FE
:105270008DF8045000248DF80740114E69463046E1
:10528000FDF7B8FF0121202000F098FCB115009136
:105290008DF804508DF8074069463046FDF7AAFFA7
:1052A0000121202000F08AFC301500908DF8045078
:1052B0008DF8074069463046FDF79CFF7CBD000035
:1052C00000140240F0B599B001218D02284600F08B
:1052D000ADFC0121880500F071FC31490B91314989
:1052E0000C9100240D9403260E960F9410956800DF
:1052F0001190800012904011139040021490159468
:10530000012516951794189440020A90264F0AA971
:105310003846FCF739FA01213846FCF73BF900948E
:105320002804019002944FF4706003906846FBF7E4
:1053300069FE04A8FBF7F7FE04948DF814508DF86D
:1053400015500694079408948DF82460144C04A911
:105350004C3C2046FBF782FE00230122042120461C
:10536000FBF7A2FE0023022206212046FBF79CFE4B
:105370000023032208212046FBF796FE0121204648
:10538000FBF760FE01212046FBF750FE012120467D
:10539000FBF72BFE2046FBF7C1FE19B0F0BD000065
:1053A0004C220140240300201064024000F5FA6002
:1053B000810701D0002070474FF4C871B0FBF1F2B3
:1053C00001FB120131B16421B0FBF1F201FB1200CB
:1053D0000028F0D0012070470148C06870470000E5
:1053E0004403002001490881704700004403002065
:1053F000014AD08011817047440300200149C860F0
:1054000070470000440300200149C8807047000035
:10541000440300202DE9F041884690B0044611462F
:105420000122444806F09AFF4349087030B1014612
:1054300042A003F057F910B0BDE8F08149A003F095
:1054400051F901AB022202A93A4807F089F9BDF8E7
:105450000800A0F59A41423903D046A003F042F972
:10546000E9E74AA003F03EF901AB0C220DA931484F
:1054700007F076F90DA80DF083FE01AB282203A9F1
:105480002C4807F06DF903A80DF0BAFE049D059EA7
:10549000BDF81A0068431F30C11700EBD1604011FE
:1054A0008700B7F5707F03DD3EA003F01BF9C2E76C
:1054B000B3B2AAB241462046FFF7FCFB2C204FF0C6
:1054C000D048A8F80000BDF81A0018282ED30024F0
:1054D00026E0301B0F99401E00FB0711154806F00F
:1054E000F7FA01AB3A463A49124807F039F9002079
:1054F000DFF8DCC011E000EB40010CEB0102937817
:1055000052781CF80110DB08DB02920843EA4212D1
:1055100042EAD101A8F80210401CA842EBDB641C4F
:10552000B442D6DB034806F04CFA84E729A003F026
:10553000D9F880E78497002054030020B4F2BFAA72
:10554000CEC4BCFECAA7B0DC21B4EDCEF3B4FAC21F
:10555000EBA3BA626D70726573203D202564200D47
:105560000A000000B4F2BFAACEC4BCFEB3C9B9A6FB
:105570000D0A0000D5E2B2BBCAC7D2BBB8F6202ED6
:10558000626D7020CEC4BCFE210D0A00D5E2CAC7F0
:10559000D2BBB8F6202E626D7020CEC4BCFE0D0AC0
:1055A000000000000A20B1BECDBCC6ACCCABB4F349
:1055B000A3ACCEDEB7A8D4DAD2BABEA7C6C1C9CFD3
:1055C000CFD4CABE20283C3D333230290A00000027
:1055D000C4930020D5E2B2BBCAC7D2BBB8F63234FE
:1055E000CEBBD5E6B2CAC9AB424D50CEC4BCFEA3B9
:1055F000A10000002DE9FC410121062000F0DEFAA7
:105600004FF48075009501218DF8041000208DF86D
:1056100006008DF807108DF805000B4E69463046E0
:10562000FDF7E8FD6C010094084F69463846FDF728
:10563000E1FD29463046FDF734FE21463846FDF7A8
:1056400030FEBDE8FC81000000040240000802407A
:1056500008B56B4602224121682000F088F89DF8C9
:1056600001009DF8001040EA012000B2FBF724F889
:105670009FED0C1B53EC112BFAF7AFFF9FED0B1BAB
:1056800053EC112BFAF790FEFBF78AF800EE100AA4
:10569000DFED080A20EE200ABDEEC00A10EE100A67
:1056A00000B208BD0000000000407540A4703D0A33
:1056B000D74342400000C84210B5FEF7CBFC802122
:1056C0006B2000F0C4F81A48FCF7EEF800216B20BC
:1056D00000F0BDF8032000F087F8002000F07FF80C
:1056E000322000F09EF80021382000F0B0F80021B0
:1056F0006A2000F0ACF80021232000F0A8F88021F7
:10570000372000F0A4F8752000F014F8682801D0C4
:10571000012010BD01216B2000F099F800216C20C0
:1057200000F095F8322000F07CF8002010BD000059
:10573000A086010010B50446FEF72CFDD020FEF730
:10574000F9FCFEF761FD2046FEF7F4FCFEF75CFD78
:10575000FEF720FDD120FEF7EDFCFEF755FD002001
:10576000FEF7B4FC0446FEF731FD204610BD2DE9DE
:10577000F04106460F4615461C46FEF70BFD700627
:10578000000EFEF7D7FCFEF73FFD20B1FEF71EFD31
:105790000120BDE8F0813846FEF7CCFCFEF734FD71
:1057A000FEF7F8FC012000EB4600C0B2FEF7C2FC99
:1057B000FEF72AFD08E0012D0CD00120FEF786FC43
:1057C00020706D1EEDB2641C002DF4D1FEF7FEFCBE
:1057D0000020DEE70020FEF779FC2070F1E7C0062C
:1057E000010E1C2000F033B8C006010E1B2000F093
:1057F0002EB8BC2801D3012110E0622801D3022178
:105800000CE02A2801D3032108E0142801D3042145
:1058100004E00A2801D3052100E006211A2000F047
:1058200016B810B504464FF47A70844200D9044685
:10583000042C00D20424B0FBF4F0401EC1B21920A5
:1058400000F005F86008BDE81040FFF7D2BF70B562
:1058500005460C46FEF79EFCD020FEF76BFCFEF7DB
:10586000D3FC18B1FEF7B2FC012070BD2846FEF74C
:1058700061FCFEF7C9FC2046FEF75CFCFEF7C4FCA9
:1058800018B1FEF7A3FC012070BDFEF79FFC0020BD
:1058900070BD2DE9F04104460F4616461D46FEF741
:1058A00079FC6006000EFEF745FCFEF7ADFC20B16A
:1058B000FEF78CFC0120BDE8F0813846FEF73AFC8B
:1058C000FEF7A2FC00240BE0285DFEF733FCFEF798
:1058D0009BFC18B1FEF77AFC0120ECE7641CE4B2F3
:1058E000B442F1D3FEF772FC0020E4E7FEE7704714
:1058F00010B505220C49302001F0B0FC0A49052200
:10590000491D102001F084FC00200749491D0A5C54
:10591000C22A03D1401CC0B20528F8D3052801D003
:10592000002010BD012010BD160300202DE9F0411C
:1059300088B00121022000F041F90121102000F07F
:105940003DF92027019701258DF8085000248DF896
:105950000A408DF80B508DF80950DFF8EC8001A952
:105960004046FDF747FC402001908DF808508DF827
:105970000A408DF80B508DF8095001A94046FDF7FB
:1059800039FC102601968DF808408DF80A408DF8F4
:105990000B508DF8095001A94046FDF72BFC012161
:1059A000C80300F027F9294D062203212846FDF7F8
:1059B0005FFC062204212846FDF75AFC0622052139
:1059C0002846FDF755FC0820019002218DF80910AA
:1059D0008DF808108DF80A408DF80B4001A9284673
:1059E000FDF708FC019601A92846FDF703FC019785
:1059F00001A92846FDF7FEFB20214046FDF751FC9A
:105A0000ADF80C404FF48270ADF80E00ADF81040C8
:105A1000ADF81240ADF814406815ADF81600182026
:105A2000ADF81800ADF81A400720ADF81C00084C7E
:105A300003A9204601F0B5FB0121204601F09AFBA5
:105A400008B0BDE8F08100000010024000040240F0
:105A5000003C004008B54FF4C06000F069F8172022
:105A60008DF8000001208DF801008DF802008DF8FE
:105A70000300684600F028F808BD08B54FF4A060A0
:105A800000F056F825208DF8000001208DF8010067
:105A90008DF802008DF80300684600F015F808BD87
:105AA00008B54FF4A06000F043F834208DF80000F2
:105AB00001208DF801008DF802008DF80300684682
:105AC00000F002F808BD000030B50F23C2780125B0
:105AD0000178002A1FD0154A126802F4E062C2F56C
