:020000040800F2
:1000000030040020A1010008CF0B00083D0B0008C0
:10001000CD0B0008030700083D1100080000000098
:10002000000000000000000000000000B50D000806
:100030000507000800000000BF0C00089D0E000826
:10004000BB010008BB010008BB010008BB010008A0
:10005000BB010008BB010008BB01000875080008CF
:100060008D080008BD080008D5080008BB0100087D
:10007000BB010008BB010008BB010008BB01000870
:10008000BB010008BB010008BB010008BB01000860
:10009000BB010008BB010008BB010008ED08000817
:1000A000BB010008BB010008BB010008BB01000840
:1000B000BB010008BB010008BB010008BB01000830
:1000C000BB010008BB010008BB010008BB01000820
:1000D000BB010008510F00087D0F0008A90F0008A0
:1000E0006D080008BB010008BB010008BB01000847
:1000F000BB010008BB010008BB010008BB010008F0
:10010000BB010008BB010008BB010008BB010008DF
:10011000BB010008BB010008BB010008BB010008CF
:10012000BB010008BB010008BB010008BB010008BF
:10013000BB010008BB010008BB010008BB010008AF
:10014000BB010008BB010008BB010008BB0100089F
:10015000BB010008BB010008BB010008BB0100088F
:10016000BB010008BB010008BB010008BB0100087F
:10017000BB010008BB010008BB010008BB0100086F
:10018000BB010008BB010008DFF810D000F076FAD0
:1001900000480047D91A0008AFF30080300400205F
:1001A0000648804706480047FEE7FEE7FEE7FEE711
:1001B000FEE7FEE7FEE7FEE7FEE7FEE7E10E0008EA
:1001C000890100082DE9FE4F81EA030404F0004490
:1001D00021F0004100944FF0000B23F0004350EA5F
:1001E00001045ED052EA03045BD0C3F30A54C1F3A6
:1001F0000A552C44A4F2F3340194A0FB0254C1F339
:10020000130141F48011C3F3130343F4801301FB82
:10021000024400FB034E840A970A44EA815447EAE9
:100220008357A4FB076802958D0A05FB07854FEAF3
:10023000932C04FB0C542705029D4FEA065847EA0D
:100240001637B5EB08056EEB070C870E920E47EAE2
:10025000811742EA8312A7FB0201B6EB0B0164EBA4
:1002600000042B0D43EA0C335E1844EB1C50DA46B5
:100270005146E7FB0201C5F313044FEA0B3343EA8F
:1002800014534FEA0432019C43EA0603A4F10C0420
:100290000294009CCDE900B400F05CF803B0BDE826
:1002A000F08F00200146F9E730B50B4601460020EB
:1002B0002022012409E021FA02F59D4205D303FA28
:1002C00002F5491B04FA02F52844151EA2F10102A9
:1002D000F1DC30BD2DE9F05F0546002092469B46DB
:1002E00088460646814640241BE02846414647464C
:1002F000224600F0E4F953465A46C01A914110D301
:1003000011461846224600F0CBF92D1A67EB01087A
:100310004F4622460120002100F0C2F917EB0009E8
:100320004E41201EA4F10104DFDC484631462A4636
:100330004346BDE8F09F10B5141E73F1000408DABF
:10034000401C41F1000192185B411A4301D120F099
:10035000010010BD2DE9F04D92469B4611B1B1FA56
:1003600081F202E0B0FA80F22032904600F098F973
:1003700004460F4640EA0A0041EA0B0153465A463A
:10038000084313D0114653EA010019D0C8F14002C6
:10039000504600F094F905460E46504659464246EE
:1003A00000F07EF9084305D0012004E020463946DC
:1003B000BDE8F08D0020054346EAE0762C43374344
:1003C0000A986305E40AA0EB08000022FD0A44EA4B
:1003D00047540A3002D500200146E9E7010510190B
:1003E0006941DDE9084500196941BDE8F04DA2E722
:1003F0002DE9FE4F804681EA0300C00F0C460090B5
:1004000021F0004123F00045B8EB0200A94105D2DC
:100410004046214690461C460B46024623F00040CB
:10042000104347D0270DC7F30A00C3F30A510290C7
:10043000401A019040286BDAC3F3130040F4801B8C
:100440000098924620B10023D2EB030A63EB0B0B1A
:1004500001985946C0F14002504600F021F9064685
:100460000D4650465946019A00F039F910EB080044
:100470006141002487EA115284EAE7731A4340D0AD
:10048000009A62B3019A012A4FEA075215DC001B59
:1004900061EB02014FF0004202EA0752CDE900424F
:1004A000001C41F5801132462B46FFF753FF03B085
:1004B000BDE8F08F40462146F9E7001B61EB0201E1
:1004C000001C41F5801300185B412018A2F50017AD
:1004D00047EB030140EAD570B6196D4111E06D0894
:1004E0004FEA360645EAC0754FEA0752001B61EB3A
:1004F0000201001C41F5801149084FEA3000001943
:10050000514132462B4603B0BDE8F04FFFF713BF11
:100510000098012240000023D0EB020263EBE0735D
:10052000009821464FEAE074B8EB000061EB04014B
:10053000E9E783F000435BE781F0004158E72DE9EC
:10054000F04D81EA030404F0004B21F0004514460D
:100550004FF0000A23F0004150EA050220D054EA8F
:1005600001021DD0C5F30A570246C5F31303C1F3B8
:100570001300C1F30A5640F4801543F48013A7EB2F
:100580000608101BD64608F2FD3873EB050002D3AF
:1005900008F1010801E092185B41B8F1000F03DA9D
:1005A00000200146BDE8F08D00204FF48011064682
:1005B00084460EE0171B73EB050705D3121B63EB94
:1005C000050306434CEA010C49084FEA3000921833
:1005D0005B4150EA0107EDD152EA030012D082EAF2
:1005E000040083EA0501084305D0101BAB4106D285
:1005F0000122002306E000224FF0004302E06FF0EA
:10060000010253101AEB06004CEB085110EB0A00E4
:1006100041EB0B01BDE8F04DFFF78DBEC1F30A526F
:10062000C1F3130140F2FF3341F480119A4202DA20
:1006300000200146704740F233439A42A2F233420F
:1006400002DC524200F03BB800F02AB830B5041E7C
:1006500071F1000404DB4FF00044404264EB0101FF
:10066000141E73F1000405DB1C464FF00043524298
:1006700063EB0403994208BF904230BD064C074D1E
:1006800006E0E06840F0010394E807009847103462
:10069000AC42F6D3FFF77CFDB01B0008D01B00086E
:1006A000202A04DB203A00FA02F100207047914032
:1006B000C2F1200320FA03F3194390407047202A27
:1006C00004DB203A21FA02F00021704721FA02F3FC
:1006D000D040C2F120029140084319467047202AB9
:1006E00006DBCB17203A41FA02F043EAE07306E05A
:1006F00041FA02F3D040C2F120029140084319466A
:100700007047FEE77047000070B586B001210846CB
:1007100000F0D6FA0121102000F0EEFA224E072256
:100720000A21304600F0EFF907220921304600F097
:10073000EAF900248DF8164001208DF817000225F3
:100740008DF815508DF814504102049104A93046DB
:1007500000F09BF98DF814506802049004A930460B
:1007600000F093F94FF4E1300090ADF80440ADF89B
:100770000640ADF80840ADF80C400C20ADF80A007A
:100780000A4C6946204600F073FC00F021FA012271
:1007900040F22551204600F050FC0121204600F097
:1007A00019FC06B070BD00000000024000100140BE
:1007B00001B503480099016001680029FCD108BD1A
:1007C0000400002070B586B00121084600F078FAD8
:1007D0000121480400F082FA224E0722032130460C
:1007E00000F091F907220221304600F08CF9002434
:1007F0008DF8164001208DF8170002258DF8155050
:100800008DF814500421049104A9304600F03DF9FC
:100810008DF814500820049004A9304600F035F9F2
:100820004FF4E1300090ADF80440ADF80640ADF86B
:100830000840ADF80C400C20ADF80A000A4C69469F
:10084000204600F015FC00F0D6F9012240F22551B7
:10085000204600F0F2FB0121204600F0BBFB06B071
:1008600070BD000000000240004400404FF4806072
:1008700000F05AB810B5022000F056F8012804D153
:10088000BDE81040022000F049B810BD10B50420AA
:1008900000F04AF801280CD10421064800F05AF96A
:1008A00010B9054901200870BDE81040042000F08F
:1008B00035B810BD000C02400000002010B5082023
:1008C00000F032F8012804D1BDE81040082000F003
:1008D00025B810BD10B5102000F026F8012804D16D
:1008E000BDE81040102000F019B810BD10B58020F0
:1008F00000F01AF801280CD18021064800F02AF9EE
:1009000010B9054902200870BDE81040802000F0B1
:1009100005B810BD00080240000000200149086031
:1009200070470000143C014001460020024A126852
:100930000A4200D001207047143C014030B51B4AE8
:1009400083790168002B2AD013688B431360111D33
:100950000B680468A3430B60017911440B680468B9
:1009600023430B60114C08342168036899432160CC
:10097000231D19680568A94319604179102905D01C
:1009800011440A68006802430A6030BD21680268A9
:1009900011432160196800680143196030BD007976
:1009A000104402688A43026030BD0000003C0140F0
:1009B0007CB501210C2000F083F900248DF804405F
:1009C0000420009001258DF807506946064800F084
:1009D0005CF88DF80440802000908DF8075069463F
:1009E000024800F052F87CBD000C024000080240B2
:1009F0007CB50121880300F07FF90221032000F07B
:100A0000DBF900248DF804400C258DF805500420F6
:100A1000009001268DF806606846FFF78FFF0721DA
:100A2000022000F0C9F98DF804408DF805508020AF
:100A300000908DF806606846FFF780FF7CBD38B5F2
:100A400008208DF8000000258DF8015001248DF854
:100A500002408DF80340684600F0E0F817208DF85A
:100A600000008DF8015002208DF802008DF803403F
:100A7000684600F0D3F838BD10B5FFF799FFFFF7CF
:100A8000DEFFBDE81040FFF7B3BF2DE9F0410022C3
:100A900001274FF0030C07FA02F50B682B40AB421D
:100AA0002CD1066853000CFA03F4A64306600E79B5
:100AB000D0F800809E4046EA080606600E79012EB6
:100AC00001D0022E12D18668A64386604E79D0F8F6
:100AD00008809E4046EA080686604668AE43466047
:100AE00045688E799640B6B235434560C568A543E2
:100AF000C560CC799C40C3681C43C460521C102A5A
:100B0000C9D3BDE8F08110B54B07DB0E9A40C90888
:100B100000EB8100016A0F249C40A1430162016A3D
:100B20001143016210BD0246002012690A4200D042
:100B300001207047418370470183704701A000F096
:100B400053FBFEE748617264204661756C740D0AC0
:100B50000000000070B504460D4629462046FFF708
:100B6000E2FF08B1012070BD29462046FFF7DBFFF8
:100B70000028F9D0002070BD7CB50121482000F08C
:100B80009FF88020009001218DF8041000208DF83E
:100B900006008DF807108DF805000A4D69462846B5
:100BA000FFF773FF6C150094074E69463046FFF758
:100BB0006CFF80212846FFF7BFFF21463046FFF734
:100BC000BBFF7CBD000C024000180240FEE77047EE
:100BD00008B54FF4A06000F055F825208DF800000E
:100BE00001208DF801008DF802008DF803006846A1
:100BF00000F014F808BD08B54FF4A06000F042F80A
:100C000026208DF8000001208DF801008DF80200EB
:100C10008DF80300684600F001F808BD30B50F23D9
:100C2000C27801250178002A1FD0154A126802F403
:100C3000E062C2F5E062C2F30722C2F10404D340CD
:100C40004278A24084781C401443220101F1E02143
:100C500081F80024007800F01F018D4040098000D9
:100C600000F1E020C0F8005130BD01F01F008540C8
:100C70004809800000F1E020C0F8805130BD00003C
:100C80000CED00E00249084302490860704700008B
:100C90000000FA050CED00E008B54FF4A060FFF786
:100CA000F1FF27208DF8000001208DF801008DF85C
:100CB00002008DF803006846FFF7B0FF08BD7047DB
:100CC000054A002903D0116801431160704711687B
:100CD000814311607047000030380240054A002906
:100CE00003D011680143116070471168814311609E
:100CF0007047000040380240054A002903D01168BF
:100D00000143116070471168814311607047000012
:100D10004438024070B5244B196801F00C01234C93
:100D200000291ED0661004291DD008291DD004609A
:100D3000196801F0F00109091D4A545C0168E1409D
:100D400041601C6804F4E054A40A145D21FA04F420
:100D500084601B6803F460435B0BD25CD140C160CC
:100D600070BD0460E4E70660E2E70F4A121F1168F5
:100D7000C1F38055116801F03F0135B1B6FBF1F1C7
:100D80001468C4F38814614305E0B4FBF1F11468FE
:100D9000C4F3881461431268C2F30142521C52002A
:100DA000B1FBF2F10160C3E7083802400024F4000F
:100DB000080000207047000010B58A07120F0F23AB
:100DC000934021F003040649214401F608010C6810
:100DD0009C430C600B68904003430B6010BD000007
:100DE000003001400CB500220192009227490868AA
:100DF00040F4803008604FF4A043086800F40030ED
:100E000000900198401C0190009810B901989842F8
:100E1000F3D10868800302D50120009000E0009221
:100E20000098012831D119484030026842F08052C0
:100E300002601748026842F44042026013480830DA
:100E400002680260026842F400420260026842F4F2
:100E5000A0520260021F0F4B13600A6842F08072BA
:100E60000A600A689201FCD50B4A40F205711160D4
:100E7000016821F003010160016841F00201016095
:100E80000168C1F381010229FAD10CBD003802408A
:100E90000070004008544007003C024000F04EB88B
:100EA0000C480D490068B0FBF1F0401EB0F1807FA6
:100EB00001D301200AE04FF0E0214861074AF02009
:100EC000107000208861072008610020002800D0F1
:100ED000FEE770471800002040420F0023ED00E0BD
:100EE00010B51248016841F47001016010480168B2
:100EF00041F0010101600E4A0021083211600268D0
:100F00000C4B1A400260031D0B4A1A60026822F45F
:100F10008022026006480C300160FFF763FF03493E
:100F20004FF000608039086010BD000088ED00E0DF
:100F300000380240FFFFF6FE10300024034801682D
:100F4000002902D00168491E01607047040000209A
:100F500010B5094C40F22551204600F04EF800280B
:100F600008D0204600F0E2F8C1B22046BDE81040AB
:100F700000F0E0B810BD00000010014010B5094CB1
:100F800040F22551204600F038F8002808D02046CD
:100F900000F0CCF8C1B22046BDE8104000F0CAB85D
:100FA00010BD00000044004010B5094C40F225512E
:100FB000204600F022F8002808D0204600F0B6F8BD
:100FC000C1B22046BDE8104000F0B4B810BD00002A
:100FD00000480040002904D0818941F400518181FA
:100FE0007047818921F400518181704702460020B9
:100FF00012880A4200D00120704770B5002440F6E4
:101000006A12C1F3421301F01F05012606FA05F228
:10101000012B0CD0022B0DD0838A1340090A8E407D
:10102000008830400BB100B10124204670BD838997
:101030001340F3E7038A1340F0E710B540F66A1354
:10104000C1F3421301F01F040121A140012B07D07D
:10105000022B07D014303AB102680A43026010BD77
:101060000C30F8E71030F6E702688A43026010BDE2
:101070007FB504460D46208A20F44051E888084395
:101080002082A08941F20C618843A9882A891143F2
:101090006A8902431143A181A08A20F44071A88982
:1010A0000843A0826846FFF735FE1E48844202D0FE
:1010B0001D48844201D1039800E00298A1890904E7
:1010C00008D500EBC00101EB001029684900B0FB16
:1010D000F1F007E000EBC00101EB00102968890086
:1010E000B0FBF1F06422B0FBF2F109010B096FF0E3
:1010F00018056B4300EB8300A3891D044FF03203F6
:1011000007D503EBC000B0FBF2F000F00700084386
:1011100006E003EB0010B0FBF2F000F00F00084314
:1011200020817FBD00100140001401408088C0F381
:1011300008007047C1F3080181807047FEE7000096
:1011400070B586B001210420FFF7BAFD01218804A3
:10115000FFF7C4FD224E07220B213046FFF7D3FCD8
:1011600007220A213046FFF7CEFC00248DF81640F6
:1011700001208DF8170002258DF815508DF81450B8
:101180008102049104A93046FFF77FFC8DF81450CA
:10119000A802049004A93046FFF777FC4FF4E13031
:1011A0000090ADF80440ADF80640ADF80840ADF849
:1011B0000C400C20ADF80A000A4C69462046FFF7A7
:1011C00057FFFFF769FD012240F225512046FFF746
:1011D00034FF01212046FFF7FDFE06B070BD000080
:1011E00000080240004800400FB4054B10B503A9A9
:1011F000044A029800F0DAF810BC5DF814FB000015
:10120000B51A00082C00002002E008C8121F08C10F
:10121000002AFAD170477047002001E001C1121F77
:10122000002AFBD1704700002DE9FF5F82B000214A
:10123000DDE90430020DDDF840B0034318D044F678
:101240001050A2F2FF3242431514119801281FD00A
:10125000A5EB0B00401C5FEA000A4FF000064E4F62
:10126000DFF83891B046504615D5CAF1000413E0B6
:10127000119801244AA3012801D16FEA0B010298B9
:10128000119AC0E90031C0E9024206B0BDE8F09F02
:10129000CBF10000DFE704460021404A491842EB49
:1012A0000450CDE9001012E0E00707D032463B467B
:1012B00040464946FEF786FF8046894632463B4611
:1012C00010461946FEF77EFF06460F466410002CB6
:1012D000EAD1DDE90401DDE90023BAF1000F06DA05
:1012E000FEF770FF42464B46FEF76CFF05E0FFF746
:1012F00026F942464B46FFF722F904460E460022E5
:10130000284BFFF7A3F903D84FF0FF30014607E061
:101310000022254B20463146FFF76AF8FFF77EF999
:10132000102409E0002C0ADB0A220023FEF7D2FF7A
:10133000039B30321A55641E50EA0102F2D1641C3C
:10134000039AC4F111031444119A012A03D0012213
:1013500008430DD10AE0084304D000204FF0110BE0
:10136000119072E7A3EB0B056D1E0DE05B4504DDEC
:101370004FF0000205F1010504E003DA4FF000022E
:10138000A5F10105002AECD002981199C0E90231BB
:10139000C0E9004579E70000000014400000F03F7C
:1013A000300000000000F0430000E03F2DE9FF4F57
:1013B00095B09A46884606460025EEE1252877D165
:1013C00000242746F94A0121039400E0044316F85B
:1013D000013F203B01FA03F01042F7D130782A2870
:1013E00011D06FF02F033078A0F13002092A16D8FF
:1013F000039A44F0020402EB820203EB420210441F
:10140000761C0390EFE758F8042B0392002A03DAC6
:10141000504244F40054039044F00204761C3078A7
:101420002E2816D116F8010F44F004042A280DD0F6
:101430006FF02F023078A0F13003092B09D807EBA9
:10144000870302EB4303C718761CF3E758F8047BC5
:10145000761C30786C280FD006DC4C2817D0682812
:101460000DD06A2814D104E0742810D07A280FD146
:101470000DE044F400140AE044F4801401E044F464
:1014800040147278824202D104F58014761C761CD6
:10149000307866280BD013DC582877D009DC002878
:1014A00075D04528F6D04628F4D047281AD193E1C4
:1014B00018E0632835D0642879D0652812D18BE1F3
:1014C000702873D008DC6728F1D069286FD06E28A7
:1014D0000DD06F2806D1ACE073282CD0752874D0BD
:1014E000782853D05246179990476D1C54E1C4F3A5
:1014F0000250022809D003280DD0D8F80010042883
:101500000DD00D6008F1040846E1D8F80010EA1784
:10151000C1E90052F6E7D8F800100D80F2E70D702F
:10152000F0E718F8041B8DF8001000208DF801007A
:10153000EB46012003E058F804BB4FF0FF30610791
:101540004FF0000102D40DE009F101018946B942D2
:101550000FDA8145F8DB1BF809100029F4D108E007
:1015600009F1010189468142FADB1BF809100029C3
:10157000F6D103985346A0EB090721463846179A3F
:1015800000F080FA284400EB090507E044E008E198
:101590000DE01BF8010B524617999047B9F101096C
:1015A000F7D2534621463846179AF2E039E00A212D
:1015B000C4F302524FF0000B0091022A06D058F8F3
:1015C000040BC117032A09D00AE023E008F1070041
:1015D00020F00702F2E80201904605E000B2C117D0
:1015E000042A01D140B2C117002906DA0A460021B7
:1015F000404261EB02012D2202E0220504D52B229C
:101600008DF80420012203E0E20701D02022F7E751
:10161000914657E00A2100E010214FF0000B0091A5
:101620000BE010214FF0000B44F004040827009158
:1016300003E008204FF0000B0090C4F30252022A8E
:1016400005D058F8040B0021032A08D008E008F15F
:10165000070020F00702F2E80201904603E080B2A2
:10166000042A00D1C0B24FF0000922072AD53278EF
:10167000702A07D0DDF800C08CF0100C5CEA0B0C6F
:1016800005D00EE040228DF80420012208E050EA47
:10169000010306D030238DF804308DF80520022296
:1016A0009146009B83F0080353EA0B030AD150EAEA
:1016B000010201D1620705D530228DF804204FF0D8
:1016C00001097F1E3278582A04D039A20C920CAA44
:1016D00002920BE03BA2F9E75B46009AFEF7FAFDA7
:1016E0000C9B9B5C029A521E0292137050EA0102FC
:1016F000F2D1029804A9081A00F1200B600702D564
:1017000024F4803400E001275F4502DDA7EB0B00E5
:1017100000E0002000EB0B01009003984944401AC0
:101720000390E00306D453462146179A039800F02D
:10173000A9F90544002706E001A85246C05D1799A3
:1017400090476D1C7F1C4F45F6DBE0030CD55346DC
:101750002146179A039800F095F9054404E03020DB
:101760005246179990476D1C0099481E0090002919
:10177000F5DC08E00298029952460078491C029173
:10178000179990476D1CBBF10001ABF1010BF1DC27
:101790005BE100F065F90544761C307800287FF4A1
:1017A0000DAE19B02846BDE8F08F000009280100F1
:1017B00030313233343536373839616263646566C7
:1017C0000000000030313233343536373839414289
:1017D0004344454600000000600700D4062708F196
:1017E000070020F00700F0E80223804603F0004CD9
:1017F0005FEA0C0001D097A009E0200501D596A072
:1018000005E0E00701D095A001E0AFF24C00139095
:10181000307823F0004365280CD006DC452809D039
:1018200046281DD047287FD13BE0662818D067287E
:101830007AD136E00021112F01DB112000E0781C65
:10184000CDE9000104A90CA8FFF7EEFCDDE90D01CC
:101850000C9A4FF0000B07F10109109200914EE035
:101860004FF000400097CDE9011004A90CA8FFF744
:10187000DBFCDDE90D020C9B0F994FF0000B91464C
:101880001093009211B9791C00EB0109B7EB090024
:1018900003D4C0F1FF3B07F10109A9EB0700019058
:1018A00042E0012F00DA01270021112F01DD112074
:1018B00000E03846CDE9000104A90CA8FFF7B4FC0C
:1018C000DDE90D010C9A00914FF0000BB946109222
:1018D00021070FD4009A4A4503DA914601E0A9F1A5
:1018E0000109B9F1010F05DD109AA9F10101515C5F
:1018F0003029F4D0B84202DA10F1040F03DA0121E2
:10190000CDE9011010E0002803DC8344A9EB0001BD
:1019100002E0411C494500DD8946A0EB0B00401C5C
:1019200001904FF000400290200705D401984845EF
:1019300002DB4FF0FF30019000208DF84B00029841
:101940000DF14B07B0F1004F25D002200C902B2059
:101950000D90029800280CDA404202902D200D9044
:1019600007E00A210298FEF79FFC3031029007F849
:10197000011D0C99481E0C900029F2DC02980028E9
:10198000EFD1791E0D980870307800F0200040F0FB
:10199000450007F8020D11A8C01BC01D0290139846
:1019A000007800B1012000EB0901019801EBE07122
:1019B000029801440398401A401E0390E00306D4A5
:1019C00053462146179A039800F05CF80544139893
:1019D000007818B15246179990476D1CE00323D543
:1019E00053462146179A039800F04CF805441BE033
:1019F000BBF1000F07DB0098584504DD10981799DC
:101A000010F80B0001E017993020524690470198DA
:101A10000BF1010B401E05F10105019004D12E20B0
:101A20005246179990476D1CB9F10001A9F10109BF
:101A3000DEDC05E017F8010B5246179990476D1C44
:101A40000299481E02900029F4DC53462146179A59
:101A500003989EE62D0000002B00000020000000EF
:101A60002DE9F041044600251E461746880404D49B
:101A700005E039462020B0476D1C641EF9D5284684
:101A8000BDE8F0812DE9F041044600251E46904650
:101A9000C80301D5302700E02027880404D505E0DD
:101AA00041463846B0476D1C641EF9D52846BDE84E
:101AB000F081000070B50446064DE1B22846FFF7FC
:101AC00039FB80212846FFF791FA0028F9D02046FB
:101AD00070BD000000100140FFF7E2F9FEF7CCFFF7
:101AE000FEF712FEFFF72CFBFEF76CFEFFF744F843
:101AF0001648FFF779FB164C80212046FFF71CF8AB
:101B0000144E651529463046FFF716F80221124893
:101B1000FFF710F8114F0D48FFF766FB80212046B4
:101B2000FFF708F829463046FFF704F83846FEF775
:101B30003FFE80212046FEF7FFFF29463046FEF794
:101B4000FBFF3846FEF734FEE5E70000601B0008A7
:101B5000000C0240001802400004024040420F0006
:101B60000D0A2A2A2A2A2A2A2A2A2A2A2A2A2A2A12
:101B70002A2A2A2A2A2A2A2A2A2A2A2A2A2A2A539C
:101B800043545F56322E302A2A2A2A2A2A2A2A2AFF
:101B90002A2A2A2A2A2A2A2A2A2A2A2A2A2A2A2AA5
:101BA0002A2A2A2A2A2A2A2A2A2A0D0A000000007A
:101BB000D01B0008000000203000000008120008C0
:101BC000001C00083000002000040000181200086B
:101BD00000000000000000000000000001020304FB
:101BE0000102030406070809007A030A0000000046
:101BF00000000000010203040607080900000000BD
:040000050800018965
:00000001FF
