:020000040800F2
:1000000060340020A101000817100008690E0008E4
:10001000151000088B020008691500080000000098
:100020000000000000000000000000006312000853
:100030008D02000800000000071100081D130008D1
:10004000BB010008BB010008BB010008BB010008A0
:10005000BB010008BB010008BB010008BB01000890
:10006000BB010008BB010008BB010008BB01000880
:10007000BB010008BB010008BB010008BB01000870
:10008000BB010008BB010008BB010008BB01000860
:10009000BB010008BB010008BB010008BB01000850
:1000A000BB010008BB010008BB010008BB01000840
:1000B000BB010008BB010008BB010008BB01000830
:1000C000BB010008BB010008BB010008BB01000820
:1000D000BB0100087D130008A9130008D513000810
:1000E000BB010008BB010008BB010008BB01000800
:1000F000BB010008BB010008BB010008BB010008F0
:10010000BB010008BB010008BB010008BB010008DF
:10011000BB010008BB010008BB010008BB010008CF
:10012000BB010008BB010008BB010008BB010008BF
:10013000BB010008BB010008BB010008BB010008AF
:10014000BB010008BB010008BB010008BB0100089F
:10015000BB010008BB010008BB010008BB0100088F
:10016000BB010008BB010008BB010008BB0100087F
:10017000BB010008BB010008BB010008BB0100086F
:10018000BB010008BB010008DFF810D000F04CF8FC
:1001900000480047B12A0008AFF300806034002017
:1001A0000648804706480047FEE7FEE7FEE7FEE711
:1001B000FEE7FEE7FEE7FEE7FEE7FEE721130008A5
:1001C000890100082DE9F05F0546002092469B4614
:1001D00088460646814640241BE02846414647465D
:1001E000224600F042F853465A46C01A914110D3B5
:1001F00011461846224600F029F82D1A67EB01082F
:100200004F4622460120002100F020F817EB00099C
:100210004E41201EA4F10104DFDC484631462A4647
:100220004346BDE8F09F0000064C074D06E0E0683D
:1002300040F0010394E8070098471034AC42F6D32D
:10024000FFF7A6FF782D0008982D0008202A04DB70
:10025000203A00FA02F1002070479140C2F12003D9
:1002600020FA03F3194390407047202A04DB203A18
:1002700021FA02F00021704721FA02F3D040C2F1C6
:1002800020029140084319467047FEE7704700007E
:1002900070B586B00121084600F036FF012110201C
:1002A00000F04EFF224E07220A21304600F0C8FD22
:1002B00007220921304600F0C3FD00248DF81640C6
:1002C00001208DF8170002258DF815508DF8145077
:1002D0004102049104A9304600F074FD8DF81450D9
:1002E0006802049004A9304600F06CFD4FF4E13040
:1002F0000090ADF80440ADF80640ADF80840ADF808
:100300000C400C20ADF80A000A4C6946204601F06A
:10031000C5F800F081FE012240F22551204601F08F
:10032000A2F80121204601F06BF806B070BD000074
:1003300000000240001001402DE9F04707460E463C
:10034000DFF8C0800121404600F0BEFD2E4C40F297
:10035000FF752560DFF8B49006E02168491E216032
:1003600011B9012000F044FB4946404600F094FDDD
:100370000128F2D1C1460022A021484600F01DFE0E
:100380002560DFF88C8006E02168491E216011B9E4
:10039000022000F02DFB4146484600F07DFD01287B
:1003A000F2D13946484600F011FE2560184FBF1CB7
:1003B00006E02168491E216011B9032000F018FBF6
:1003C0003946484600F068FD0128F2D131464846DA
:1003D00000F0FCFD256006E02268521E226012B982
:1003E000042000F005FB3946484600F055FD012881
:1003F000F2D10121484600F073FDBDE8F04701F05D
:100400000BB900000054004014000020010003005C
:10041000820007002DE9FC410121022000F074FE5A
:100420000121022000F070FE154F042209213846F8
:1004300000F006FD04220821384600F001FD0126E7
:100440008DF8066000258DF8075002248DF80540D0
:100450008DF80440200200906946384600F0B2FC56
:100460008DF806608DF807508DF805408DF8044032
:10047000E00100906946384600F0A4FCBDE8FC812C
:100480000004024010B5FFF7C5FFBDE8104000F0C2
:1004900001B800001FB50121480500F043FE4FF4EC
:1004A0008060ADF80A000001ADF80C000C48009027
:1004B0004BF6FF70ADF806000020ADF80400772081
:1004C000ADF80800074C6946204600F015FD0121F3
:1004D000204600F0EDFC0121204600F0D1FC1FBDBC
:1004E000801A0600005400402DE9F04707460D46EB
:1004F0001446DFF8D8A00121504600F0E5FC344E48
:1005000040F2FF79C6F80090DFF8C88006E0316855
:10051000491E316011B90C2000F06AFA414650467C
:1005200000F0BAFC0128F2D10022A021504600F0D0
:1005300044FDC6F80090DFF8A08006E03168491E4F
:10054000316011B90D2000F053FA4146504600F0D9
:10055000A3FC0128F2D139465746384600F036FD53
:10056000C6F80090DFF8708008F1020806E03068F5
:10057000401E306010B90E2000F03AFA414638466D
:1005800000F08AFC0128F2D114E02978384600F006
:100590001DFDC6F8009006E03068401E306010B9BE
:1005A0000F2000F025FA4146384600F075FC01287E
:1005B000F2D16D1C641EE4B2E7D20121384600F08E
:1005C0008FFCBDE8F04701F027B800000054004060
:1005D0001400002001000300820007002DE9F0470D
:1005E00081460D46DFF81C810121404600F06CFC7D
:1005F000454C40F2FF762660444F06E02068401EDE
:10060000206010B9052000F0F3F93946404600F0AB
:1006100043FC0128F2D10022A021404600F0CDFC8D
:100620002660DFF8ECA006E02068401E206010B9CC
:10063000062000F0DDF95146404600F02DFC01286F
:10064000F2D14946C146484600F0C0FC2660DFF8BA
:10065000C08008F1020806E02168491E216011B936
:10066000072000F0C5F94146484600F015FC012876
:10067000F2D10121484600F027FC266006E02168FF
:10068000491E216011B9082000F0B2F939464846E8
:1006900000F002FC0128F2D10122A021484600F01E
:1006A0008CFC2660194F7F1C06E02168491E2160E2
:1006B00011B9092000F09CF93946484600F0ECFBDE
:1006C0000128F2D10021484600F0DAFB26600F4EE7
:1006D0003F3606E02168491E216011B90A2000F06A
:1006E00087F93146484600F0D7FB0128F2D1484649
:1006F00000F060FC28700121484600F0F1FB00206A
:10070000BDE8F08700540040140000200100030001
:10071000820007002DE9F05F83460D461446DFF89E
:1007200040910121484600F0CFFB4E4E40F2FF774A
:100730003760DFF8348106E03068401E306010B961
:10074000102000F055F94146484600F0A5FB01286D
:10075000F2D10022A021484600F02FFC3760DFF8DC
:100760000CA106E03068401E306010B9112000F086
:100770003FF95146484600F08FFB0128F2D1594617
:10078000484600F023FC3760DFF8E0A00AF1020AD7
:1007900006E03168491E316011B9122000F028F9D5
:1007A0005146484600F078FB0128F2D10121484625
:1007B00000F08AFB376006E03168491E316011B9EC
:1007C000132000F015F94146484600F065FB01286A
:1007D000F2D1C8460122A021404600F0EEFB37606E
:1007E000DFF8849009F1010906E03168491E3160A3
:1007F00011B9142000F0FCF84946404600F04CFBCB
:100800000128F2D121E04CB10121404600F038FB33
:100810003760DFF8549009F13F090BE000214046B2
:1008200000F02EFBF4E73068401E306010B9152050
:1008300000F0DEF84946404600F02EFB0128F2D1D8
:10084000404600F0B7FB05F8010B641EA4B2DAD2F3
:100850000121404600F044FB0020BDE8F09F00006D
:100860000054004014000020010003008200070033
:100870002DE9F04105460E46C2F3071402F00F07BA
:1008800009E0102231462846FFF72EFE00F0C4FE94
:100890001035EDB21036641EE4B2F2D23A4631465B
:1008A0002846FFF721FE00F0B7FE0020BDE8F081EA
:1008B0002DE9F04105460E4605F00F00002812D044
:1008C000C0F11000C7B2D01BC0B2040900F00F087D
:1008D0003A4631462846FFF707FE00F09DFEE8192C
:1008E000C5B23E4423E0C2F3071402F00F0709E04B
:1008F000102231462846FFF7F7FD00F08DFE103537
:10090000EDB21036641EE4B2F2D23A4631462846C1
:10091000FFF7EAFD00F080FE13E010223146284682
:10092000FFF7E2FD00F078FE1035EDB21036641EE0
:10093000E4B2F2D2424631462846FFF7D5FD00F038
:100940006BFE0020BDE8F08170B586B0012108463D
:1009500000F0DAFB0121480400F0E4FB224E0722FC
:100960000321304600F06CFA07220221304600F0E5
:1009700067FA00248DF8164001208DF81700022533
:100980008DF815508DF814500421049104A93046B7
:1009900000F018FA8DF814500820049004A930468D
:1009A00000F010FA4FF4E1300090ADF80440ADF8DB
:1009B0000640ADF80840ADF80C400C20ADF80A0038
:1009C0000A4C6946204600F069FD00F038FB012220
:1009D00040F22551204600F046FD0121204600F05E
:1009E0000FFD06B070BD0000000002400044004052
:1009F00010B50446214602A000F056FE204610BD68
:100A00000D0A49324331206572726F72206F636341
:100A10007572726564202C20636F6465203D20250B
:100A2000640000002DE9F041C4B2C0F30725C0F313
:100A3000074600F0B5F90C4F0121384600F010FAD6
:100A4000202000F04FF9304600F04CF9284600F025
:100A500049F9204600F046F90121384600F002FA33
:100A6000BDE8F04100F076B90000024010B5044640
:100A7000214602A000F018FE204610BD0D0A53507A
:100A80004931206572726F72206F6363757272658F
:100A900064202C20636F6465203D202564000000E5
:100AA0002DE9F05F04460F4616460025DFF870B0CA
:100AB0002AE004F0FF08C4F30729C4F3074A6D1CB9
:100AC000012D04D0E8B2012801D0200517D1012161
:100AD000584600F0C7F900F03DF900F061F9012136
:100AE000584600F0BDF9022000F0FCF8504600F036
:100AF000F9F8484600F0F6F8404600F0F3F8387888
:100B000000F0F0F87F1C641C761EB6B2D1D2012131
:100B1000584600F0A7F9BDE8F05F00F01BB90000EF
:100B2000000002402DE9F0470C461546C7B2C0F35D
:100B30000728C0F307490F4E0121304600F090F915
:100B4000032000F0CFF8484600F0CCF8404600F013
:100B5000C9F8384600F0C6F803E000F02BF804F8B6
:100B6000010B6D1E681CF8D13046BDE8F04701212D
:100B700000F078B90000024070B50D4C012120460C
:100B800000F06EF9AB2000F0ADF8FF2000F0AAF8FD
:100B9000FF2000F0A7F8FF2000F0A4F800F00AF80A
:100BA00005460121204600F05DF9284670BD000091
:100BB00000000240FF2000F095B800007CB5012144
:100BC000084600F0A1FA0121084600F09DFA012133
:100BD000084600F099FA0121084600F095FA012133
:100BE000042000F091FA254E05220621304600F03F
:100BF00027F905220721304600F022F90522114687
:100C0000304600F01DF900248DF806408DF80740AD
:100C100002258DF805508DF804502020009069467B
:100C2000304600F0CFF88DF806408DF807408DF87B
:100C300005508DF80450802000906946304600F041
:100C4000C1F88DF806408DF807408DF805508DF8F5
:100C50000450402000906946304600F0B3F88DF80B
:100C600006408DF807408DF8055001218DF80410DD
:100C700000916946304600F0A5F87CBD00000240B6
:100C800010B5FFF79BFFBDE8104000F001B8000071
:100C900010B586B00121080300F052FA0020ADF82B
:100CA0001000ADF80C00ADF80A00ADF81400ADF876
:100CB0000800ADF80400ADF812004FF48270ADF8F2
:100CC00006004FF40070ADF80E00054C01A9204657
:100CD00000F0ABFA0121204600F090FA06B010BDFA
:100CE000003001402DE9F0410746184C40F2FF75F5
:100CF0002560174E03E02068401E206058B1022195
:100D0000304600F087FA0028F5D03946304600F02A
:100D10008AFA256008E0BDE8F0410120FFF7A6BE91
:100D20002068401E206058B10121304600F072FA60
:100D30000028F5D0304600F074FAC0B2BDE8F0816A
:100D4000BDE8F0410220FFF791BE0000180000202E
:100D50000030014070B5104D0121284600F080F8A8
:100D60000520FFF7BFFFFFF725FF0C4C40F2FF7097
:100D70002060FFF71FFFC00707D02068401E2060DB
:100D80000028F6D10320FFF771FE2846BDE8704029
:100D9000012100F067B800000000024018000020A8
:100DA00010B5074C0121204600F05AF80620FFF745
:100DB00099FF2046BDE81040012100F053B8000023
:100DC000000002402DE9F041002201274FF0030C02
:100DD00007FA02F50B682B40AB422CD10668530092
:100DE0000CFA03F4A64306600E79D0F800809E400A
:100DF00046EA080606600E79012E01D0022E12D1B5
:100E00008668A64386604E79D0F808809E4046EA00
:100E1000080686604668AE43466045688E7996400F
:100E2000B6B235434560C568A543C560CC799C40E2
:100E3000C3681C43C460521C102AC9D3BDE8F081AA
:100E400010B54B07DB0E9A40C90800EB8100016A20
:100E50000F249C40A1430162016A1143016210BD4D
:100E6000418370470183704701A000F01DFCFEE73D
:100E700048617264204661756C740D0A00000000C0
:100E8000002904D0018841F4806101807047018805
:100E900021F4806101807047034600209A8A1B8BF1
:100EA0001B041A4322F07F42914300D10120704776
:100EB000002904D0018841F00101018070470188B8
:100EC00021F0010101807047002904D0018841F41C
:100ED000807101807047018821F480710180704722
:100EE000002904D0018841F4007101807047018815
:100EF00021F40071018070477FB504460D46A0883B
:100F000020F03F06684600F029F902982749B0FB17
:100F1000F1F189B20E43A680228822F001022280DC
:100F2000234B2A689A4209D85200B0FBF2F080B2F3
:100F3000042800D20420491C218423E0EB88A3F577
:100F40003F46FF3E0BD002EBC20303EB0212B0FBA5
:100F5000F2F080B240F48040020506D007E002EBD8
:100F60004202B0FBF2F080B2F6E740F0010040F43C
:100F700000404FF4967251434FF47A72B1FBF2F194
:100F8000491C2184A083208840F001002080208813
:100F90004FF6F5310840A9886A8911430143218041
:100FA000A8892989084320817FBD000040420F00A5
:100FB000A0860100008AC0B27047002A02D041F02A
:100FC000010101E001F0FE010182704701827047DA
:100FD0001CB50121042000F097F84FF480500090D8
:100FE00001218DF8041000208DF806008DF80710FF
:100FF0008DF80500064C69462046FFF7E3FE4FF4E6
:101000000051009169462046FFF7DCFE1CBD000040
:1010100000080240FEE7704708B54FF4A06000F0FA
:1010200055F825208DF8000001208DF801008DF87D
:1010300002008DF80300684600F014F808BD08B5FA
:101040004FF4A06000F042F826208DF80000012047
:101050008DF801008DF802008DF80300684600F05D
:1010600001F808BD30B50F23C27801250178002AA8
:101070001FD0154A126802F4E062C2F5E062C2F3C2
:101080000722C2F10404D3404278A24084781C4075
:101090001443220101F1E02181F80024007800F0DE
:1010A0001F018D404009800000F1E020C0F8005190
:1010B00030BD01F01F0085404809800000F1E020AC
:1010C000C0F8805130BD00000CED00E0024908433B
:1010D00002490860704700000000FA050CED00E0CE
:1010E00008B54FF4A060FFF7F1FF27208DF800004E
:1010F00001208DF801008DF802008DF8030068468C
:10110000FFF7B0FF08BD7047054A002903D01168FA
:1011100001431160704711688143116070470000FE
:1011200030380240054A002903D01168014311609C
:1011300070471168814311607047000040380240D9
:10114000054A002903D011680143116070471168F6
:1011500081431160704700004438024070B5244B51
:10116000196801F00C01234C00291ED066100429D7
:101170001DD008291DD00460196801F0F00109098B
:101180001D4A545C0168E14041601C6804F4E0546D
:10119000A40A145D21FA04F484601B6803F460431C
:1011A0005B0BD25CD140C16070BD0460E4E70660B7
:1011B000E2E70F4A121F1168C1F38055116801F070
:1011C0003F0135B1B6FBF1F11468C4F388146143F3
:1011D00005E0B4FBF1F11468C4F3881461431268AC
:1011E000C2F30142521C5200B1FBF2F10160C3E7AD
:1011F000083802400024F40000000020002904D038
:10120000018841F0400101807047018821F04001D0
:10121000018070470246002012890A4200D0012056
:101220007047808970478181704730B5028802F429
:1012300041530A884C88CD8822438C882C43224312
:101240000C8922434C8922438C892243CC89224336
:101250001A430280828B22F400628283098A01820F
:1012600030BD70470CB500220192009227490868F2
:1012700040F4803008604FF4A043086800F4003068
:1012800000900198401C0190009810B90198984274
:10129000F3D10868800302D50120009000E000929D
:1012A0000098012831D119484030026842F080523C
:1012B00002601748026842F4404202601348083056
:1012C00002680260026842F400420260026842F46E
:1012D000A0520260021F0F4B13600A6842F0807236
:1012E0000A600A689201FCD50B4A40F20571116050
:1012F000016821F003010160016841F00201016011
:101300000168C1F381010229FAD10CBD0038024005
:101310000070004019544007003C02407047000034
:1013200010B51248016841F470010160104801686D
:1013300041F0010101600E4A00210832116002688B
:101340000C4B1A400260031D0B4A1A60026822F41B
:101350008022026006480C300160FFF783FF0349DA
:101360004FF000608039086010BD000088ED00E09B
:1013700000380240FFFFF6FE1030002410B5094C83
:1013800040F22551204600F04EF8002808D02046B3
:1013900000F0E2F8C1B22046BDE8104000F0E0B82D
:1013A00010BD00000010014010B5094C40F225515D
:1013B000204600F038F8002808D0204600F0CCF88D
:1013C000C1B22046BDE8104000F0CAB810BD000010
:1013D0000044004010B5094C40F22551204600F071
:1013E00022F8002808D0204600F0B6F8C1B2204606
:1013F000BDE8104000F0B4B810BD00000048004047
:10140000002904D0818941F400518181704781898C
:1014100021F40051818170470246002012880A425F
:1014200000D00120704770B5002440F66A12C1F365
:10143000421301F01F05012606FA05F2012B0CD01C
:10144000022B0DD0838A1340090A8E400088304059
:101450000BB100B10124204670BD83891340F3E72E
:10146000038A1340F0E710B540F66A13C1F3421344
:1014700001F01F040121A140012B07D0022B07D04E
:1014800014303AB102680A43026010BD0C30F8E72C
:101490001030F6E702688A43026010BD7FB504464B
:1014A0000D46208A20F44051E88808432082A08914
:1014B00041F20C618843A9882A8911436A89024351
:1014C0001143A181A08A20F44071A8890843A08219
:1014D0006846FFF743FE1E48844202D01D488442FE
:1014E00001D1039800E00298A189090408D500EB16
:1014F000C00101EB001029684900B0FBF1F007E0E2
:1015000000EBC00101EB001029688900B0FBF1F08D
:101510006422B0FBF2F109010B096FF018056B436F
:1015200000EB8300A3891D044FF0320307D503EBC2
:10153000C000B0FBF2F000F00700084306E003EB48
:101540000010B0FBF2F000F00F00084320817FBDD7
:1015500000100140001401408088C0F3080070476B
:10156000C1F3080181807047FEE7000070B586B0C6
:1015700001210420FFF7C8FD01218804FFF7D2FDF7
:10158000224C07220B212046FFF75AFC07220A2192
:101590002046FFF755FC00248DF8164001208DF8F9
:1015A000170002258DF815508DF814508002049014
:1015B000174E04A93046FFF705FC8DF81450A90218
:1015C000049104A93046FFF7FDFB4FF4E130009091
:1015D000ADF80440ADF80640ADF80840ADF80C4059
:1015E0000C20ADF80A000B4C69462046FFF756FF69
:1015F000FFF776FD012240F225512046FFF733FF29
:1016000001212046FFF7FCFE06B070BD0008024035
:1016100000000240004800402DE9F04140F6FF7410
:101620006610DFF874801D4D26E001214046FFF76B
:101630004BFC2E601A4F06E02A68521E2A6012B92F
:101640000B20FFF7D5F939464046FFF725FC012866
:10165000F2D10022A0214046FFF7AFFC2E60114FCF
:1016600005E039464046FFF717FC01280ED02A68EE
:10167000521E2A60521CF4D1641E601CD5D1012177
:101680004046FFF72DFC0120BDE8F08101214046D6
:10169000FFF726FC0020F7E700540040140000206C
:1016A00001000300820007000FB4054B10B503A929
:1016B000044A029800F018F810BC5DF814FB000012
:1016C000412A00082800002002E008C8121F08C1B3
:1016D000002AFAD170477047002001E001C1121FB3
:1016E000002AFBD1704700002DE9FF4F8DB00F4657
:1016F0000546002606E025280BD0DDE90F129047AD
:101700006D1C761C28780028F5D111B03046BDE854
:10171000F08F0024A246A1460122E94900E00443DB
:1017200015F8013F203B02FA03F00842F7D1287870
:101730002A2810D06FF02F022878A0F13001092953
:1017400014D80AEB8A0102EB410144F0020400EBD9
:10175000010A6D1CF0E701CF5FEA000A03D544F4EB
:101760000054CAF1000A44F002046D1C28782E28A7
:1017700017D115F8010F44F004042A280ED06FF099
:101780002F022878A0F1300109290AD809EB890134
:1017900002EB410100EB01096D1CF2E757F8049BD5
:1017A0006D1C28786C280FD006DC4C2817D06828D0
:1017B0000DD06A2814D104E0742810D07A280FD1F3
:1017C0000DE044F400140AE044F4801401E044F411
:1017D00040146978814202D104F580146D1C6D1C9F
:1017E00028786E281ED00CDC632830D004DC00285A
:1017F0008BD0582811D19FE0642867D069280CD17C
:1018000064E073282DD004DC6F2872D0702804D1D6
:1018100094E075286ED078286DD0DDE90F129047DE
:10182000761C4BE1C4F30250022806D0032809D0ED
:10183000042801CF09D0066040E101CFF117C0E9CB
:1018400000613BE101CF068038E1067036E117F810
:10185000040B8DF8000000208DF80100EB460120FC
:1018600003E057F804BB4FF0FF3061074FF0000171
:1018700002D40DE008F10101884649450FDA8045A0
:10188000F8DB1BF808100029F4D108E008F1010189
:1018900088468142FADB1BF808100029F6D1DDE901
:1018A0000F23AAEB08008146214600F031F93044AD
:1018B00000EB080604E0DDE90F121BF8010B90476E
:1018C000B8F10108F7D221464846F2E00A21C4F3F4
:1018D00002524FF0000B0891022A04D001CFC11729
:1018E000032A09D00AE0FF1D27F00707F7E80201E5
:1018F00008E02CE01EE01FE000B2C117042A01D16D
:1019000040B2C117021E71F1000206DA0023D0EBCB
:10191000030063EB01012D2202E0220504D52B22F6
:101920008DF82420012203E0E20701D02022F7E70E
:10193000904653E00A210BE0102109E010214FF0FE
:10194000000B44F004044FF00809089103E008215B
:101950004FF0000B0891C4F30252022A04D001CFC9
:101960000021032A06D006E0FF1D27F00707F7E84D
:10197000020103E080B2042A00D1C0B24FF0000897
:1019800022072BD52A78702A07D0DDF820C08CF0EA
:10199000100C5CEA0B0C05D00EE040228DF82420E0
:1019A000012208E050EA010306D030238DF82430EC
:1019B0008DF8252002229046089B83F0080353EA05
:1019C0000B030BD150EA010201D1620706D5302288
:1019D0008DF824204FF00108A9F101092A78582A2E
:1019E00004D038A20B9208AA0A920BE03AA2F9E7B7
:1019F0005B46089AFEF7E6FB0B9B9B5C0A9A521E1D
:101A00000A92137050EA0102F2D10A98ADEB00007D
:101A100000F1200B600702D524F4803401E04FF080
:101A20000109D94502DDA9EB0B0000E0002000EB25
:101A30000B0141440890AAEB010AE00306D4DDE95A
:101A40000F232146504600F063F806444FF000098A
:101A500008E009A911F80900DDE90F12904709F122
:101A60000109761CC145F4DBE0030CD5DDE90F2349
:101A70002146504600F04CF8064404E0DDE90F1220
:101A800030209047761C0899481E08900029F5DC04
:101A900008E00A980A990078491C0A91DDE90F12BA
:101AA0009047761CBBF10001ABF1010BF1DC214644
:101AB0005046DDE90F2300F019F806446D1C21E6BD
:101AC0000928010030313233343536373839616214
:101AD00063646566000000003031323334353637D8
:101AE0003839414243444546000000002DE9F041A9
:101AF000044600251E461746880404D405E03946EE
:101B00002020B0476D1C641EF9D52846BDE8F08141
:101B10002DE9F041044600251E469046C80301D534
:101B2000302700E02027880404D505E041463846E8
:101B3000B0476D1C641EF9D52846BDE8F081000051
:101B400010B5044600202071401EE062204600F0DF
:101B5000E2FF08B1032010BD94F82E0294F82F1272
:101B600040EA0120A0F52A41553901D0022010BDDC
:101B700014F8660FE178627840EA0161A078663C6B
:101B8000000440EA022001430B48B0EB012F01D1D1
:101B9000002010BD14F8821FE278637841EA0261E8
:101BA000A278120442EA03221143B0EB012F01D1C3
:101BB000002010BD012010BD0046415410B5014663
:101BC0000120002908D0012906D1FFF759F8BDE806
:101BD0001040012000F02EB810BD002803D00128CD
:101BE00003D0042070470846704799B14FF48050E5
:101BF000012905D0022906D0032907D00420704707
:101C00001060002070471080002070470120106095
:101C1000002070470020704770B51546040002D0C0
:101C2000012C01D0042070BD1A032803FEF77AFFAF
:101C3000002070BD10B50124002802D0012807D172
:101C400001E0204610BDFEF797FF172800D10024C1
:101C5000204610BD2DE9F0410F4615461C460600F2
:101C600002D0012E02D00420BDE8F0814FF6FF78AB
:101C70000CE028030646FEF7D5FE08EA043230469B
:101C80003946FEF70DFF6D1C07F58057641E601C7A
:101C9000EFD1E9E730B5ADF5377D0020B4A90854A0
:101CA000401C80B20828FAD3002072A90854401CB6
:101CB00080B2FF28FAD9002019A90854401C80B22C
:101CC0006428FAD3FEF7DEFB3548FFF7EDFC35A0BC
:101CD000FFF7EAFCEE210820FEF72EFBB6A908204C
:101CE000FEF77CFC35A0FFF7DFFC9DF8D8123DA085
:101CF000FFF7DAFC3DA0FFF7D7FC0822B4A90020CB
:101D0000FEF7F2FB0822B2A90020FEF703FD3CA07B
:101D1000FFF7CAFC0024B2AD42A0295DFFF7C4FC66
:101D2000641CA4B2082CF7D340A0FFF7BDFC4FF40D
:101D30008074224672A90020FEF79AFD224632A93D
:101D40000020FEF7E7FC3FA0FFF7AEFC002432AD19
:101D500034A0295DFFF7A8FC641CA4B2FF2CF7D9BE
:101D600042A0FFF7A1FC322219A90D20FEF7A0FD29
:101D7000462269460020FEF7CDFC42A0FFF794FC06
:101D800000246D4627A0295DFFF78EFC641CA4B2D9
:101D9000462CF7D34548FFF787FC0DF5377D30BD5E
:101DA000282C00080D0A0D0AB5A5D7D6BDDAB6C194
:101DB000D0B4B2E2CAD4BFAACABC00000D0AB5A50D
:101DC000D7D6BDDAB6C1D0B4B2E2CAD4BDE1CAF842
:101DD000A3AC526563656976656420446174613AB9
:101DE0000D0A000030782530327800000D0A0D0A07
:101DF000D2B3B6C1D0B4B2E2CAD4BFAACABC000042
:101E00000D0AD2B3B6C1D0B4B2E2CAD4BDE1CAF8A9
:101E1000A3AC526563656976656420446174613A78
:101E20000D0A000030782530327820000D0A0D0AA6
:101E3000CBB3D0F2B6C1D0B4B2E2CAD45631BFAA45
:101E4000CABC00000D0ACBB3D0F2B6C1D0B4B2E226
:101E5000CAD45631BDE1CAF8A3AC52656365697650
:101E6000656420446174613A0D0A00000D0A0D0A90
:101E7000CBB3D0F2B6C1D0B4B2E2CAD45632BFAA04
:101E8000CABC00000D0ACBB3D0F2B6C1D0B4B2E2E6
:101E9000CAD45632BDE1CAF8A3AC5265636569760F
:101EA000656420446174613A0D0A0000D02C00087A
:101EB0002DE9F74F88B090460998012803D91320DF
:101EC0000BB0BDE8F08F08A800F0D0FD002801DAC3
:101ED0000B20F5E7FE4951F8206056B10021317022
:101EE000C0B205900598FFF769FEC10703D0032033
:101EF000E6E70C20E4E7400701D50A20E0E706F119
:101F00000A0202210598FFF768FE30B97089B0F522
:101F1000805F02D8B0F5007F01D20120D0E702AA8D
:101F200001210598FFF759FE10B90298802801D2C7
:101F30000120C5E7099911B14FF0000A01E04FF007
:101F40003F0AA0EB0A010291A8F1010018EA000F74
:101F500001D04FF00008B8F1000F13D170894FF491
:101F6000FA62400AB2FBF0F0B1FBF0F20020D94B6C
:101F700000E0401C33F810509542FAD8D54A16328A
:101F800032F81080B8F5007F02D37089B8FBF0F802
:101F9000B8F1000F01D14FF00108B8F1800F01D95D
:101FA0004FF08008B1FBF8F0012740F6F67290423E
:101FB00000D302274FF6F672904200D30327032F77
:101FC0001BD0012F24D04200121D7089521E0244E2
:101FD000B2FBF0F90125AA03B2FBF0F001900AEB85
:101FE000050B0BEB0900019A841804EB0800A0EB29
:101FF0000A00884212D90E2062E77289072303EB98
:1020000080001044B0FBF2F9202500200190E6E7A3
:1020100000EB4000401C4208D21CD6E703AA032173
:102020000598FFF7DAFD20B9039810B1B0F5004F1D
:1020300001D90120039003982118491E401E8143B5
:10204000081B0390032F0CD081440298411BA1EB85
:1020500009020199511AB1FBF8F10491022F03D042
:1020600007E005448344F0E7049940F6F672914294
:1020700006D3032F06D104994FF6F672914201D28E
:102080000E201DE7032F02D0012F02D006E00C2402
:102090000AE0B0F5803F01D2012405E0B0F5803FB1
:1020A00001D2042400E00624099810B1F020069023
:1020B00039E0728906F130000021079000F023FD1D
:1020C00006F5F7700121417081700022C270047121
:1020D000FE214171029943F6C1635144B1FBF3F112
:1020E00003913F2343EA91048471C17103724272E8
:1020F0008272C272029901730A0A42730A0C8273D5
:10210000090EC173552086F82E02AA2086F82F02E8
:102110000123002207990598FFF79CFD08B10120D3
:10212000CEE6F820069006F13004728900212046A0
:1021300000F0E9FC0B2268A1204600F0DBFC70896E
:10214000E072000A207384F80D80A573280AE073FA
:1021500001202074032F0BD040026074000AA07489
:102160000298B0F5803F05D2E074000A20750AE0BD
:102170000020F2E704F8200F010A6170010CA17041
:10218000000EE070203C069860753F20207600200D
:102190006076FF21A176E07684F81CA04FEA1A2031
:1021A00060774FEA1A40A0774FEA1A60E07700F0B4
:1021B00059FC039080222921032F24D01634607407
:1021C000030AA374030CE374000E207584F80090D6
:1021D0004FEA19206070A2732174163C132241A1AA
:1021E00004F12B0000F086FC552084F8FE01AA20A3
:1021F00084F8FF010123524621460598FFF72AFD86
:1022000060B301205CE62534A077030AE377030C72
:1022100084F82030000E84F8210004F8019C4FEA75
:10222000192020704FEA194060704FEA1960A070C1
:102230000220E071002020726072A0720123E3721C
:10224000207306236373A073E2766177253C132223
:1022500029A104F1470000F04DFCC5E7032F06D18A
:1022600001230AF1060221460598FFF7F3FC5D46BB
:102270004FF0000B72890021204600F044FC0698C4
:102280000390032F12D0012F0ED06FF0FF010143F6
:10229000039121700398000A60700398000CA070ED
:1022A0000398000EE07039E01849F0E760F0FF0095
:1022B000039020700398000A60700398000CA070CF
:1022C0000398000EE070FF2020716071A0711FE084
:1022D00020000020AC2B0008EBFE904D53444F53E0
:1022E000352E30004E4F204E414D452020202046B7
:1022F00041542020202020004E4F204E414D4520AB
:1023000020202046415433322020200000FFFF00CF
:10231000E07120726072A0720F20E0722A466D1C7C
:10232000012321460598FFF795FC08B10120C7E578
:1023300072890021204600F0E6FB012003900CE0AA
:102340002A466D1C012321460598FFF783FC08B13E
:102350000120B5E50398401C039003984845EFD34E
:102360000BF1010BBBF1000F84D0032F01D0DDF87E
:1023700004802A466D1C012321460598FFF76AFC5C
:1023800008B101209CE5B8F10108F2D1032F3AD140
:102390005220207060706120A0704121E170722293
:1023A00084F8E42184F8E52184F8E61184F8E70153
:1023B0000498401E84F8E801010A84F8E911010C30
:1023C00084F8EA11000E84F8EB01022084F8EC0195
:1023D000002084F8ED0184F8EE0184F8EF01552027
:1023E00084F8FE01AA2084F8FF0101230AF101020A
:1023F00021460598FFF72EFC01230AF1070221462A
:102400000598FFF727FC002211460598FFF7E5FB2A
:1024100008B1012054E5002052E5000017B581B055
:10242000144602980090684600F020FB002802DA6B
:102430000B2004B010BD0B4B53F82010002201B14B
:102440000A700199002900D00A7043F8201001D0C9
:10245000012C01D00020ECE7002202A901A800F025
:102460008FF8E6E72000002010B51AA0FFF71CF94E
:1024700000221DA11D48FFF7D1FF1D4C2070014611
:102480001CA0FFF711F920780D2821D11FA0FFF71C
:102490000BF90022114614A0FFF70AFD2070014637
:1024A00025A0FFF701F9207818B129A0FFF7FCF863
:1024B000FEE72BA0FFF7F8F800220BA11046FFF76C
:1024C000ADFF2070002208A10848FFF7A7FF207089
:1024D00010BD0000CEC4BCFECFB5CDB3D2C6D6B2BF
:1024E000B2E2CAD400000000313A00002C200020E3
:1024F000100000200D0A20665F6D6F756E742072EB
:102500006573203D2025640D0A000000464C4153B0
:1025100048BBB9C3BBD3D0CEC4BCFECFB5CDB3A3EB
:10252000ACBCB4BDABBDF8D0D0B8F1CABDBBAF2E0A
:102530002E2E0D0A000000000D0A20665F6D6B66EE
:102540007320726573203D2025640D0A0000000091
:10255000B8F1CABDBBAFCAA7B0DC2E2E2E0D0A0043
:10256000464C415348D2D1B3C9B9A6B8F1CABDBB94
:10257000AFCEC4BCFECFB5CDB3A1A30D0A00000001
:102580002DE9FF478046084616460027C8F8007028
:1025900000F06CFA0546002D03DA0B2004B0BDE80C
:1025A000F087C64850F825408CB1C8F80040207824
:1025B00020B16078FFF73EFBC1070AD02770E8B270
:1025C0006070FFF7FBFAC1070AD00320E6E70C2092
:1025D000E4E71EB1400701D50A20DFE70020DDE770
:1025E0001EB1400701D50A20D8E7607804F10A023D
:1025F0000221FFF7F2FA30B96089B0F5007F02D30B
:10260000B0F5805F01D90120C8E7002529462046A2
:10261000FFF796FA012826D10021E84604EB0110C5
:1026200000F5F770027952B1027AC37A42EA036286
:10263000837A407A1B0443EA0020024300E0002230
:1026400048F82120491C0429E8D3002658F82650D0
:1026500025B129462046FFF773FA00E0022010B1A9
:10266000761C042EF2D3032802D018B10D2095E772
:10267000012093E794F83B0094F83C10B4F80AC0AA
:1026800040EA0120604501D00D2087E794F846001C
:1026900094F8471040EA012058B914F8540FE17833
:1026A000627840EA0160A1780904543C41EA0221C1
:1026B0000843A06194F840A084F803A0BAF1010F88
:1026C00004D0BAF1020F01D00D2067E70AFB00FA2F
:1026D00094F83D20A27012B1511E0A4201D00D2083
:1026E0005CE794F8411094F8423041EA03232381D7
:1026F0004FEA5C16B3FBF6F106FB113109B10D2070
:102700004CE794F8431094F8448041EA082179B9E1
:1027100094F8501094F8538094F8519041EA08616D
:1027200094F852804FEA084848EA092841EA08012B
:1027300094F83E8094F83F9048EA0929B9F1000FD7
:1027400008D0B3FBF6F609EB0A08B044414503D2C2
:102750000D2023E70D2021E7A1EB0801B1FBF2F1E9
:1027600041B3012640F6F672914200D302264FF69D
:10277000F672914200D30326891C6161E56105EB85
:1027800009022262A844C4F82880032E14D03BB367
:1027900052446262022E25D001F0010201EB410198
:1027A00002EB5101491E6144B1FBFCF181421BD98E
:1027B0000D20F3E60D20F1E60BB10D20EEE694F8C6
:1027C0005C2094F85F3094F85D8042EA036294F8EC
:1027D0005E301B0443EA08231A4362628900E1E782
:1027E0000D20DBE64900DDE74FF0FF302061E060BF
:1027F00080206071032E57D194F8600094F8611026
:1028000040EA012001284FD1691C204600F083F9DD
:10281000F0BB677194F82E0294F82F1240EA012061
:10282000A0F52A4155393FD114F8300FE17862788C
:1028300040EA0160A178303C090441EA02210843E2
:102840001F49884230D194F8140294F8171294F872
:10285000152240EA016094F81612090441EA0221A7
:102860000843184988421FD194F8180294F81B12A3
:1028700094F8192240EA016094F81A12090441EA16
:1028800002210843206194F81C0294F81F1200E012
:102890000AE040EA016094F81E1294F81D2209042F
:1028A00041EA02210843E06026700449091F0888B4
:1028B000401C0880E080002070E60000200000201E
:1028C000525261417272416170B5FEF7D9F92548E3
:1028D000FEF7EAFEFEF750F9014623A0FEF7E4FEFC
:1028E0002AA0FEF7E1FE0020FEF79CF82DA0FEF7DF
:1028F000DBFE32A0FEF7D8FE4FF480552846FEF7E7
:1029000091F834A0FEF7D0FE38A0FEF7CDFE0021EE
:102910003A4C77236354491C89B2A942FAD32A4618
:1029200036490A20FEF7BCF835A0FEF7BDFE38A0F8
:10293000FEF7BAFE2A463A490A20FEF7F3F80024C9
:102940002E46374D37A0295DFEF7AEFE641CA4B2BB
:10295000B442F7D335A0FEF7A7FEBDE87040374874
:10296000FEF7A2BE7C2C00080D0A54686520466C58
:102970006173682044657669636520494420697302
:10298000203078253032780D0A0000000D0AB2C1DF
:10299000B3FDB5DA30B8F6C9C8C7F8BFAACABC0DCE
:1029A0000A0000000D0AB2C1B3FDB5DA30B8F6C9AD
:1029B000C8C7F8BDE1CAF80D0A0000000D0AB2C18F
:1029C000B3FDB5DA31B8F6C9C8C7F8BFAACABC0D9D
:1029D0000A0000000D0AB2C1B3FDB5DA31B8F6C97C
:1029E000C8C7F8BDE1CAF80D0A0000000D0AD0B44E
:1029F000C8EBBFAACABC0D0A000000002C100020C2
:102A00000D0AD0B4C8EBBDE1CAF80D0A0000000001
:102A10000D0AB6C1C8A1BFAACABC0D0A00000000B9
:102A20002C00002030782530327820000D0AB6C105
:102A3000C8A1BDE1CAF80D0A00000000242D00085D
:102A400070B50446064DE1B22846FEF789FD8021A7
:102A50002846FEF7E1FC0028F9D0204670BD0000B2
:102A600000100140004870470000214610B50446A0
:102A70004FF0FF302368002B0BD0194600E0491CB3
:102A80000A78202A01D33A2AF9D10A783A2A01D0C1
:102A9000002010BD13F8012B303A0A2AF9D28B42DC
:102AA000F7D1022AF5D21046491C216010BD000062
:102AB000FDF7EEFBFEF75AFDFDF746FFFEF788FA3D
:102AC0000A48FEF7F1FDFFF7E5F8FFF7FDFEFFF717
:102AD000CBFC4FF48055064C6E0029462046FEF78D
:102AE000BFF931462046FEF7BBF9F6E7D82B0008C0
:102AF0000008024003E011F8013B00F8013B521EC0
:102B0000531CF8D17047C9B201E000F8011B521EF6
:102B1000531CFAD1704770B504460E460025E06A92
:102B2000B04210D0204600F010F805465DB960783C
:102B30000123324604F13001FFF76EF810B14FF077
:102B4000FF360125E662284670BD2DE9F0410446B6
:102B50000027207900281FD0E66A04F13001607850
:102B6000012332468846FFF775F808B1012713E0C4
:102B700000202071206AA169301A88420CD2E578C1
:102B800008E0A06906446078012332464146FFF719
:102B900061F86D1E022DF4D23846BDE8F0810103C4
:102BA0000507090E10121416181C1E00000400025E
:102BB0000001800040002000100008000400020016
:102BC00000000080004000200010000800400020AD
:102BD00000100008000400020D0A2A2A2A2A2A2AC4
:102BE0002A2A2A2A2A2A2A2A2A2A2A2A2A2A2A2A45
:102BF0002A2A2A2A2A2A2A5343545F56322E302A56
:102C00002A2A2A2A2A2A2A2A2A2A2A2A2A2A2A2A24
:102C10002A2A2A2A2A2A2A2A2A2A2A2A2A2A2A2A14
:102C20002A2A0D0A000000000D0A3D3D3D3D3D3DB4
:102C30003D3D3D3D3D3D3D3D3D3D3D3D3D3D3D3DC4
:102C40003D3D3D3D41543234433038B6C1D0B4B23D
:102C5000E2CAD4BFAACABC3D3D3D3D3D3D3D3D3DE0
:102C60003D3D3D3D3D3D3D3D3D3D3D3D3D3D3D3D94
:102C70003D3D3D3D3D3D3D3D0D0A00000D0A3D3DC4
:102C80003D3D3D3D3D3D3D3D3D3D3D3D3D3D3D3D74
:102C90003D3D3D3D3D3D3D3D57323551313238B6EC
:102CA000C1D0B4B2E2CAD4BFAACABC3D3D3D3D3D8D
:102CB0003D3D3D3D3D3D3D3D3D3D3D3D3D3D3D3D44
:102CC0003D3D3D3D3D3D3D3D3D3D3D3D0D0A000011
:102CD0000D0A3D3D3D3D3D3D3D3D3D3D3D3D3D3D87
:102CE0003D3D3D3D3D3D3D3D3D3D3D3D415432340D
:102CF000433038B6C1D0B4B2E2CAD4BDE1CAF83D5F
:102D00003D3D3D3D3D3D3D3D3D3D3D3D3D3D3D3DF3
:102D10003D3D3D3D3D3D3D3D3D3D3D3D3D3D3D3DE3
:102D20000D0A00000D0A3D3D3D3D3D3D3D3D3D3D13
:102D30003D3D3D3D3D3D3D3D3D3D3D3D3D3D3D3DC3
:102D400057323551313238B6C1D0B4B2E2CAD4BDEF
:102D5000E1CAF83D3D3D3D3D3D3D3D3D3D3D3D3DB7
:102D60003D3D3D3D3D3D3D3D3D3D3D3D3D3D3D3D93
:102D70003D3D3D3D0D0A0000982D0008000000205B
:102D80002C000000C8160008C42D00082C000020EC
:102D900034340000D81600080000000001020304CB
:102DA000010203040607080900000000FF070000F5
:102DB000FF0700000000000000000000000000000D
:042DC000000000000F
:040000050800018965
:00000001FF
